:020000040000fa
:080000000002040000000000f2
:020000040000fa
:04000800fa020000f8
:020000040000fa
:04000c000c030000e1
:020000040000fa
:0400100024030000c5
:020000040000fa
:0400140002030000e3
:020000040000fa
:0400180014030000cd
:020000040000fa
:04001c001c030000c1
:020000040000fa
:040020002c030000ad
:020000040000fa
:040024009203000043
:020000040000fa
:04002800920300003f
:020000040000fa
:04002c00920300003b
:020000040000fa
:040030009203000037
:020000040000fa
:040034006403000061
:020000040000fa
:040038004e03000073
:020000040000fa
:04003c00920300002b
:020000040000fa
:040040009203000027
:020000040000fa
:040044009203000023
:020000040000fa
:04004800920300001f
:020000040000fa
:04004c00920300001b
:020000040000fa
:040050009203000017
:020000040000fa
:040054009203000013
:020000040000fa
:04005800920300000f
:020000040000fa
:04005c00920300000b
:020000040000fa
:040060009203000007
:020000040000fa
:040064009203000003
:020000040000fa
:0400680092030000ff
:020000040000fa
:04006c0092030000fb
:020000040000fa
:0400700092030000f7
:020000040000fa
:0400740092030000f3
:020000040000fa
:0400780092030000ef
:020000040000fa
:04007c0092030000eb
:020000040000fa
:0400800092030000e7
:020000040000fa
:0400840092030000e3
:020000040000fa
:0400880092030000df
:020000040000fa
:04008c0092030000db
:020000040000fa
:0400900092030000d7
:020000040000fa
:0400940092030000d3
:020000040000fa
:0400980092030000cf
:020000040000fa
:04009c0092030000cb
:020000040000fa
:0400a00092030000c7
:020000040000fa
:0400a40092030000c3
:020000040000fa
:0400a80092030000bf
:020000040000fa
:0400ac0092030000bb
:020000040000fa
:0400b00092030000b7
:020000040000fa
:0400b40092030000b3
:020000040000fa
:0400b80092030000af
:020000040000fa
:0400bc0092030000ab
:020000040000fa
:0400c00092030000a7
:020000040000fa
:0400c40092030000a3
:020000040000fa
:0400c800920300009f
:020000040000fa
:0400cc00920300009b
:020000040000fa
:0400d0009203000097
:020000040000fa
:0400d4009203000093
:020000040000fa
:0400d800920300008f
:020000040000fa
:0400dc00920300008b
:020000040000fa
:0400e0009203000087
:020000040000fa
:0400e4009203000083
:020000040000fa
:0400e800920300007f
:020000040000fa
:0400ec00920300007b
:020000040000fa
:0400f0009203000077
:020000040000fa
:0400f4009203000073
:020000040000fa
:0400f800920300006f
:020000040000fa
:0400fc00920300006b
:020000040000fa
:040100009203000066
:020000040000fa
:040104009203000062
:020000040000fa
:04010800920300005e
:020000040000fa
:04010c00920300005a
:020000040000fa
:040110009203000056
:020000040000fa
:040114009203000052
:020000040000fa
:04011800920300004e
:020000040000fa
:04011c00920300004a
:020000040000fa
:040120009203000046
:020000040000fa
:040124009203000042
:020000040000fa
:04012800920300003e
:020000040000fa
:04012c00920300003a
:020000040000fa
:040130009203000036
:020000040000fa
:040134009203000032
:020000040000fa
:04013800920300002e
:020000040000fa
:04013c00920300002a
:020000040000fa
:040140009203000026
:020000040000fa
:040144009203000022
:020000040000fa
:04014800920300001e
:020000040000fa
:04014c00920300001a
:020000040000fa
:040150009203000016
:020000040000fa
:040154009203000012
:020000040000fa
:04015800920300000e
:020000040000fa
:04015c00920300000a
:020000040000fa
:040160009203000006
:020000040000fa
:040164009203000002
:020000040000fa
:0401680092030000fe
:020000040000fa
:04016c0092030000fa
:020000040000fa
:0401700092030000f6
:020000040000fa
:0401740092030000f2
:020000040000fa
:0401780092030000ee
:020000040000fa
:04017c0092030000ea
:020000040000fa
:0401800092030000e6
:020000040000fa
:0401840092030000e2
:020000040000fa
:0401880092030000de
:020000040000fa
:04018c0092030000da
:020000040000fa
:0401900092030000d6
:020000040000fa
:0401940092030000d2
:020000040000fa
:0401980092030000ce
:020000040000fa
:04019c0092030000ca
:020000040000fa
:0401a00092030000c6
:020000040000fa
:0401a40092030000c2
:020000040000fa
:0401a80092030000be
:020000040000fa
:0401ac0092030000ba
:020000040000fa
:0401b00092030000b6
:020000040000fa
:0401b40092030000b2
:020000040000fa
:0401b80092030000ae
:020000040000fa
:0401bc0092030000aa
:020000040000fa
:0401c00092030000a6
:020000040000fa
:0401c40092030000a2
:020000040000fa
:0401c800920300009e
:020000040000fa
:0401cc00920300009a
:020000040000fa
:0401d0009203000096
:020000040000fa
:0401d4009203000092
:020000040000fa
:0401d800920300008e
:020000040000fa
:0401dc00920300008a
:020000040000fa
:0401e0009203000086
:020000040000fa
:0401e4009203000082
:020000040000fa
:0401e800920300007e
:020000040000fa
:0401ec00920300007a
:020000040000fa
:0401f0009203000076
:020000040000fa
:0401f4009203000072
:020000040000fa
:0401f800920300006e
:020000040000fa
:0401fc00920300006a
:020000040000fa
:040200009203000065
:020000040000fa
:040204009203000061
:020000040000fa
:04020800920300005d
:020000040000fa
:04020c009203000059
:020000040000fa
:040210009203000055
:020000040000fa
:040214009203000051
:020000040000fa
:04021800920300004d
:020000040000fa
:04021c009203000049
:020000040000fa
:040220009203000045
:020000040000fa
:040224009203000041
:020000040000fa
:04022800920300003d
:020000040000fa
:04022c009203000039
:020000040000fa
:040230009203000035
:020000040000fa
:040234009203000031
:020000040000fa
:04023800920300002d
:020000040000fa
:04023c009203000029
:020000040000fa
:040240009203000025
:020000040000fa
:040244009203000021
:020000040000fa
:04024800920300001d
:020000040000fa
:04024c009203000019
:020000040000fa
:040250009203000015
:020000040000fa
:040254009203000011
:020000040000fa
:04025800920300000d
:020000040000fa
:04025c009203000009
:020000040000fa
:040260009203000005
:020000040000fa
:040264009203000001
:020000040000fa
:0402680092030000fd
:020000040000fa
:04026c0092030000f9
:020000040000fa
:0402700092030000f5
:020000040000fa
:0402740092030000f1
:020000040000fa
:0402780092030000ed
:020000040000fa
:04027c0092030000e9
:020000040000fa
:0402800092030000e5
:020000040000fa
:100400000fc021000eff23000e0188000000000035
:10041000000020000000e000020032000001200087
:1004200020028800140007001e0307000000e000ff
:1004300003003a0080d920000100200002003700ac
:100440000000200001002000810f70000100320038
:100450000f000700000020000000e0000200320052
:100460000000020000000000141302000000000061
:100470000040da000000fe00200020000000e00044
:1004800002003200100020009001880000000600e9
:10049000a1028800800478000000eb001f003700f4
:1004a000e284440054a0b4009905ba00e2844400f8
:1004b00054a0b4009906ba00e284440054a0b400e9
:1004c0000006eb00476fde00fd07b200ae018800ba
:1004d000636ce10003003a000ad801000000eb0061
:1004e0000e003700606ce10008003a00004deb00a0
:1004f0000a05e800020039003420ec000af0a000f0
:100500008b05e900f9ff3e00040037006168e10057
:10051000010032000086eb000b00070019c7ba008b
:100520000e04e0001905ba0003003a000a00e000da
:10053000dbff3a0000000600fe07b200ae028800b2
:100540008a047800f5ff37000cd0a300e20f4d00bd
:100550001c00390089027800354dba000a05e80010
:10056000020039003420ec000af0a0008b05e900fd
:100570000f003200254dba000a05e80002003900dc
:100580003420ec000af0a0008b05e90008003200de
:100590000c00e0000600320015cdba000a05e800a4
:1005a000020039003420ec000af0a0008b05e900bd
:1005b0008984e80054a0b4000b00e000e2ff3a0098
:1005c000000006009902ba00055d78008b05e9007d
:1005d000f7ff3200c82ade00055d78008b05e900d0
:1005e000f3ff32000c00e000f1ff320019ddba0029
:1005f000eeff37003600f800c028a9000000eb002d
:10060000710907003600f80073090700c048a90007
:10061000100020006c0907003600f800c068a9002f
:1006200020002000680907003600f800c088a900f3
:1006300030002000640907003600f800c0a8a900b7
:1006400040002000600907003600f800c608a90035
:10065000700020005c0907003600f8002146800089
:1006600000022000008060000000e0000300320073
:10067000c4a8a9009000200053090700204680006c
:10068000700060000000e00003003200c488a90090
:10069000a00020004c090700ffff3700801f7800f2
:1006a0000000fa0010c0b3000df0b7000cd0bf007e
:1006b0000004a2000cf0b7000088a9000080fa0036
:1006c0004f007800004006003600f800809fbe0012
:1006d000829fbe00849fbe00869fbe000000fa007d
:1006e0005608070030232100104078008040e800c1
:1006f00030232100014878002023210011c0b300dd
:10070000014878000068a9000080fa004f03be008d
:100710004f02be004f01be004f00be003600f90080
:10072000004006000040da000000fe00cf80de003e
:10073000530307000200200003802300b2030700d8
:1007400080017800010178000300780082007800c1
:1007500000000600f6874700889fbe008a9fbe0003
:100760008c9fbe008e1f7800f1af9f00820478003e
:10077000180020000040dd004f04de0000004400af
:100780000084d1000000200001f823007c01070054
:10079000ffa89700800878000000eb009000980008
:1007a0006140b900360307000001be00b0fd200023
:1007b00091042400a4020700800578000105780058
:1007c0000b0078008a0078009d020700b0b79f00f8
:1007d000a1b79f000900e000940032000a01be00aa
:1007e0000300780082007800240407000006be00a1
:1007f0000883e90086003300ffab9700648543005f
:100800008c0478000d047800bfb597002fb79700cf
:100810000b0078008e00780086bf9f00580107000b
:10082000000d780009007800880078005401070066
:100830001005980064054500bfb097002fb09700e1
:1008400001017800800178000b0078008e007800ac
:100850006d0307000002be000c01be00c8b79f0078
:100860000900780088007800e4b79f00f5b79f0082
:10087000650307000001be006fb29700ffb297004a
:100880000400be000802070090b79f0081b79f00d8
:10089000bfb097002fb09700010178008001780069
:1008a0000902780088007800040478008104780048
:1008b0000800be005403070080047800010478009b
:1008c0000c01be000b0278008e007800c4b79f00b8
:1008d000d1b79f004fb09700dfb097004a030700e1
:1008e0000902780088017800040478008304780005
:1008f0000801be00ed0107008004780001047800c3
:100900000fbb97000603e900410033009fb5970035
:100910000fb797000b0078008e00780086bf9f000d
:1009200017010700000d78000900780088007800a2
:10093000130107001005980064054500bfb097003b
:100940002fb0970001017800800178000b0078003b
:100950008e0078002c0307000002be000c01be00d0
:10096000c8b79f000900780088007800e4b79f00ae
:10097000f5b79f00240307000001be006fb2970087
:10098000ffb297000400be00c701070090b79f00a8
:1009900081b79f00bfb097002fb09700010178008a
:1009a000800178000902780088007800040478004b
:1009b000810478000800be0013030700800478005b
:1009c000010478000c01be000b0278008e00780054
:1009d000c4b79f00d1b79f004fb09700dfb097001a
:1009e00009030700090278008801780004047800f0
:1009f000830478000801be00ac0107008004780081
:100a0000010478000fbb97000603e900bfff3b001d
:100a10007fa897004f0778004f06be004f05be0025
:100a20004f04be006f01b100000006000a01be00c5
:100a30000300780082007800900307000006be00e3
:100a40000df0a2006aff37003200f80001c0fe007e
:100a5000b10278000009eb000002e9000700340051
:100a6000b10178000328e10002003c008302780015
:100a7000040950000402e900f9ff3c000500780079
:100a80003200f90000000600889fbe008a9fbe0069
:100a90008c9fbe008e1f78004400f800070f2000d6
:100aa000270288003200f800811f78000f077800c5
:100ab00007f02f000338e1004800320003d0fe00a9
:100ac00004018000ad918000050023001900200082
:100ad000804cdd008904d0000f85440008003100ff
:100ae00005055500060031008d84440004003100e6
:100af0008f844400020031008486540030003900a5
:100b000019002000804cdd00130020000204780052
:100b1000800678008904d100424edd00010578008e
:100b20000302e9000480080020000000000000002b
:100b30008a0546004218dd000902e9000480080029
:100b400018000000000000004620c3003200f8003a
:100b500001c0fe00000000003b0252003200f9001c
:100b6000df35c100080440001381c2003200f800e4
:100b700001c0fe0000000000ab825200264dc500ff
:100b80003e85c400bb00cd00bb80cd003a00ca004a
:100b90002a80ca003200f9000700c9000580c90098
:100ba000ba00cd00ba80cd000a05460002047800e4
:100bb0008301d0008d06e900d6ff3c002f003700ee
:100bc00019002000804cdd000f0478008906e90040
:100bd0000d800900b21f78000801780001c0fe00f6
:100be00019002000804cdd00130020000204780072
:100bf000800678008904d100424edd0001057800ae
:100c00000302e90004800800180000000000000052
:100c10008a0546004218dd000902e9000480080048
:100c200010000000000000004620c3003b025200fc
:100c3000df35c100080440001381c200ab825200be
:100c4000264dc5003e85c400bb00cd00bb80cd0055
:100c50003a00ca002a80ca000700c9000580c900fe
:100c6000ba00cd00ba80cd000a0546000204780023
:100c70008301d0008d06e900deff3c008e0778007e
:100c80004f0078003200f9004400f9004f07780067
:100c90004f06be004f05be004f04be000000060018
:100ca0003200f80001c0fe004600f8005000f800d5
:100cb00002202000320288000200280013002000d9
:100cc0008019dd0002817100820288000100780035
:100cd0000101780026002000470020008301e90080
:100ce00003800800070000000110e1000400340048
:100cf0001102be0092087800e2307b000489be0039
:100d000087804000121978005000f9004600f90071
:100d10003200f900000006003200f80001c0fe00b9
:100d2000821f7800849fbe008a1f78004400f8006c
:100d3000040f200024028800010578000601c3008a
:100d40000080e900008008000300000000000000af
:100d50000505f0000401f1003200cd000505f000aa
:100d60001001f1003200cd004400f9004f05780079
:100d70004f02be004f0078003200f900000006006c
:100d8000e8874700889fbe008a9fbe008c9fbe00f8
:100d90008e1f78000005be000200200003702400b2
:100da0001902070080047800010478006011b8007f
:100db0000a00be008f0107000000e0003700350088
:100dc0000900780088007800b20107008b01070055
:100dd0000005be000a00be00a90107000006be0013
:100de0000200200003f0230007020700000778003c
:100df00081bf9f00010178000e007800820078001a
:100e0000a4010700e0b79f00f1b79f000c01be00ee
:100e100009027800880078000403780081037800d4
:100e20000600be00a00007000004be000200200073
:100e300003f023000800be006e0107000000e00080
:100e40007b0034000200200003f823000c00be00e9
:100e500096000700690107000005be008a017800be
:100e60000b0178000300780082007800f3ff270070
:100e7000830f5000e08f580002003400f0ff27007d
:100e8000010020004f0778004f06be004f05be004e
:100e90004f04be008f00b10000000600090078007a
:100ea00088007800de000700540107000006be003d
:100eb0000c00be00720107000005be0009017800a9
:100ec000880178000a00be007a0107000000e000f7
:100ed000090032000200200003f823000a00be00cf
:100ee00071000700450107000006be000c00be00af
:100ef000630107000005be000200200003f023008c
:100f00000a00be00c00107000007780081bf9f00f3
:100f1000010178000e007800820078005d01070072
:100f2000e0b79f00f1b79f000a01be0009027800f8
:100f30008800780004037800810378000600be0072
:100f4000590007000004be000200200003f0230047
:100f50000800be00270107000000e0001700340071
:100f60000200200003f823000a00be004f00070023
:100f7000220107000006be008c0178000d017800f8
:100f8000030078008200780002002800f3ff2f00a1
:100f9000820f5000838f5800baff3d000200be0050
:100fa0004f0778004f06be004f05be004f04be003d
:100fb0008f00b10000000600b8ff370002002000db
:100fc00003f023008800780009007800010278000f
:100fd000800278000400be00040107000000e00069
:100fe000e5ff3a006fb19700ffb197008e027800dd
:100ff0000fba970005007800840078002a000700e7
:101000000001be0029000700fc0007000000e0000e
:10101000d9ff32000200200003f823000a00be00be
:1010200022000700f50007000006be00d2ff3700cf
:101030000200200003f023008800780009007800f7
:1010400001027800800278000400be00e70007007b
:101050000000e00081ff3a006fb19700ffb19700f8
:101060008e0278000fba970005007800840078009f
:101070000d0007000001be000c000700df000700a4
:101080000000e00075ff32000200200003f823009a
:101090000c00be0005000700d80007000005be00d8
:1010a0006eff37000000050003f0a200889fbe001d
:1010b0008a9fbe008c1f78003b010700420133006d
:1010c0006450e1004f0032006420e1005200320021
:1010d00003826c0007003b000905d0000306d00026
:1010e000820f54000c065d0002003900020032003d
:1010f00089017800030678008582550004003d00d0
:101100000003fd008103fd008502ea008b8542009b
:10111000840f720002003b0060001000e0801800a5
:101120006011b8000005eb007a28e1000a003900e0
:1011300006007800c75ddd00f707b2008780750004
:101140002d003700828171000a017800610560007e
:101150008180d1000080d3008502e900f9ff3b00c7
:10116000060440008784480002003b00600414002d
:10117000e0841c000988a300070032008a81710006
:1011800082817100610164008904d1000884d30068
:101190008b05e800170037000978a30013003a0018
:1011a0000b00e000130034008b05e9000804440044
:1011b00089844c000a4474000978a3000d003a00a9
:1011c0000b00e000070034008b05e9000804440030
:1011d00089844c0001003a000b0020000978a3002c
:1011e000f7ff32000001eb0002003700828171003e
:1011f0000a017800b10007000cf0a70001f0a00080
:10120000fa0037006420e10002003a00838f6c008e
:10121000fa0033000801be000200be00f3003700f0
:101220000001eb004a000700040032000200200029
:1012300003f8230001f0a6009cff07000000060051
:101240000081eb0024013700889fbe008a9fbe000a
:101250008c1f7800d4000700db00330003866c008d
:101260006450e1002e0032006420e10033003200bf
:101270006150e1002f0032006120e10031003200b6
:1012800085855500eb07b000090020000804200008
:10129000050037000804440089844c000a0031002e
:1012a0000603430087834b000001530081815b00ec
:1012b000f8ff33000203be000800a0000804440049
:1012c00089844c00f6ff3900c639dd0083017300c4
:1012d00001003200130020008904d1000884d300eb
:1012e0000998a300050032000800a7000300a00031
:1012f0008904d1000884d3008b05e8008904d1005b
:101300000884d3000001eb000281d2006b000700cb
:1013100001f0a1000cf0a70001f0a000b30037001d
:101320006420e100b50032000801be000200be00ea
:10133000f7ff37006120e100b00032006000b80024
:10134000f3ff37000000200001f82700f0ff37000e
:10135000889fbe008a9fbe000003be007d0007007c
:101360008505780082815200020020006220e100a1
:1013700004003a00f307b100040035007718e100db
:10138000040035000600be00140037006000b800fd
:101390000f003700f50f2000faff2f008502d10063
:1013a0000a85d3008301e900fcff3b0081846200d1
:1013b00000046500890f7400f2ff32008582ea00a4
:1013c0000a85ea0081846200000465003b00070092
:1013d00007f0a70001f0a0000081eb000200e00090
:1013e0004f05be004f04be000000060014002000a0
:1013f00024013700f4ff2f00220137000001be0056
:10140000540007000470a70003f0a1006509b100b3
:10141000160032000d0035006828e1000600350096
:10142000f0ff2f00f1ff27000300e00013003b0056
:1014300001002800000005000000400081804800f5
:101440008502e900fcff3a0008003700f88f4200ef
:1014500002003c008000eb00000005008100d1008c
:101460000080d3008502e800fcff3a000300e000a2
:1014700002003b0060001000e08018000000060041
:101480004f89de0082017800190137006011b80031
:10149000270137000001eb00adff07000400320018
:1014a0000200200003f8230001f0a700fefe070061
:1014b0000000060004002000f20037008100200038
:1014c000618055000b003d000b00200061fe2f00e5
:1014d0000100e1001d00340082817100610164009f
:1014e0008904d1000884d3000000e800faff3a0024
:1014f00071002000610064000300700002006000c1
:101500000900320061044400e0844c000988a50011
:10151000050032008b05e8006808e10002003a008f
:101520008904d1000884d300f20f20000258e100a2
:1015300005003d00c75ddd00f907b2008980750038
:1015400008007800000006000bf827008b007800e8
:1015500000000500c70ade00f107b200f50fb20077
:1015600008003200e1cf4200020032000170a0000a
:1015700024000500810f70000100320004080500fe
:1015800044000500810f700002003a0014000500bd
:101590008502e9000000400081c04800fcff3b00dc
:1015a0000170a000240005000004be00e9ff070050
:1015b0000003be000405be000200be00e5ff0700f8
:1015c000844f7500000006000200be006450e10078
:1015d000050036006420e100020036000968a3001f
:1015e00001003a000800be000160a0004f0678002c
:1015f0004f05be004f04be0000000600f0ff2f00a4
:10160000f1ff2700f9ff3700889fbe008a9fbe00c8
:101610008c1f7800e4ff0700ebff330003866c00ab
:101620006450e100240032006420e1002700320011
:101630006150e100220032006120e100210032000f
:101640008b854200eb07b1000134b800003ab800c6
:101650000804420089844a00013ab8000030b8000a
:101660008880400009014a00040033000000400067
:1016700081804800020149008b05e900c909dd00ad
:10168000830170000100320013002000c814de0046
:101690004814dd004709de001200b200c808de0071
:1016a0000884700085ff070001f0a1000cf0a7007e
:1016b00001f0a000cdff37006120e100cfff320034
:1016c0000801be000200be00f7ff37006150e100d4
:1016d000fcff3a00c9ff3700889fbe008a9fbe000a
:1016e0008c9fbe00820578000004be0099ff0700b1
:1016f0000800be006420e1000700390002003a0043
:10170000f1ff2700f0ff2f000160a000120220006f
:1017100072808800550037006120e10003003a0024
:101720000b00a70001f823005000370001f0a100d2
:1017300002002100936424002cff07000800be0073
:1017400004003500b2fd2000930c2400a700070020
:101750000004be000005eb000b00a6004f0dde00ec
:1017600001f0a1000004be0032982f0023ea2300fc
:10177000a5ff07000001eb0003f023000b00a7000a
:1017800003f8230049fe07001cff07000000a70024
:101790000a00a2003aff07000b00e000030032003d
:1017a0000200200003f023003ffe070001f0a2002a
:1017b0000006be00020020009304240092ff0700f0
:1017c0000801be0039fe0700809fbe000c00be006d
:1017d00022a22a00d3a723008bff07004f01be00df
:1017e00032fe07000004be0001f0a100020020004c
:1017f00003982300fdfe07000800be001900350015
:101800000001be0080ff07000006be00b2c529002f
:10181000e36223007cff070022222b00f3942b00bd
:1018200022fe07000c01be0077ff0700e2732800cc
:1018300083c023001dfe07000c01be0072ff0700dd
:1018400042aa2a00a3e22b0018fe07000c01be00ea
:101850006dff07000801be006bff07000801be0016
:1018600012fe07000a00a70001f0a2004f06be000a
:101870004f05be004f04be00000006000001eb0053
:1018800095ff3700889fbe008a9fbe00841f7800a6
:1018900045ff07004f00780011003300f0ff2f00d4
:1018a000838f6c0006003b00040565000a00a7005a
:1018b0000800370009f0a6001000200008003700db
:1018c000820f5400838f5c00030039001000200059
:1018d00001003e000000200009f0a7000000ea001f
:1018e0004f05be004f04be000000e00000000600ef
:1018f000881f7800030478000300e00007003d0023
:1019000060001000e080180060011900e0811900fb
:1019100002003b0001f02d00030037000400070027
:1019200008f0a70001f0a0004f04780000000600b6
:10193000889fbe008a9fbe00008270000402710072
:1019400004827100260032000004be000200be00c6
:101950006011b8006b092000950220000182cf00c1
:101960000a0039000541b1000082cf0007003900ac
:101970000541b1000982cf00040039000541b100e2
:101980000882cf00010039000541b1000542520034
:10199000120032000a003b00828171006101640084
:1019a0008100d1000080d3008984d3000884d30053
:1019b0008b05e8000442e800f7ff3a000700370013
:1019c0000804440089844c000000480081804800dd
:1019d0008b05e9000442e900f9ff3a00b7fe070071
:1019e0004f05be004f04be000000060004002000aa
:1019f00000003700889fbe008a9fbe008c1f7800c1
:101a00004f26dd00e8fe0700effe33006120e10015
:101a1000430032006250e10041003e003e003900c8
:101a20006420e1003c003200058255000f003b00bd
:101a30000402e80038003a00800f5300818f5b00f9
:101a4000350034000800be0003f0a10001f0a6003c
:101a500003f0a0000cf0a70094fd0700e3fe3700a0
:101a60000603430087834b000c46460000055300e5
:101a700081855b00020033000a03be000c00a00059
:101a80000402e900f6ff3b008505780006024300ea
:101a900087824b0004003a006000b80009f0a700fc
:101aa00001f0a000d1fe37000002520081825a00ee
:101ab0000704e000040033000603430087834b0063
:101ac0008b05e900faff3700090578000604be001f
:101ad0000203be006011b80078fe0700e00f52005c
:101ae000e08f5a000700350002003c000c08a300fc
:101af000040032000601be0003f0a0000cf0a700b5
:101b00006afd07000a85680001f0a1000af0a7003d
:101b100001f0a000b5fe37000800be00b3fe37009c
:101b2000100220000cf0a60070808800b3fe370081
:020000040000fa
:101b300010120000200000008000000008100000cb
:101b40000200000082000000ffff00000a100000f9
:101b500002000000800000000048000000080000b3
:101b6000800000000c100000020000008000000057
:101b7000301200000200000080000000321200005d
:101b800002000000800000000018000000040000b7
:101b900082000000ff7fff007fff7f00ff7fff00cc
:101ba0007f01800001800100800180000180ff0032
:101bb0007fff7f00ff7fff007fff7f00018001002c
:101bc000800180000180010080ff7f00ff7fff0017
:101bd0007fff7f00ff7f0100800180000180010006
:101be00080018000ff7fff007fff7f00ff7fff00fd
:101bf0007f01800001800100800180000180ff00e2
:101c00007fff7f00ff7fff007fff7f0001800100db
:101c1000800180000180010080ff7f00ff7fff00c6
:101c20007fff7f00ff7f01008001800001800100b5
:101c300080018000ff7fff007fff7f00ff7fff00ac
:101c40007f01800001800100800180000180ff0091
:101c50007fff7f00ff7fff007fff7f00018001008b
:101c6000800180000180010080ff7f00ff7fff0076
:101c70007fff7f00ff7f0100800180000180010065
:101c800080018000ff7fff007fff7f00ff7fff005c
:101c90007f01800001800100800180000180ff0041
:101ca0007fff7f00ff7fff007fff7f00018001003b
:101cb000800180000180010080ff7f00ff7fff0026
:101cc0007fff7f00ff7f0100800180000180010015
:101cd00080018000ff7fff007fff7f00ff7fff000c
:101ce0007f01800001800100800180000180ff00f1
:101cf0007fff7f00ff7fff007fff7f0001800100eb
:101d0000800180000180010080ff7f00ff7fff00d5
:101d10007fff7f00ff7f01008001800001800100c4
:101d200080018000ff7fff007fff7f00ff7fff00bb
:101d30007f01800001800100800180000180ff00a0
:101d40007fff7f00ff7fff007fff7f00018001009a
:101d5000800180000180010080ff7f00ff7fff0085
:101d60007fff7f00ff7f0100800180000180010074
:101d700080018000ff7fff007fff7f00ff7fff006b
:101d80007f01800001800100800180000180ff0050
:101d90007fff7f00ff7fff007fff7f00018001004a
:101da000800180000180010080ff7f00ff7fff0035
:101db0007fff7f00ff7f0100800180000180010024
:101dc00080018000ff7fff007fff7f00ff7fff001b
:101dd0007f01800001800100800180000180ff0000
:101de0007fff7f00ff7fff007fff7f0001800100fa
:101df000800180000180010080ff7f00ff7fff00e5
:101e00007fff7f00ff7f01008001800001800100d3
:101e100080018000ff7fff007fff7f00ff7fff00ca
:101e20007f01800001800100800180000180ff00af
:101e30007fff7f00ff7fff007fff7f0001800000aa
:101e40000000000000000000000000000000000092
:101e50000000000000000000000000000000000082
:101e60000000000000000000000000000000000072
:101e70000000000000000000000000000000000062
:1020e00000000000000000000000000010100000d0
:1020f0000002000080000000004000000008000016
:1021000080000000001000000800000080000000b7
:1021100000140000000400008000000034120000e1
:102120000200000082000000000400000e10000009
:0c21300002000000800000000000000021
:020000040000fa
:10213c000000fa00c3e8a800000000000000000046
:10214c000080fa00000006000000fa0040a7a90079
:10215c000080fa00000006000200fa00000f780070
:10216c0021028000200f2000008060001e00700003
:10217c00200288000080fa00000006000000fa002f
:10218c000c000700360207007f0207006a020700f6
:10219c00da0107007f0107004c020700e4ff07008b
:1021ac00e9ff070000022000ebff07000080fa00a7
:1021bc00000006000000fa00a0082000303a880059
:1021cc00213a800000fe2f00008060000010a0006b
:1021dc00203a8800213a8000f0f32f000080600044
:1021ec00203a88003200200080072000a10920003e
:1021fc003374200080497800814978008249780046
:10220c0012002000600420007105200023742000bf
:10221c0080497800814978008249780000000000ec
:10222c00113a80000000270080806000000023002d
:10223c00808f5000faff3a0000000000113a800035
:10224c0000022000008060000000e000fbff320074
:10225c000080fa00000006000000fa00003a80003e
:10226c000080fa00000006000200fa00faff0700e6
:10227c00000f78001e007800240007000004e00026
:10228c000200320000002800710007001e007800d8
:10229c002a0007000004e0000200320000002400c5
:1022ac006b0007001e007800320007000004e000fd
:1022bc000200320000202000650007001e0078009c
:1022cc003a0007000004e000020032000008200081
:1022dc005f0007001e007800420007000004e000c9
:1022ec000200320000042000590007001e00780094
:1022fc004a0007000004e000020032000001200048
:10230c00530007000080fa00000006000400fa00e9
:10231c00100798000040eb00004f78001e00900062
:10232c000000e00002003d0010c0b300004f780038
:10233c001e4078000080fa00000006000400fa003d
:10234c00100798000040eb00004f78009e009000b2
:10235c0000002400008060000000e0000200320059
:10236c0010c0b300004f78001e4078000080fa00c7
:10237c00000006000400fa00100798000040eb0073
:10238c00004f78009e00900000202000008060002c
:10239c000000e0000200320010c0b300004f7800d3
:1023ac001e4078000080fa00000006000400fa00cd
:1023bc00100798000040eb00004f78009e00900042
:1023cc0000082000008060000000e00002003200e5
:1023dc0010c0b300004f78001e4078000080fa0057
:1023ec00000006000400fa00100798000040eb0003
:1023fc00004f78009e0090000004200000806000d8
:10240c000000e0000200320010c0b300004f780062
:10241c001e4078000080fa00000006000400fa005c
:10242c00100798000040eb00004f78001e00900051
:10243c00700060000000e0000200320010c0b30029
:10244c00004f78001e4078000080fa000000060063
:10245c000200fa00000f78009e80ea00003a80002b
:10246c0000806000003a88000080fa00000006003e
:10247c000000fa004027ef000080fa000000060080
:10248c001600fa00889fbe008a1f7800000f980083
:10249c00110f9800220f980000002000a10f2400bb
:1024ac0020079800310798000e0890000000e80003
:1024bc00000040009e089000008040001000780052
:1024cc0097f807000004be000e0890000000e90019
:1024dc00000040009e089000008040001000780032
:1024ec008ff807001ac0b3000001be000800be0040
:1024fc00bdfb07000000e00001003c000045eb00c4
:10250c000a04e000050032000e089000000fe800fd
:10251c0010c0b30020479800040037000e0890004c
:10252c00000fe9000040eb00204798001e007800e7
:10253c008000eb00d2fb07000004be000e089000e8
:10254c008000eb00cefb07000001be000800be00bf
:10255c003afb070040079800510798004e00900086
:10256c00de0090000001be00cdfa07000200200042
:10257c0003f82300c9fa07000004be000200200083
:10258c0003f823004e009000de009000c4fa070010
:10259c000001be000800be0028fb07006007980081
:1025ac00710798002e4090000004e0000c003200ef
:1025bc000e0890008000eb00b1fb07006e0190004c
:1025cc00fe019000b6fa07002e019000be019000ab
:1025dc000afc07002e0990000089be000b00370092
:1025ec000e0890008000eb00a5fb07006e01900028
:1025fc00fe019000a9fa07002e019000be01900088
:10260c00fefb07002e0990000089be004f057800e4
:10261c004f04be000080fa00000006000600fa001d
:10262c001007980021079800d4fe070021e3a800aa
:10263c000001eb00014021009000200042f807004f
:10264c0001003700000000000dd0bf000004e000c6
:10265c00fcff32000d70ef000cd0bf000004e00056
:10266c001b0032000630ef0014003700328080006f
:10267c0030808000800040000080240000804000fa
:10268c00100078008080d1004211dd000000240091
:10269c00000041000108780030808000c200dd009d
:1026ac0020002400008040008000eb00010878002e
:1026bc00308080000000e80030808800318080008d
:1026cc00f01f2000808f5000e8ff34001a00370004
:1026dc000630ef001400370032808000308080001c
:1026ec008000400000c024000080400010007800f2
:1026fc008080d1004211dd00000024000000410068
:10270c000108780030808000c200dd002000240029
:10271c00008040008000eb000108780030808000d1
:10272c000000e8003080880031808000f01f20001d
:10273c00808f5000e8ff340003f02f00024021008e
:10274c000100240090002000ccf8070001002400b8
:10275c00900020004ff90700020121000100240025
:10276c000010200069f9070002002100010121007e
:10277c0000102000b1f8070000808000220021002a
:10278c00010121003eff07000000eb00000f780064
:10279c00adff37000000fa000021ef00a068260012
:1027ac001008880000012800200888000068a90093
:1027bc002068a800202321008040eb00014878000d
:1027cc000080fa00000006000200fa00000f7800fa
:1027dc009e00780011088800202321008040eb0027
:1027ec00014878000080fa00000006000000fa00a2
:1027fc00100880000080fa00000006000200fa00b9
:10280c00000f78009e00780001088800202321002a
:10281c008040eb00014878000080fa0000000600c0
:10282c000000fa00000880000080fa00000006009a
:10283c000000fa00a0708000004078006140600049
:10284c000004a200614060000080fb006100600099
:10285c00a17080000100a10001007000a070880030
:10286c000080fa00000006000000fa00202321007e
:10287c008040eb00014878002068a80005e1a80022
:10288c000080fa00000006000000fa0005e1a90033
:10289c002068a9000080fa00000006000200fa007f
:1028ac0020232100104f78001e4078000004e00027
:1028bc0003003200202321008040eb000148780007
:1028cc001e4078000080fa00000006000000fa00ac
:1028dc0030232100104078000080fb000080fa00bb
:1028ec00000006000000fa00302321008040eb00bd
:1028fc00014878000080fa00000006000000fa0091
:10290c000a21ef00c0452400700888000000280050
:10291c0090088800002321008040eb0001487800db
:10292c000080fa00000006000000fa000140800060
:10293c0000102000008060000000e0000900320060
:10294c0010232100104078008040e8001023210063
:10295c00014878000023210011c0b3000148780021
:10296c000108a9000080fa00000006000200fa002d
:10297c00000f78009e007800710888000023210069
:10298c008040eb00014878000080fa00000006004f
:10299c000000fa00700880000080fa0000000600b9
:1029ac000200fa00000f78009e00780051088800a1
:1029bc00002321008040eb00014878000080fa00e1
:1029cc00000006000000fa00500880000080fa00a9
:1029dc00000006000000fa00002321008040eb00fc
:1029ec000148780013e1a8000080fa0000000600fe
:1029fc000000fa0013e1a9000080fa0000000600b4
:102a0c000200fa0000232100104f78001e407800cd
:102a1c000004e00003003200002321008040eb00a2
:102a2c00014878001e4078000080fa000000060083
:102a3c000000fa0010232100104078000080fb00f9
:102a4c000080fa00000006000000fa0010232100ac
:102a5c008040eb00014878000080fa00000006007e
:102a6c000000fa00042eef00142eef00242eef00cd
:102a7c00f079200000708800e0ff2f008070880043
:102a8c00f03f2000007188000c2eef001c2eef0090
:102a9c002c2eef000a2eef001a2eef002a2eef003c
:102aac00062eef00162eef00262eef003001200030
:102abc0070708800a0102000f0708800700020005a
:102acc00707188000080fa00000006000000fa0017
:102adc0001588000f0fc2f00008060000058880036
:102aec0001588000c0ff2f00008060000010a00083
:102afc0000588800d000200010588800f01f2000db
:102b0c007058880000302000605888000080240035
:102b1c0020588800062bef0000c024004058880085
:102b2c000a2bef000088a9002088a80001eba80060
:102b3c000080fa00000006000000fa004044290062
:102b4c00001988002223ef00d000200020198800f3
:102b5c002823ef002e23ef003023ef002623ef0075
:102b6c00101980004200de007f4060000af0b700c0
:102b7c000080fa00000006000000fa0001a8a9007d
:102b8c000080fa00000006000000fa0011428000ec
:102b9c0080ff2f00008060000000a0001042880021
:102bac0001428000f0ff28000080600000c0a000ff
:102bbc00004288000080fa0000000600000f780038
:102bcc009e00780041808800ffff37000000fa006b
:102bdc00002121008007780080222100000188005c
:102bec000080fa0000000600a0918800000006009a
:020000040000fa
:020000040002f8
:04afe000eeff000080
:020000040000fa
:020000040002f8
:04afe400ffff00006b
:020000040000fa
:020000040002f8
:04afe8007fff0000e7
:020000040000fa
:020000040002f8
:04afec00beff0000a4
:020000040000fa
:020000040002f8
:04aff000fbff000063
:020000040000fa
:020000040002f8
:04aff400ffff00005b
:00000001FF
