:020000040000fa
:080000000002040000000000f2
:020000040000fa
:04000800fa020000f8
:020000040000fa
:04000c000c030000e1
:020000040000fa
:0400100024030000c5
:020000040000fa
:0400140002030000e3
:020000040000fa
:0400180014030000cd
:020000040000fa
:04001c001c030000c1
:020000040000fa
:040020002c030000ad
:020000040000fa
:040024004e03000087
:020000040000fa
:040028004e03000083
:020000040000fa
:04002c004e0300007f
:020000040000fa
:040030004e0300007b
:020000040000fa
:040034000c0f0000ad
:020000040000fa
:04003800dc110000d7
:020000040000fa
:04003c004e0300006f
:020000040000fa
:040040004e0300006b
:020000040000fa
:040044004e03000067
:020000040000fa
:040048004e03000063
:020000040000fa
:04004c004e0300005f
:020000040000fa
:040050004e0300005b
:020000040000fa
:040054004e03000057
:020000040000fa
:040058004e03000053
:020000040000fa
:04005c004e0300004f
:020000040000fa
:040060004e0300004b
:020000040000fa
:040064004e03000047
:020000040000fa
:040068004e03000043
:020000040000fa
:04006c004e0300003f
:020000040000fa
:040070004e0300003b
:020000040000fa
:040074004e03000037
:020000040000fa
:040078004e03000033
:020000040000fa
:04007c004e0300002f
:020000040000fa
:040080004e0300002b
:020000040000fa
:040084004e03000027
:020000040000fa
:040088004e03000023
:020000040000fa
:04008c004e0300001f
:020000040000fa
:040090004e0300001b
:020000040000fa
:040094004e03000017
:020000040000fa
:040098004e03000013
:020000040000fa
:04009c004e0300000f
:020000040000fa
:0400a0004e0300000b
:020000040000fa
:0400a4004e03000007
:020000040000fa
:0400a8004e03000003
:020000040000fa
:0400ac004e030000ff
:020000040000fa
:0400b0004e030000fb
:020000040000fa
:0400b4004e030000f7
:020000040000fa
:0400b8004e030000f3
:020000040000fa
:0400bc004e030000ef
:020000040000fa
:0400c0004e030000eb
:020000040000fa
:0400c4004e030000e7
:020000040000fa
:0400c8004e030000e3
:020000040000fa
:0400cc004e030000df
:020000040000fa
:0400d0004e030000db
:020000040000fa
:0400d4004e030000d7
:020000040000fa
:0400d8004e030000d3
:020000040000fa
:0400dc004e030000cf
:020000040000fa
:0400e0004e030000cb
:020000040000fa
:0400e4004e030000c7
:020000040000fa
:0400e8004e030000c3
:020000040000fa
:0400ec004e030000bf
:020000040000fa
:0400f0004e030000bb
:020000040000fa
:0400f4004e030000b7
:020000040000fa
:0400f8004e030000b3
:020000040000fa
:0400fc004e030000af
:020000040000fa
:040100004e030000aa
:020000040000fa
:040104004e030000a6
:020000040000fa
:040108004e030000a2
:020000040000fa
:04010c004e0300009e
:020000040000fa
:040110004e0300009a
:020000040000fa
:040114004e03000096
:020000040000fa
:040118004e03000092
:020000040000fa
:04011c004e0300008e
:020000040000fa
:040120004e0300008a
:020000040000fa
:040124004e03000086
:020000040000fa
:040128004e03000082
:020000040000fa
:04012c004e0300007e
:020000040000fa
:040130004e0300007a
:020000040000fa
:040134004e03000076
:020000040000fa
:040138004e03000072
:020000040000fa
:04013c004e0300006e
:020000040000fa
:040140004e0300006a
:020000040000fa
:040144004e03000066
:020000040000fa
:040148004e03000062
:020000040000fa
:04014c004e0300005e
:020000040000fa
:040150004e0300005a
:020000040000fa
:040154004e03000056
:020000040000fa
:040158004e03000052
:020000040000fa
:04015c004e0300004e
:020000040000fa
:040160004e0300004a
:020000040000fa
:040164004e03000046
:020000040000fa
:040168004e03000042
:020000040000fa
:04016c004e0300003e
:020000040000fa
:040170004e0300003a
:020000040000fa
:040174004e03000036
:020000040000fa
:040178004e03000032
:020000040000fa
:04017c004e0300002e
:020000040000fa
:040180004e0300002a
:020000040000fa
:040184004e03000026
:020000040000fa
:040188004e03000022
:020000040000fa
:04018c004e0300001e
:020000040000fa
:040190004e0300001a
:020000040000fa
:040194004e03000016
:020000040000fa
:040198004e03000012
:020000040000fa
:04019c004e0300000e
:020000040000fa
:0401a0004e0300000a
:020000040000fa
:0401a4004e03000006
:020000040000fa
:0401a8004e03000002
:020000040000fa
:0401ac004e030000fe
:020000040000fa
:0401b0004e030000fa
:020000040000fa
:0401b4004e030000f6
:020000040000fa
:0401b8004e030000f2
:020000040000fa
:0401bc004e030000ee
:020000040000fa
:0401c0004e030000ea
:020000040000fa
:0401c4004e030000e6
:020000040000fa
:0401c8004e030000e2
:020000040000fa
:0401cc004e030000de
:020000040000fa
:0401d0004e030000da
:020000040000fa
:0401d4004e030000d6
:020000040000fa
:0401d8004e030000d2
:020000040000fa
:0401dc004e030000ce
:020000040000fa
:0401e0004e030000ca
:020000040000fa
:0401e4004e030000c6
:020000040000fa
:0401e8004e030000c2
:020000040000fa
:0401ec004e030000be
:020000040000fa
:0401f0004e030000ba
:020000040000fa
:0401f4004e030000b6
:020000040000fa
:0401f8004e030000b2
:020000040000fa
:0401fc004e030000ae
:020000040000fa
:040200004e030000a9
:020000040000fa
:040204004e030000a5
:020000040000fa
:040208004e030000a1
:020000040000fa
:04020c004e0300009d
:020000040000fa
:040210004e03000099
:020000040000fa
:040214004e03000095
:020000040000fa
:040218004e03000091
:020000040000fa
:04021c004e0300008d
:020000040000fa
:040220004e03000089
:020000040000fa
:040224004e03000085
:020000040000fa
:040228004e03000081
:020000040000fa
:04022c004e0300007d
:020000040000fa
:040230004e03000079
:020000040000fa
:040234004e03000075
:020000040000fa
:040238004e03000071
:020000040000fa
:04023c004e0300006d
:020000040000fa
:040240004e03000069
:020000040000fa
:040244004e03000065
:020000040000fa
:040248004e03000061
:020000040000fa
:04024c004e0300005d
:020000040000fa
:040250004e03000059
:020000040000fa
:040254004e03000055
:020000040000fa
:040258004e03000051
:020000040000fa
:04025c004e0300004d
:020000040000fa
:040260004e03000049
:020000040000fa
:040264004e03000045
:020000040000fa
:040268004e03000041
:020000040000fa
:04026c004e0300003d
:020000040000fa
:040270004e03000039
:020000040000fa
:040274004e03000035
:020000040000fa
:040278004e03000031
:020000040000fa
:04027c004e0300002d
:020000040000fa
:040280004e03000029
:020000040000fa
:100400000f8021000eff23000e0188000000000075
:10041000000020000000e000020032000001200087
:100420002002880014000700f90207000000e00025
:1004300003003a00a0142100010020000200370050
:100440000000200001002000810f70000100320038
:100450000f000700000020000000e0000200320052
:100460000000020000000000d40f020000000000a5
:100470000040da000000fe00200020000000e00044
:1004800002003200100020009001880000000600e9
:10049000a1028800800478000000eb001f003700f4
:1004a000e284440054a0b4009905ba00e2844400f8
:1004b00054a0b4009906ba00e284440054a0b400e9
:1004c0000006eb00476fde00fd07b200ae018800ba
:1004d000636ce10003003a000ad801000000eb0061
:1004e0000e003700606ce10008003a00004deb00a0
:1004f0000a05e800020039003420ec000af0a000f0
:100500008b05e900f9ff3e00040037006168e10057
:10051000010032000086eb000b00070019c7ba008b
:100520001905ba000e04e00003003a000a00e000da
:10053000dbff3a0000000600fe07b200ae028800b2
:100540008a047800f5ff37000cd0a300e20f4d00bd
:100550001c00390089027800354dba000a05e80010
:10056000020039003420ec000af0a0008b05e900fd
:100570000f003200254dba000a05e80002003900dc
:100580003420ec000af0a0008b05e90008003200de
:100590000c00e0000600320015cdba000a05e800a4
:1005a000020039003420ec000af0a0008b05e900bd
:1005b0008984e80054a0b4000b00e000e2ff3a0098
:1005c000000006009902ba00055d78008b05e9007d
:1005d000f7ff3200c82ade00055d78008b05e900d0
:1005e000f3ff32000c00e000f1ff320019ddba0029
:1005f000eeff37003600f800c028a9000000eb002d
:10060000b40707003600f800b6070700c048a90085
:1006100010002000af0707003600f800c068a900ee
:1006200020002000ab0707003600f800c088a900b2
:1006300030002000a70707003600f800c0a8a90076
:1006400040002000a30707003600f800c608a900f4
:10065000700020009f0707003600f8002146800048
:1006600000022000008060000000e0000300320073
:10067000c4a8a9009000200096070700204680002b
:10068000700060000000e00003003200c488a90090
:10069000a00020008f070700ffff37000040da00ae
:1006a0000000fe003200f80001c0fe004600f80025
:1006b0005000f800022020003202880002002800ca
:1006c000130020008019dd00028171008202880081
:1006d000010078000101780026002000470020007a
:1006e0008301e90003800800070000000110e10019
:1006f000040034001102be0092087800e2307b0052
:100700000489be0087804000121978005000f9006b
:100710004600f9003200f900000006003200f8003f
:1007200001c0fe00821f7800849fbe008a1f7800ef
:100730004400f800040f200024028800010578001e
:100740000601c3000080e9000080080003000000eb
:10075000000000000505f0000401f1003200cd00aa
:100760000505f0001001f1003200cd004400f90051
:100770004f0578004f02be004f0078003200f900ac
:1007800000000600889fbe008a9fbe008c9fbe00ae
:100790008e1f78004400f800070f20002702880011
:1007a0003200f800811f78000f07780007f02f0053
:1007b0000338e1004800320003d0fe00040180004d
:1007c000bd9180000500230019002000804cdd0051
:1007d0008904d0000f85440008003100050555004c
:1007e000060031008d844400040031008f844400f1
:1007f00002003100848654003000390019002000c6
:10080000804cdd0013002000020478008006780090
:100810008904d100424edd00010578000302e900a1
:100820000480080020000000000000008a05460047
:100830004218dd000902e9000480080018000000e9
:10084000000000004620c3003200f80001c0fe0096
:10085000000000003b0252003200f900df35c10009
:10086000080440001381c2003200f80001c0fe00fd
:1008700000000000ab825200264dc5003e85c4003a
:10088000bb00cd00bb80cd003a00ca002a80ca0060
:100890003200f9000700c9000580c900ba00cd0088
:1008a000ba80cd000a054600020478008301d0001a
:1008b0008d06e900d6ff3c002f003700190020000c
:1008c000804cdd000f0478008906e9000d800900e6
:1008d000b21f78000801780001c0fe001900200056
:1008e000804cdd00130020000204780080067800b0
:1008f0008904d100424edd00010578000302e900c1
:100900000480080018000000000000008a0546006e
:100910004218dd000902e900048008001000000010
:10092000000000004620c3003b025200df35c1003a
:10093000080440001381c200ab825200264dc5005e
:100940003e85c400bb00cd00bb80cd003a00ca008c
:100950002a80ca000700c9000580c900ba00cd007e
:10096000ba80cd000a054600020478008301d00059
:100970008d06e900deff3c008e0778004f0078000e
:100980003200f9004400f9004f0778004f06be001e
:100990004f05be004f04be0000000600f28747006e
:1009a000889fbe008a9fbe008c9fbe008e1f78006d
:1009b00091b79f00020578001c0020000066dd0052
:1009c00022002000110009000206d800000678006d
:1009d0000000200001f82300bb0007009fb0970033
:1009e000800878000001eb00920098006160b90077
:1009f0007e0207000001be00b0fd2000910424002b
:100a0000ec010700800478000104780009007800f8
:100a100088007800e5010700c0b79f00b1b79f00cc
:100a2000e00f5500910032000801be00030078007d
:100a3000820078006a0307000005be000c83e9000d
:100a4000830033001fb0970064004000f0b79f00a0
:100a50008a0678000b077800cfb09700e1b79f00b7
:100a60003fb09700d0b79f000001be0003007800a0
:100a70008200780086bf9f0093000700ffb09700b8
:100a8000800878000d0078008e0078008e00070046
:100a9000ffb0970090009800e4804000f1b79f00fd
:100aa000cfb197003fb1970003027800820278002f
:100ab0000401be006fb29700dfb297000400be00d1
:100ac000aa0207000004be000a01be000d02780061
:100ad0008e0278000400be00a40207000001be00e0
:100ae0000800be004b010700a0b79f000106780078
:100af0004fb19700bfb197000202be000401be00d3
:100b00000d0278008e0278000400be0097020700f4
:100b100080047800010478000a01be006fb29700db
:100b2000dfb297000400be00900207000801be007b
:100b300003027800820278000401be00360107003b
:100b400080067800010778000fbb97000603e900d4
:100b50003f003300afb09700e1b79f00dcb79f00c4
:100b6000810178000c017800030078008200780091
:100b700086bf9f0054000700ffb0970080087800f0
:100b80000d0078008e0078004f000700ffb097003e
:100b900090009800e4804000f1b79f00cfb197002b
:100ba0003fb1970003027800820278000401be0082
:100bb0006fb29700dfb297000400be006b0207001f
:100bc0000004be000a01be000d0278008e0278000b
:100bd0000400be00650207000001be000800be0060
:100be0000c010700a0b79f00010678004fb19700e5
:100bf000bfb197000202be000401be000d027800e2
:100c00008e0278000400be005802070080047800bd
:100c1000010478000a01be006fb29700dfb29700ae
:100c20000400be00510207000801be000302780064
:100c3000820278000401be00f700070080067800f9
:100c4000010778000fbb97000603e900c1ff3b00d6
:100c50001fb097004f0778004f06be004f05be003b
:100c60004f04be002f01b100000006000801be00c5
:100c70000300780082007800d90207000005be005a
:100c80000bf0a2006dff37003200f80001c0fe003b
:100c9000b10278000009eb000002e900070034000f
:100ca000b10178000328e10002003c0083027800d3
:100cb000040950000402e900f9ff3c000500780037
:100cc0003200f90000000600ea874700889fbe0056
:100cd0008a9fbe008c9fbe008e1f78000004be005d
:100ce0000200200003702400200207008006780024
:100cf000010678006011b8000800be0098010700e6
:100d0000e00f50003b0035000d0078008c007800ab
:100d1000b90107009401070000037800010778007b
:100d2000060078008e00780086bf9f00af010700a4
:100d30000004be000200200003f023000b020700a5
:100d4000f0b79f00e1b79f00ab0107000005be00b0
:100d50000801be000d0078008c03780000027800c6
:100d6000870278000400be00aa0007008006780011
:100d7000010678000200200003f023000d02780035
:100d80008c0278000400be007501070000017800a5
:100d9000e00f51007f0034000200200003f8230020
:100da0000800be009c0007006f01070000037800e8
:100db00001077800860178000e01780003007800b2
:100dc00082007800f2ff2700820f5000e08f580069
:100dd00002003400f0ff2700010020004f077800d8
:100de0004f06be004f05be004f04be00af00b1006d
:100df000000006000d0078008c007800e30007007a
:100e000059010700f0b79f00010778008e007800b5
:100e1000760107000004be000d0178008c01780007
:100e20000800be007c01070000017800e00f5100bf
:100e30000a0032000200200003f823000800be0070
:100e40007400070048010700f0b79f000107780011
:100e50008e007800650107000004be00020020003b
:100e600003f023000800be00c0010700e0b79f00a8
:100e7000d1b79f00600107000005be000801be0059
:100e80000c03be0007027800860278000400be0052
:100e9000600007008006780001067800020020004c
:100ea00003f023000d0278008c0278000400be00dd
:100eb0002b01070000017800e00f510018003400fa
:100ec0000200200003f823000800be0052000700c3
:100ed00025010700f0b79f0001077800ffb19700d8
:100ee0000e017800030078008200780002002800dc
:100ef000f3ff2f00820f5000838f5800b7ff3d0093
:100f00000200be004f0778004f06be004f05be002e
:100f10004f04be00af00b10000000600b5ff37006f
:100f20000200200003f023000c00be000102780044
:100f3000800278000400be00070107000006780068
:100f4000e00f5600e5ff3a000a01be00efb297003d
:100f50005fb2970005007800840078002d0007003c
:100f60000001be002c000700ff0007008c0f50009e
:100f7000daff32000200200003f823000800be0060
:100f800025000700f8000700f0b79f000107780070
:100f9000d2ff37000200200003f023000c00be0047
:100fa00001027800800278000400be00ea00070019
:100fb000000678000fbb9700e00f56007dff3a0057
:100fc0000a01be00ffb297006fb2970005007800db
:100fd000840078000f0007000001be000e0007002b
:100fe000e10007000fbb97008c0f500071ff32002b
:100ff0000200200003f823000800be0006000700de
:10100000d9000700000378000107780069ff370066
:101010000000050003f0a200889fbe008a9fbe006a
:101020008c1f780039010700400133006450e10053
:101030004f0032006420e1005200320003826c0055
:1010400007003b000905d0000306d000820f5400c2
:101050000c065d00020039000200320089017800b0
:10106000030678008582550004003d000003fd0062
:101070008103fd008502ea008b854200840f720027
:1010800002003b0060001000e08018006011b80012
:101090000005eb007a28e1000a003900060078001c
:1010a000c75ddd00f707b200878075002d003700af
:1010b000828171000a017800610560008180d100a1
:1010c0000080d3008502e900f9ff3b0006044000e0
:1010d0008784480002003b0060041400e0841c0088
:1010e0000988a300070032008a81710082817100a3
:1010f000610164008904d1000884d3008b05e800f5
:10110000170037000978a30013003a000b00e00035
:10111000130034008b05e9000804440089844c0066
:101120000a4474000978a3000d003a000b00e000a7
:10113000070034008b05e9000804440089844c0052
:1011400001003a000b0020000978a300f7ff3200ed
:101150000001eb0002003700828171000a01780073
:10116000af0007000cf0a70001f0a000f800370066
:101170006420e10002003a00838f6c00f800330025
:101180000801be000200be00f10037000001eb00c4
:101190004a000700040032000200200003f8230088
:1011a00001f0a6009cff0700000006000081eb0094
:1011b00022013700889fbe008a9fbe008c1f7800e6
:1011c000d2000700d900330003866c006450e100b0
:1011d0002e0032006420e100330032006150e10053
:1011e0002f0032006120e10031003200858555007a
:1011f000eb07b000090020000804200005003700bc
:101200000804440089844c000a00310006034300ae
:1012100087834b000001530081815b00f8ff33009e
:101220000203be000800a0000804440089844c00aa
:10123000f6ff3900c639dd0083017300010032007a
:10124000130020008904d1000884d3000998a3006a
:10125000050032000800a7000300a0008904d100a7
:101260000884d3008b05e8008904d1000884d300ea
:101270000001eb000281d2006900070001f0a1002b
:101280000cf0a70001f0a000b10037006420e100dd
:10129000b30032000801be000200be00f7ff3700b5
:1012a0006120e100ae0032006000b800f3ff3700bb
:1012b0000000200001f82700f0ff3700889fbe00e3
:1012c0008a9fbe000003be007b00070085057800f2
:1012d00082815200020020006220e10004003a00f6
:1012e000f307b100040035007718e1000400350071
:1012f0000600be00140037006000b8000f00370081
:10130000f50f2000faff2f008502d1000a85d300d7
:101310008301e900fcff3b0081846200000465005a
:10132000890f7400f2ff32008582ea000a85ea0024
:1013300081846200000465003900070007f0a700ff
:1013400001f0a0000081eb000200e0004f05be00ac
:101350004f04be00000006001400200022013700e8
:10136000f4ff2f00200137000001be0052000700eb
:101370000470a70003f0a1006509b1001600320057
:101380000d0035006828e10006003500f0ff2f0051
:10139000f1ff27000300e00013003b0001002800dc
:1013a0000000050000004000818048008502e9003f
:1013b000fcff3a0008003700f88f420002003c00b2
:1013c0008000eb00000005008100d1000080d30008
:1013d0008502e800fcff3a000300e00002003b0049
:1013e00060001000e0801800000006004f89de0059
:1013f00082017800170137000001eb00afff070002
:10140000040032000200200003f8230001f0a700ce
:1014100000ff07000000060004002000f200370073
:1014200081002000618055000b003d000b00200072
:1014300061fe2f000100e1001d0034008281710077
:10144000610164008904d1000884d3000000e80031
:10145000faff3a0071002000610064000300700090
:10146000020060000900320061044400e0844c0086
:101470000988a500050032008b05e8006808e10036
:1014800002003a008904d1000884d300f20f200042
:101490000258e10005003d00c75ddd00f907b2001c
:1014a0008980750008007800000006000bf827000e
:1014b0008b00780000000500c70ade00f107b200cb
:1014c000f50fb20008003200e1cf42000200320006
:1014d0000170a00024000500810f7000010032009f
:1014e0000408050044000500810f700002003a0066
:1014f000140005008502e9000000400081c048009a
:10150000fcff3b000170a000240005000004be00a9
:10151000e9ff07000003be000405be000200be0094
:10152000e5ff0700844f7500000006000200be00c2
:101530006450e100050036006420e100020036003e
:101540000968a30001003a000800be000160a00085
:101550004f0678004f05be004f04be000000060095
:10156000f0ff2f00f1ff2700f9ff3700889fbe0032
:101570008a9fbe008c1f7800e4ff0700ebff33005a
:1015800003866c006450e100240032006420e10016
:10159000270032006150e100220032006120e100aa
:1015a000210032008b854200eb07b1000134b80006
:1015b000003ab8000804420089844a00013ab800a1
:1015c0000030b8008880400009014a000400330060
:1015d0000000400081804800020149008b05e900bd
:1015e000c909dd00830170000100320013002000f2
:1015f000c814de004814dd004709de001200b20006
:10160000c808de000884700085ff070001f0a10013
:101610000cf0a70001f0a000cdff37006120e10031
:10162000cfff32000801be000200be00f7ff370006
:101630006150e100fcff3a00c9ff3700889fbe00ff
:101640008a9fbe008c9fbe00820578000004be0009
:1016500099ff07000800be006420e1000700390080
:1016600002003a00f1ff2700f0ff2f000160a00008
:101670001202200082808800550037006120e100be
:1016800003003a000b00a70001f8230050003700c8
:1016900001f0a10002002100936424002eff070046
:1016a0000800be0004003500b2fd2000930c2400a9
:1016b000a70007000004be000005eb000b00a60019
:1016c0004f0dde0001f0a1000004be0032982f0093
:1016d00023ea2300a5ff07000001eb0003f023002d
:1016e0000b00a70003f823004bfe07001eff0700b6
:1016f0000000a7000a00a2003cff07000b00e0006a
:10170000030032000200200003f0230041fe070026
:1017100001f0a2000006be00020020009304240095
:1017200092ff07000801be003bfe0700809fbe003d
:101730000c00be0022a22a00d3a723008bff0700c3
:101740004f01be0034fe07000004be0001f0a100fe
:101750000200200003982300fffe07000800be00df
:10176000190035000001be0080ff07000006be0022
:10177000b2c52900e36223007cff070022222b0070
:10178000f3942b0024fe07000c01be0077ff070036
:10179000e273280083c023001ffe07000c01be0077
:1017a00072ff070042aa2a00a3e22b001afe0700dc
:1017b0000c01be006dff07000801be006bff0700b3
:1017c0000801be0014fe07000a00a70001f0a200f5
:1017d0004f06be004f05be004f04be0000000600cd
:1017e0000001eb0095ff3700889fbe008a9fbe0076
:1017f000841f780045ff07004f0078001100330078
:10180000f0ff2f00838f6c0006003b00040565008d
:101810000a00a7000800370009f0a6001000200009
:1018200008003700820f5400838f5c0003003900ea
:101830001000200001003e000000200009f0a70079
:101840000000ea004f05be004f04be000000e000ab
:1018500000000600881f7800030478000300e00001
:1018600007003d0060001000e080180060011900d2
:10187000e081190002003b0001f02d000300370059
:101880000400070008f0a70001f0a0004f04780052
:1018900000000600889fbe008a9fbe000082700084
:1018a0000402710004827100260032000004be00b0
:1018b0000200be006011b8006b09200095022000f4
:1018c0000182cf000a0039000541b1000082cf003b
:1018d000070039000541b1000982cf00040039003a
:1018e0000541b1000882cf00010039000541b10077
:1018f00005425200120032000a003b008281710052
:10190000610164008100d1000080d3008984d3008c
:101910000884d3008b05e8000442e800f7ff3a0092
:10192000070037000804440089844c000000480088
:10193000818048008b05e9000442e900f9ff3a0084
:10194000b7fe07004f05be004f04be0000000600b2
:101950000400200000003700889fbe008a9fbe0060
:101960008c1f78004f26dd00e8fe0700effe3300f5
:101970006120e100430032006250e10041003e007e
:101980003e0039006420e1003c0032000582550031
:101990000f003b000402e80038003a00800f5300bb
:1019a000818f5b00350034000800be0003f0a10009
:1019b00001f0a60003f0a0000cf0a70096fd0700c0
:1019c000e3fe37000603430087834b000c464600c6
:1019d0000005530081855b00020033000a03be004e
:1019e0000c00a0000402e900f6ff3b00850578002a
:1019f0000602430087824b0004003a006000b800f2
:101a000009f0a70001f0a000d1fe3700000252004b
:101a100081825a000704e0000400330006034300fb
:101a200087834b008b05e900faff37000905780032
:101a30000604be000203be006011b80078fe070075
:101a4000e00f5200e08f5a000700350002003c0012
:101a50000c08a300040032000601be0003f0a00041
:101a60000cf0a7006cfd07000a85680001f0a100da
:101a70000af0a70001f0a000b5fe37000800be0084
:101a8000b3fe3700100220000cf0a6008080880012
:041a9000b3fe37006a
:020000040000fa
:101a94000000fa00c3e8a8000000000000000000f5
:101aa4000080fa00000006000000fa0040a7a90028
:101ab4000080fa00000006000200fa00000f78001f
:101ac40021028000200f2000008060001e007000b2
:101ad400200288000080fa00000006000000fa00de
:101ae4000c0007003e0207006c02070057020700c3
:101af4008e010700ba00070013020700e4ff070085
:101b0400e9ff070000022000ebff07000080fa0055
:101b1400000006000000fa00a0082000303a880007
:101b2400213a800000fe2f00008060000010a00019
:101b3400203a8800213a8000f0f32f0000806000f2
:101b4400203a88003200200080072000a1092000ec
:101b540033742000804978008149780082497800f4
:101b6400120020006004200071052000237420006e
:101b7400804978008149780082497800000000009b
:101b8400113a8000000027008080600000002300dc
:101b9400808f5000faff3a0000000000113a8000e4
:101ba40000022000008060000000e000fbff320023
:101bb4000080fa00000006000000fa00003a8000ed
:101bc4000080fa00000006000200fa00faff070095
:101bd400000f78001e007800240007000004e000d5
:101be4000200320000002800710007001e00780087
:101bf4002a0007000004e000020032000000240074
:101c04006b0007001e007800320007000004e000ab
:101c14000200320000202000650007001e0078004a
:101c24003a0007000004e00002003200000820002f
:101c34005f0007001e007800420007000004e00077
:101c44000200320000042000590007001e00780042
:101c54004a0007000004e0000200320000012000f6
:101c6400530007000080fa00000006000400fa0098
:101c7400100798000040eb00004f78001e00900011
:101c84000000e00002003d0010c0b300004f7800e7
:101c94001e4078000080fa00000006000400fa00ec
:101ca400100798000040eb00004f78009e00900061
:101cb40000002400008060000000e0000200320008
:101cc40010c0b300004f78001e4078000080fa0076
:101cd400000006000400fa00100798000040eb0022
:101ce400004f78009e0090000020200000806000db
:101cf4000000e0000200320010c0b300004f780082
:101d04001e4078000080fa00000006000400fa007b
:101d1400100798000040eb00004f78009e009000f0
:101d240000082000008060000000e0000200320093
:101d340010c0b300004f78001e4078000080fa0005
:101d4400000006000400fa00100798000040eb00b1
:101d5400004f78009e009000000420000080600086
:101d64000000e0000200320010c0b300004f780011
:101d74001e4078000080fa00000006000400fa000b
:101d8400100798000040eb00004f78001e00900000
:101d9400700060000000e0000200320010c0b300d8
:101da400004f78001e4078000080fa000000060012
:101db4000200fa00000f78009e80ea00003a8000da
:101dc40000806000003a88000080fa0000000600ed
:101dd4000000fa004027ef000080fa00000006002f
:101de4000000fa000021ef0000ad26001008880072
:101df40000032800200888000068a9002068a800c3
:101e0400402321008040eb00014878000080fa0064
:101e1400000006003600f800809fbe00829fbe00ce
:101e2400849fbe00869fbe000000fa002a000700bf
:101e340050232100104078008040e8005023210006
:101e4400014878004023210011c0b3000148780004
:101e54000068a9000080fa004f03be004f02be00d4
:101e64004f01be004f00be003600f90000400600de
:101e74000200fa00000f78009e0078001108880024
:101e8400402321008040eb00014878000080fa00e4
:101e9400000006000000fa00100880000080fa002c
:101ea400000006000200fa00000f78009e0078008f
:101eb40001088800402321008040eb00014878009d
:101ec4000080fa00000006000000fa00000880000c
:101ed4000080fa00000006000000fa00a0708000f4
:101ee40000407800614060000004a200614060008e
:101ef4000080fb0061006000a17080000100a1006f
:101f040001007000a07088000080fa000000060044
:101f14000000fa00402321008040eb0001487800d3
:101f24002068a80005e1a8000080fa00000006006f
:101f34000000fa0005e1a9002068a9000080fa0069
:101f4400000006000200fa0040232100104f780030
:101f54001e4078000004e00003003200402321000a
:101f64008040eb00014878001e4078000080fa00b1
:101f7400000006000000fa00502321001040780001
:101f84000080fb000080fa00000006000000fa0058
:101f9400502321008040eb00014878000080fa00c3
:101fa400000006000400fa00000f780011079800f2
:101fb400cafe070021e3a8000001eb000140210054
:101fc4009000200074fa07000100370000000000b0
:101fd4000ed0bf000004e000fcff32000e70ef00e2
:101fe4000cd0bf000004e000200032000630ef00f7
:101ff4001400370032808000308080008000400070
:102004000080240000804000100078008080d1000f
:102014004211dd00000024000000410001087800a6
:1020240030808000c200dd002000240000804000d9
:102034008000eb0001087800308080000000e80098
:102044003080880031808000f01f2000808f500095
:10205400e8ff340003f02f000240210001002400b7
:1020640090002000c6f907001f0037000630ef007b
:1020740014003700328080003080800080004000ef
:1020840000c0240000804000100078008080d1004f
:102094004211dd0000002400000041000108780026
:1020a40030808000c200dd00200024000080400059
:1020b4008000eb0001087800308080000000e80018
:1020c4003080880031808000f01f2000808f500015
:1020d400e8ff340003f02f00024021000100240037
:1020e40090002000a6f907000100240090002000c1
:1020f4006bf90700220121000100240000102000d8
:1021040085f90700020021002101210000102000b0
:10211400dcfa070000808000e700b900cf80de0011
:102124001080880021808800a9ff37000000fa0091
:102134000a21ef00c0452400700888000000280030
:1021440090088800202321008040eb00014878009b
:102154000080fa00000006000000fa000140800040
:1021640000102000008060000000e0000900320040
:1021740030232100104078008040e8003023210003
:10218400014878002023210011c0b30001487800e1
:102194000108a9000080fa00000006000200fa000d
:1021a400000f78009e007800710888002023210029
:1021b4008040eb00014878000080fa00000006002f
:1021c4000000fa00700880000080fa000000060099
:1021d4000200fa00000f78009e0078005108880081
:1021e400202321008040eb00014878000080fa00a1
:1021f400000006000000fa00500880000080fa0089
:10220400000006000000fa00202321008040eb00bb
:102214000148780013e1a8000080fa0000000600dd
:102224000000fa0013e1a9000080fa000000060093
:102234000200fa0020232100104f78001e4078008d
:102244000004e00003003200202321008040eb0062
:10225400014878001e4078000080fa000000060063
:102264000000fa0030232100104078000080fb00b9
:102274000080fa00000006000000fa00302321006c
:102284008040eb00014878000080fa00000006005e
:020000040000fa
:10229400121200002000000080000000081000005e
:1022a4000200000082000000ffff00000a1000008e
:1022b4000200000080000000004800000008000048
:1022c400800000000c1000000200000082000000ea
:1022d400010000000e100000020000008000000059
:1022e40032120000020000008000000034120000de
:1022f4000200000080000000121000000002000034
:102304008000000000400000000800008000000081
:10231400001000000800000080000000001400000d
:1023240000040000800000003612000002000000db
:1023340082000000000400001010000002000000f1
:08234400800000000000000011
:020000040000fa
:10234c000000fa0001588000f0fc2f0000806000b3
:10235c000058880001588000c0ff2f0000806000ea
:10236c000010a00000588800d000200010588800f1
:10237c00f01f200070588800003020006058880042
:10238c000080240020588800062bef0000c0240099
:10239c00405888000a2bef000088a9002088a8006c
:1023ac0001eba8000080fa0000000600801f7800f6
:1023bc000000fa0010c0b3000ef0b7000cd0bf0044
:1023cc000004a2000cf0b7000088a9000080fa00fd
:1023dc004f007800004006000000fa00042eef00c9
:1023ec00142eef00242eef00f079200000708800ee
:1023fc00e0ff2f0080708800f03f20000071880003
:10240c000c2eef001c2eef002c2eef000a2eef00ee
:10241c001a2eef002a2eef00062eef00162eef00dc
:10242c00262eef003001200070708800a0102000d4
:10243c00f070880070002000707188000080fa0035
:10244c00000006000000fa00404429000019880032
:10245c002223ef00d0002000201988002823ef0051
:10246c002e23ef003023ef002623ef0010198000fd
:10247c004200de007f4060000af0b7000080fa00e6
:10248c00000006000000fa0001a8a9000080fa0074
:10249c00000006000000fa001142800080ff2f00af
:1024ac00008060000000a000104288000142800003
:1024bc00f0ff28000080600000c0a00000428800ef
:1024cc000080fa0000000600000f78009e007800e3
:1024dc0041808800ffff37000000fa002021210016
:1024ec0080077800a0222100000188000080fa00fb
:0c24fc0000000600b091880000000600ff
:020000040000fa
:020000040002f8
:04afe000eeff000080
:020000040000fa
:020000040002f8
:04afe400ffff00006b
:020000040000fa
:020000040002f8
:04afe8007fff0000e7
:020000040000fa
:020000040002f8
:04afec00beff0000a4
:020000040000fa
:020000040002f8
:04aff000fbff000063
:020000040000fa
:020000040002f8
:04aff400ffff00005b
:00000001FF
