:020000040000fa
:080000000002040000000000f2
:020000040000fa
:04000800fa020000f8
:020000040000fa
:04000c000c030000e1
:020000040000fa
:0400100024030000c5
:020000040000fa
:0400140002030000e3
:020000040000fa
:0400180014030000cd
:020000040000fa
:04001c001c030000c1
:020000040000fa
:040020002c030000ad
:020000040000fa
:040024004e03000087
:020000040000fa
:040028004e03000083
:020000040000fa
:04002c004e0300007f
:020000040000fa
:040030004e0300007b
:020000040000fa
:04003400181a000096
:020000040000fa
:040038008e1c00001a
:020000040000fa
:04003c004e0300006f
:020000040000fa
:040040004e0300006b
:020000040000fa
:040044004e03000067
:020000040000fa
:040048004e03000063
:020000040000fa
:04004c004e0300005f
:020000040000fa
:040050004e0300005b
:020000040000fa
:040054004e03000057
:020000040000fa
:040058004e03000053
:020000040000fa
:04005c004e0300004f
:020000040000fa
:040060004e0300004b
:020000040000fa
:040064004e03000047
:020000040000fa
:040068004e03000043
:020000040000fa
:04006c004e0300003f
:020000040000fa
:040070004e0300003b
:020000040000fa
:040074004e03000037
:020000040000fa
:040078004e03000033
:020000040000fa
:04007c004e0300002f
:020000040000fa
:040080004e0300002b
:020000040000fa
:040084004e03000027
:020000040000fa
:040088004e03000023
:020000040000fa
:04008c004e0300001f
:020000040000fa
:040090004e0300001b
:020000040000fa
:040094004e03000017
:020000040000fa
:040098004e03000013
:020000040000fa
:04009c004e0300000f
:020000040000fa
:0400a0004e0300000b
:020000040000fa
:0400a4004e03000007
:020000040000fa
:0400a8004e03000003
:020000040000fa
:0400ac004e030000ff
:020000040000fa
:0400b0004e030000fb
:020000040000fa
:0400b4004e030000f7
:020000040000fa
:0400b8004e030000f3
:020000040000fa
:0400bc004e030000ef
:020000040000fa
:0400c0004e030000eb
:020000040000fa
:0400c4004e030000e7
:020000040000fa
:0400c8004e030000e3
:020000040000fa
:0400cc004e030000df
:020000040000fa
:0400d0004e030000db
:020000040000fa
:0400d4004e030000d7
:020000040000fa
:0400d8004e030000d3
:020000040000fa
:0400dc004e030000cf
:020000040000fa
:0400e0004e030000cb
:020000040000fa
:0400e4004e030000c7
:020000040000fa
:0400e8004e030000c3
:020000040000fa
:0400ec004e030000bf
:020000040000fa
:0400f0004e030000bb
:020000040000fa
:0400f4004e030000b7
:020000040000fa
:0400f8004e030000b3
:020000040000fa
:0400fc004e030000af
:020000040000fa
:040100004e030000aa
:020000040000fa
:040104004e030000a6
:020000040000fa
:040108004e030000a2
:020000040000fa
:04010c004e0300009e
:020000040000fa
:040110004e0300009a
:020000040000fa
:040114004e03000096
:020000040000fa
:040118004e03000092
:020000040000fa
:04011c004e0300008e
:020000040000fa
:040120004e0300008a
:020000040000fa
:040124004e03000086
:020000040000fa
:040128004e03000082
:020000040000fa
:04012c004e0300007e
:020000040000fa
:040130004e0300007a
:020000040000fa
:040134004e03000076
:020000040000fa
:040138004e03000072
:020000040000fa
:04013c004e0300006e
:020000040000fa
:040140004e0300006a
:020000040000fa
:040144004e03000066
:020000040000fa
:040148004e03000062
:020000040000fa
:04014c004e0300005e
:020000040000fa
:040150004e0300005a
:020000040000fa
:040154004e03000056
:020000040000fa
:040158004e03000052
:020000040000fa
:04015c004e0300004e
:020000040000fa
:040160004e0300004a
:020000040000fa
:040164004e03000046
:020000040000fa
:040168004e03000042
:020000040000fa
:04016c004e0300003e
:020000040000fa
:040170004e0300003a
:020000040000fa
:040174004e03000036
:020000040000fa
:040178004e03000032
:020000040000fa
:04017c004e0300002e
:020000040000fa
:040180004e0300002a
:020000040000fa
:040184004e03000026
:020000040000fa
:040188004e03000022
:020000040000fa
:04018c004e0300001e
:020000040000fa
:040190004e0300001a
:020000040000fa
:040194004e03000016
:020000040000fa
:040198004e03000012
:020000040000fa
:04019c004e0300000e
:020000040000fa
:0401a0004e0300000a
:020000040000fa
:0401a4004e03000006
:020000040000fa
:0401a8004e03000002
:020000040000fa
:0401ac004e030000fe
:020000040000fa
:0401b0004e030000fa
:020000040000fa
:0401b4004e030000f6
:020000040000fa
:0401b8004e030000f2
:020000040000fa
:0401bc004e030000ee
:020000040000fa
:0401c0004e030000ea
:020000040000fa
:0401c4004e030000e6
:020000040000fa
:0401c8004e030000e2
:020000040000fa
:0401cc004e030000de
:020000040000fa
:0401d0004e030000da
:020000040000fa
:0401d4004e030000d6
:020000040000fa
:0401d8004e030000d2
:020000040000fa
:0401dc004e030000ce
:020000040000fa
:0401e0004e030000ca
:020000040000fa
:0401e4004e030000c6
:020000040000fa
:0401e8004e030000c2
:020000040000fa
:0401ec004e030000be
:020000040000fa
:0401f0004e030000ba
:020000040000fa
:0401f4004e030000b6
:020000040000fa
:0401f8004e030000b2
:020000040000fa
:0401fc004e030000ae
:020000040000fa
:040200004e030000a9
:020000040000fa
:040204004e030000a5
:020000040000fa
:040208004e030000a1
:020000040000fa
:04020c004e0300009d
:020000040000fa
:040210004e03000099
:020000040000fa
:040214004e03000095
:020000040000fa
:040218004e03000091
:020000040000fa
:04021c004e0300008d
:020000040000fa
:040220004e03000089
:020000040000fa
:040224004e03000085
:020000040000fa
:040228004e03000081
:020000040000fa
:04022c004e0300007d
:020000040000fa
:040230004e03000079
:020000040000fa
:040234004e03000075
:020000040000fa
:040238004e03000071
:020000040000fa
:04023c004e0300006d
:020000040000fa
:040240004e03000069
:020000040000fa
:040244004e03000065
:020000040000fa
:040248004e03000061
:020000040000fa
:04024c004e0300005d
:020000040000fa
:040250004e03000059
:020000040000fa
:040254004e03000055
:020000040000fa
:040258004e03000051
:020000040000fa
:04025c004e0300004d
:020000040000fa
:040260004e03000049
:020000040000fa
:040264004e03000045
:020000040000fa
:040268004e03000041
:020000040000fa
:04026c004e0300003d
:020000040000fa
:040270004e03000039
:020000040000fa
:040274004e03000035
:020000040000fa
:040278004e03000031
:020000040000fa
:04027c004e0300002d
:020000040000fa
:040280004e03000029
:020000040000fa
:100400000f0024000eff24000e01880000000000f1
:10041000000020000000e000020032000001200087
:1004200020028800140007004e0307000000e000cf
:1004300003003a0000ae2100010020000200370056
:100440000000200001002000810f70000100320038
:100450000f000700000020000000e0000200320052
:100460000000020000000000b218020000000000be
:100470000040da000000fe00c00220000000e000a2
:1004800002003200002020009001880000000600d9
:10049000a1028800800478000000eb001f003700f4
:1004a000e284440054a0b4009905ba00e2844400f8
:1004b00054a0b4009906ba00e284440054a0b400e9
:1004c0000006eb00476fde00fd07b200ae018800ba
:1004d000636ce10003003a000ad801000000eb0061
:1004e0000e003700606ce10008003a00004deb00a0
:1004f0000a05e800020039003420ec000af0a000f0
:100500008b05e900f9ff3e00040037006168e10057
:10051000010032000086eb000b00070019c7ba008b
:100520001905ba000e04e00003003a000a00e000da
:10053000dbff3a0000000600fe07b200ae028800b2
:100540008a047800f5ff37000cd0a300e20f4d00bd
:100550001c00390089027800354dba000a05e80010
:10056000020039003420ec000af0a0008b05e900fd
:100570000f003200254dba000a05e80002003900dc
:100580003420ec000af0a0008b05e90008003200de
:100590000c00e0000600320015cdba000a05e800a4
:1005a000020039003420ec000af0a0008b05e900bd
:1005b0008984e80054a0b4000b00e000e2ff3a0098
:1005c000000006009902ba00055d78008b05e9007d
:1005d000f7ff3200c82ade00055d78008b05e900d0
:1005e000f3ff32000c00e000f1ff320019ddba0029
:1005f000eeff37003600f800c028a9000000eb002d
:100600001b0d07003600f8001d0d0700c048a900ab
:1006100010002000160d07003600f800c068a90081
:1006200020002000120d07003600f800c088a90045
:10063000300020000e0d07003600f800c0a8a90009
:10064000400020000a0d07003600f800c608a90087
:1006500070002000060d07003600f80021468000db
:1006600000022000008060000000e0000300320073
:10067000c4a8a90090002000fd0c070020468000bf
:10068000700060000000e00003003200c488a90090
:10069000a0002000f60c0700ffff37000040da0042
:1006a0000000fe003200f80001c0fe004600f80025
:1006b0005000f800022020003202880002002800ca
:1006c000130020008019dd00028171008202880081
:1006d000010078000101780026002000470020007a
:1006e0008301e90003800800070000000110e10019
:1006f000040034001102be0092087800e2307b0052
:100700000489be0087804000121978005000f9006b
:100710004600f9003200f900000006003200f8003f
:1007200001c0fe00821f7800849fbe008a1f7800ef
:100730004400f800040f200024028800010578001e
:100740000601c3000080e9000080080003000000eb
:10075000000000000505f0000401f1003200cd00aa
:100760000505f0001001f1003200cd004400f90051
:100770004f0578004f02be004f0078003200f900ac
:1007800000000600ba06020000000000000006009b
:10079000889fbe008a9fbe008c9fbe008e1f78007f
:1007a0004400f800070f2000270288003200f800fc
:1007b000811f78000f07780007f02f000338e10051
:1007c0004800320003d0fe00040180006d868000e6
:1007d0000500230019002000804cdd008904d000b2
:1007e0000f85440008003100050555000600310062
:1007f0008d844400040031008f84440002003100e5
:10080000848654003000390019002000804cdd003f
:100810001300200002047800800678008904d100cb
:10082000424edd00010578000302e9000480080063
:1008300020000000000000008a0546004218dd008c
:100840000902e90004800800180000000000000010
:100850004620c3003200f80001c0fe000000000086
:100860003b0252003200f900df35c10008044000ad
:100870001381c2003200f80001c0fe000000000039
:10088000ab825200264dc5003e85c400bb00cd00a2
:10089000bb80cd003a00ca002a80ca003200f900ad
:1008a0000700c9000580c900ba00cd00ba80cd009c
:1008b0000a054600020478008301d0008d06e90095
:1008c000d6ff3c002f00370019002000804cdd00cf
:1008d0000f0478008906e9000d800900b21f780036
:1008e0000801780001c0fe0019002000804cdd00e6
:1008f0001300200002047800800678008904d100eb
:10090000424edd00010578000302e9000480080082
:1009100018000000000000008a0546004218dd00b3
:100920000902e90004800800100000000000000037
:100930004620c3003b025200df35c10008044000de
:100940001381c200ab825200264dc5003e85c40013
:10095000bb00cd00bb80cd003a00ca002a80ca008f
:100960000700c9000580c900ba00cd00ba80cd00db
:100970000a054600020478008301d0008d06e900d4
:10098000deff3c008e0778004f0078003200f9004f
:100990004400f9004f0778004f06be004f05be0027
:1009a0004f04be0000000600889fbe008a9fbe0064
:1009b0008c9fbe0000057800810678000a00e900df
:1009c000cf80de00f90207000001be00b0fd20006c
:1009d000910c24004c020700800578000106780085
:1009e000e00f5500130034008d0478000004eb0084
:1009f0006140b900ed0207000b0178008c0178001e
:100a0000a70307003e0207000200200003f02b00ae
:100a1000a30307000200200003f02300d301070016
:100a2000f5000700801c78000804e800880f5500d6
:100a3000efff3c000d0078004f06be004f05be00e2
:100a40004f04be0000000600f2874700889fbe00ea
:100a50008a9fbe008c9fbe008e1f780091b79f00ba
:100a6000020578001c0020000066dd002200200046
:100a7000110009000206d8000006780000002000de
:100a800001f82300dc0007009fb097008008780081
:100a90000001eb00920098006160b900c3020700fa
:100aa0000001be00b0fd20009104240016020700e2
:100ab000800478000104780009007800880078003c
:100ac0000f020700c0b79f00b1b79f00e00f5500ad
:100ad000910032000801be00030078008200780017
:100ae0000c0407000005be000c83e90083003300fe
:100af0001fb0970064004000f0b79f008a0678009e
:100b00000b077800cfb09700e1b79f003fb0970088
:100b1000d0b79f000001be0003007800820078007b
:100b200086bf9f00b4000700ffb0970080087800e0
:100b30000d0078008e007800af000700ffb097002e
:100b400090009800e4804000f1b79f00cfb197007b
:100b50003fb1970003027800820278000401be00d2
:100b60006fb29700dfb297000400be004c0307008d
:100b70000004be000a01be000d0278008e0278005b
:100b80000400be00460307000001be000800be00ce
:100b900075010700a0b79f00010678004fb19700cc
:100ba000bfb197000202be000401be000d02780032
:100bb0008e0278000400be0039030700800478002c
:100bc000010478000a01be006fb29700dfb29700ff
:100bd0000400be00320307000801be0003027800d3
:100be000820278000401be006001070080067800e0
:100bf000010778000fbb97000603e9003f003300b0
:100c0000afb09700e1b79f00dcb79f00810178008b
:100c10000c017800030078008200780086bf9f00f6
:100c200075000700ffb09700800878000d0078007d
:100c30008e00780070000700ffb0970090009800c9
:100c4000e4804000f1b79f00cfb197003fb197001b
:100c500003027800820278000401be006fb29700a0
:100c6000dfb297000400be000d0307000004be00c1
:100c70000a01be000d0278008e0278000400be005a
:100c8000070307000001be000800be003601070090
:100c9000a0b79f00010678004fb19700bfb1970041
:100ca0000202be000401be000d0278008e02780030
:100cb0000400be00fa0207008004780001047800f6
:100cc0000a01be006fb29700dfb297000400be00b9
:100cd000f30207000801be000302780082027800d8
:100ce0000401be002101070080067800010778009a
:100cf0000fbb97000603e900c1ff3b001fb0970040
:100d00004f0778004f06be004f05be004f04be00df
:100d10002f01b100000006000801be0003007800aa
:100d2000820078007b0307000005be000bf0a200e4
:100d30006dff37003200f80001c0fe00b1027800fc
:100d40000009eb000002e90007003400b10178005f
:100d50000328e10002003c008302780004095000ef
:100d60000402e900f9ff3c00050078003200f900b8
:100d7000000006003200f80001c0fe004400f80048
:100d8000040f200024028800811f78000000e90081
:100d9000008008000300000032027800b3027800ef
:100da0001301c0003100cd004f0078004400f9006d
:100db0003200f900000006003200f80001c0fe0019
:100dc000020378000002d0008102e900820078006e
:100dd00003017800a00802000000000004004000a9
:100de0000100200005800900011878000600780045
:100df0003200f90000000600ea874700889fbe0025
:100e00008a9fbe008c9fbe008e1f78000004be002b
:100e10000200200003702400a10207008006780071
:100e2000010678006011b8000800be00a1010700ab
:100e3000e00f50003b0035000d0078008c0078007a
:100e4000df0107009d01070000037800010778001b
:100e5000060078008e00780086bf9f00d30107004f
:100e60000004be000200200003f023008c020700f3
:100e7000f0b79f00e1b79f00d10107000005be0059
:100e80000801be000d0078008c0378000002780095
:100e9000870278000400be00b300070080067800d7
:100ea000010678000200200003f023000d02780004
:100eb0008c0278000400be007e010700000178006b
:100ec000e00f51007f0034000200200003f82300ef
:100ed0000800be00a50007007801070000037800a5
:100ee00001077800860178000e0178000300780081
:100ef00082007800f2ff2700820f5000e08f580038
:100f000002003400f0ff2700010020004f077800a6
:100f10004f06be004f05be004f04be00af00b1003b
:100f2000000006000d0078008c007800ec0007003f
:100f300062010700f0b79f00010778008e0078007b
:100f40009a0107000004be000d0178008c017800b2
:100f50000800be00a201070000017800e00f510068
:100f60000a0032000200200003f823000800be003f
:100f70007d00070051010700f0b79f0001077800ce
:100f80008e007800890107000004be0002002000e6
:100f900003f023000800be0041020700e0b79f00f5
:100fa000d1b79f00860107000005be000801be0002
:100fb0000c03be0007027800860278000400be0021
:100fc0006900070080067800010678000200200012
:100fd00003f023000d0278008c0278000400be00ac
:100fe0003401070000017800e00f510018003400c0
:100ff0000200200003f823000800be005b00070089
:101000002e010700f0b79f0001077800ffb197009d
:101010000e017800030078008200780002002800aa
:10102000f3ff2f00820f5000838f5800b7ff3d0061
:101030000200be004f0778004f06be004f05be00fd
:101040004f04be00af00b10000000600b5ff37003e
:101050000200200003f023000c00be000102780013
:10106000800278000400be0010010700000678002e
:10107000e00f5600e5ff3a000a01be00efb297000c
:101080005fb2970005007800840078003600070002
:101090000001be0035000700080107008c0f50005a
:1010a000daff32000200200003f823000800be002f
:1010b0002e00070001010700f0b79f00010778002c
:1010c000d2ff37000200200003f023000c00be0016
:1010d00001027800800278000400be00f3000700df
:1010e000000678000fbb9700e00f56007dff3a0026
:1010f0000a01be00ffb297006fb2970005007800aa
:1011000084007800180007000001be0017000700e7
:10111000ea0007000fbb97008c0f500071ff3200f0
:101120000200200003f823000800be000f000700a3
:10113000e2000700000378000107780069ff37002c
:101140003200f80001c0fe00810178000000e900d3
:1011500000800900b2187800030078003200f9001e
:10116000000006000000050003f0a200889fbe00fa
:101170008a9fbe008c1f7800560107005d01330076
:101180006450e1004f0032006420e1005200320060
:1011900003826c0007003b000905d0000306d00065
:1011a000820f54000c065d0002003900020032007c
:1011b00089017800030678008582550004003d000f
:1011c0000003fd008103fd008502ea008b854200db
:1011d000840f720002003b0060001000e0801800e5
:1011e0006011b8000005eb007a28e1000a00390020
:1011f00006007800c75ddd00f707b2008780750044
:101200002d003700828171000a01780061056000bd
:101210008180d1000080d3008502e900f9ff3b0006
:10122000060440008784480002003b00600414006c
:10123000e0841c000988a300070032008a81710045
:1012400082817100610164008904d1000884d300a7
:101250008b05e800170037000978a30013003a0057
:101260000b00e000130034008b05e9000804440083
:1012700089844c000a4474000978a3000d003a00e8
:101280000b00e000070034008b05e900080444006f
:1012900089844c0001003a000b0020000978a3006b
:1012a000f7ff32000001eb0002003700828171007d
:1012b0000a017800cc0007000cf0a70001f0a000a4
:1012c000150137006420e10002003a00838f6c00b2
:1012d000150133000801be000200be000e013700f8
:1012e0000001eb004a000700040032000200200069
:1012f00003f8230001f0a6009cff07000000060091
:101300000081eb009a013700889fbe008a9fbe00d3
:101310008c1f7800ef000700f600330003866c0096
:101320006450e1002e0032006420e10033003200fe
:101330006150e1002f0032006120e10031003200f5
:1013400085855500eb07b000090020000804200047
:10135000050037000804440089844c000a0031006d
:101360000603430087834b000001530081815b002b
:10137000f8ff33000203be000800a0000804440088
:1013800089844c00f6ff3900c639dd008301730003
:1013900001003200130020008904d1000884d3002a
:1013a0000998a300050032000800a7000300a00070
:1013b0008904d1000884d3008b05e8008904d1009a
:1013c0000884d3000001eb000281d20086000700f0
:1013d00001f0a1000cf0a70001f0a000ce00370042
:1013e0006420e100d00032000801be000200be000f
:1013f000f7ff37006120e100cb0032006000b80049
:10140000f3ff37000000200001f82700f0ff37004d
:10141000889fbe008a9fbe000003be0098000700a0
:101420008505780082815200020020006220e100e0
:1014300004003a00f307b100040035007718e1001a
:10144000040035000600be00140037006000b8003c
:101450000f003700f50f2000faff2f008502d100a2
:101460000a85d3008301e900fcff3b008184620010
:1014700000046500890f7400f2ff32008582ea00e3
:101480000a85ea00818462000004650056000700b6
:1014900007f0a70001f0a0000081eb000200e000cf
:1014a0004f05be004f04be000000060014002000df
:1014b000a7013700f4ff2f00a50137000001be008f
:1014c0006f0007000470a70003f0a1006509b100d8
:1014d000160032000d0035006828e10006003500d6
:1014e000f0ff2f00f1ff27000300e00013003b0096
:1014f0000100280000000500000040008180480035
:101500008502e900fcff3a0008003700f88f42002e
:1015100002003c008000eb00000005008100d100cb
:101520000080d3008502e800fcff3a000300e000e1
:1015300002003b0060001000e08018000000060080
:101540000001be004e0007000470a70003f0a100d8
:1015500003f8a30013003a006509b100100032003f
:10156000090035006928e10002003500010028006b
:101570000000050000004000818048008502e9006d
:10158000fcff3a0000000600f88f4200050035001d
:101590008100d1000080d3008502e800fcff3a0002
:1015a000000006008000eb00000005004f89de000f
:1015b00082017800810137006011b8008f01370087
:1015c0000001eb0092ff070004003200020020003f
:1015d00003f8230001f0a700e3fe07000000060067
:1015e000040020005a01370081002000618055006e
:1015f0000b003d000b00200061fe2f000100e10008
:101600001d00340082817100610164008904d100f1
:101610000884d3000000e800faff3a0071002000bf
:1016200061006400030070000200600009003200e5
:1016300061044400e0844c000988a50005003200e4
:101640008b05e8006808e10002003a008904d10037
:101650000884d300f20f20000258e10005003d008d
:10166000c75ddd00f907b2008980750008007800c9
:10167000000006000bf827008b0078000000050032
:10168000c70ade00f107b200f50fb2000800320011
:10169000e1cf4200020032000170a00024000500ea
:1016a000810f7000010032000408050044000500ad
:1016b000810f700002003a00140005008502e90065
:1016c0000000400081c04800fcff3b000170a0000a
:1016d000240005000004be00e9ff07000003be006f
:1016e0000405be000200be00e5ff0700844f750040
:1016f000000006000200be006450e1000500360054
:101700006420e100020036000968a30001003a00ed
:101710000800be000160a0004f0678004f05be0023
:101720004f04be0000000600f0ff2f00f1ff27006d
:10173000f9ff37000300070092bd2500e3ed230009
:1017400057003700889fbe008a9fbe008c9fbe0056
:10175000f2000700850478000005be006420e10067
:1017600049003e006220e10003003200090035001c
:101770000bf8a300440032000bf8a300080032006d
:101780001002200090808800f0ff2f00f1ff27005a
:101790003d00370001f82f00000020003a0037001c
:1017a0003d00070070fe07000006be000a00be00f4
:1017b000324f200053f323003eff070006003400a1
:1017c0000c00be003400070067fe07000006be00e4
:1017d0000a00be00020037008904e9000c00be00c8
:1017e0002d0007002e0007002b0007005ffe0700fa
:1017f0000001be000c00be00c3fe07000005be00d5
:101800000001be00260007000006be00a2f3230070
:10181000430d2c0055fe0700809fbe000c00be004b
:10182000d2e32700d3f02b001d0007004f01be00bc
:10183000b5fe07000006be000a01be001800070042
:101840000a01be0049fe07000006be006148b9005b
:1018500056ff07000005be0032082800e3952b0064
:101860000f0007000c01be0040fe07000006be008e
:101870000a00be000200280013f32300080007003e
:101880000c01be0039fe07004f06be004f05be002a
:101890004f04be000000060003f023000200050014
:1018a000889fbe008a9fbe008c1f780089ff0700ba
:1018b00090ff330003866c006450e1002400320086
:1018c0006420e100270032006150e1002200320074
:1018d0006120e100210032008b854200eb07b1005e
:1018e0000134b800003ab8000804420089844a0074
:1018f000013ab8000030b8008880400009014a0071
:1019000004003300000040008180480002014900cb
:101910008b05e900c909dd00830170000100320078
:1019200013002000c814de004814dd004709de0063
:101930001200b200c808de00088470002aff070009
:1019400001f0a1000cf0a70001f0a00072ff370029
:101950006120e10074ff32000801be000200be00f9
:10196000f7ff37006150e100fcff3a006eff3700df
:10197000889fbe008a9fbe008c9fbe0082057800b3
:101980000004be003eff07000800be006420e10026
:101990000700390002003a00f1ff2700f0ff2f0096
:1019a0000160a000120220009280880055003700dc
:1019b0006120e10003003a000b00a70001f82300ba
:1019c0005000370001f0a1000200210093642400c0
:1019d000b6fe07000800be0004003500b2fd20007e
:1019e000930c2400b40007000004be000005eb00c7
:1019f0000b00a6004f0dde0001f0a1000004be00a8
:101a000032982f0023ea2300a5ff07000001eb0016
:101a100003f023000b00a70003f82300d3fd070009
:101a2000a6fe07000000a7000a00a200dffe0700d4
:101a30000b00e000030032000200200003f023004e
:101a4000c9fd070001f0a2000006be000200200050
:101a50009304240092ff07000801be00c3fd0700a5
:101a6000809fbe000c00be0022a22a00d3a7230044
:101a70008bff07004f01be00bcfd07000004be0045
:101a800001f0a100020020000398230087fe070058
:101a90000800be00190035000001be0080ff0700ed
:101aa0000006be00b2c52900e36223007cff0700e8
:101ab00022222b00f3942b00acfd07000c01be008a
:101ac00077ff0700e273280083c02300a7fd07000b
:101ad0000c01be0072ff070042aa2a00a3e22b00fd
:101ae000a2fd07000c01be006dff07000801be004b
:101af0006bff07000801be009cfd07000a00a7005d
:101b000001f0a2004f06be004f05be004f04be000c
:101b1000000006000001eb0095ff37000003be0047
:101b2000d7fe07006220e100020032000600be007e
:101b300005000500e507b100f107b20004f023003d
:101b40008480700007f0a70001f0a00024000500c9
:101b5000889fbe008a9fbe00841f7800ddfe0700bc
:101b60004f00780011003300f0ff2f00838f6c00ce
:101b700006003b00040565000a00a70008003700c6
:101b800009f0a6001000200008003700820f540062
:101b9000838f5c00030039001000200001003e002c
:101ba0000000200009f0a7000000ea004f05be0079
:101bb0004f04be000000e00000000600881f78000f
:101bc000030478000300e00007003d0060001000ff
:101bd000e080180060011900e081190002003b005c
:101be00001f02d00030037000400070008f0a700f3
:101bf00001f0a0004f04780000000600889fbe009e
:101c00008a9fbe000082700004027100048271008d
:101c1000260032000004be000200be006011b800c1
:101c20006b092000950220000182cf000a003900d4
:101c30000541b1000082cf00070039000541b10025
:101c40000982cf00040039000541b1000882cf00ad
:101c5000010039000541b100054252001200320076
:101c60000a003b0082817100610164008100d100a3
:101c70000080d3008984d3000884d3008b05e8005a
:101c80000442e800f7ff3a00070037000804440068
:101c900089844c0000004800818048008b05e900e1
:101ca0000442e900f9ff3a004ffe07004f05be006d
:101cb0004f04be00000006000400200000003700b2
:101cc000889fbe008a9fbe008c1f78004f26dd00d3
:101cd00080fe070087fe33006120e10043003200f0
:101ce0006250e10041003e003e0039006420e10006
:101cf0003c003200058255000f003b000402e80062
:101d000038003a00800f5300818f5b0035003400ab
:101d10000800be0003f0a10001f0a60003f0a0003f
:101d20000cf0a70011fd07007bfe370006034300ff
:101d300087834b000c4646000005530081855b00fd
:101d4000020033000a03be000c00a0000402e900f8
:101d5000f6ff3b00850578000602430087824b00b2
:101d600004003a006000b80009f0a70001f0a000ec
:101d700069fe37000002520081825a000704e00029
:101d8000040033000603430087834b008b05e90002
:101d9000faff3700090578000604be000203be0002
:101da0006011b80010fe0700e00f5200e08f5a00eb
:101db0000700350002003c000c08a30004003200bc
:101dc0000601be0003f0a0000cf0a700e7fc07002e
:101dd0000a85680001f0a1000af0a70001f0a00048
:101de0004dfe37000800be004bfe370010022000f9
:0c1df0000cf0a600908088004bfe37002d
:020000040000fa
:101dfc0043000000432300000044000000440000a6
:101e0c0023000000450000004600000046230000af
:101e1c0000470000004700002300000041000000c4
:101e2c00412300000042000000000000546f00003d
:101e3c00717500006520000061200000636f0000d8
:081e4c00726400006100000057
:020000040000fa
:101e54001600fa00889fbe00000f9800110f98002a
:101e6400220f980000002000a1ff23002007980003
:101e7400310798000e0890000000e80000004000c0
:101e84009e08900000804000900078000e089000aa
:101e94000000e900000040001e099000000041001d
:101ea40010007800808f5000050034000e08900068
:101eb400000fe80010c0b30020479800040037006a
:101ec4000e089000000fe9000040eb002047980046
:101ed4001e0078008000eb00b6fd07000004be0081
:101ee4000e0890008000eb00b2fd07000001be0068
:101ef4000800be0003fd0700400798005107980042
:101f04004e009000de0090000001be0096fc070029
:101f14000200200003f8230092fc07000004be0026
:101f24000200200003f823004e009000de00900021
:101f34008dfc07000001be000800be00f1fc070094
:101f440060079800710798002e4090000004e0009c
:101f54000c0032000e0890008000eb0095fd070095
:101f64006e019000fe0190007ffc07002e0190009e
:101f7400be01900049fe07002e0990000089be00b2
:101f84000b0037000e0890008000eb0089fd07006d
:101f94006e019000fe01900072fc07002e0190007b
:101fa400be0190003dfe07002e0990000089be008e
:101fb4004f04be000080fa00000006000800fa008a
:101fc4001007980021079800320798000000eb00e2
:101fd400000f7800070037001e0078000000400062
:101fe400ae00900000804000be0090000108780020
:101ff4001e0fe8009e0078001e009000808f5000a5
:10200400f5ff39000080fa00000006002400fa0001
:10201400881f7800700f9800011798001217980015
:10202400a2808000b380800072079800030f98009c
:102034007e0190008e0990007e0890008e10900022
:10204400b0fc0700bafd07000200200003142400be
:1020540012fe0700b2092200a3e92300a9fc07002d
:10206400100f9800210f98001e089000ae089000f1
:1020740032fd0700004f78001e80fb008000eb005b
:102084004cfd07000001be001e089000ae08900041
:1020940034fc0700100f9800210f980018c0b300fb
:1020a40092da2400c3ef23001e089000ae089000cb
:1020b400fffc07000000e00001003d000044eb00cd
:1020c4000804e000010032001e4fe8001e109000da
:1020d4001e4878001e80fb00c200dd004001210084
:1020e400008040001002be001e80fb000000e800db
:1020f400c200dd0040012100008040001000be004d
:102104000001be000400be0017fc0700020020000e
:1021140003f02300e1fd0700300f9800410f980001
:102124001e80fb00c200dd00400121000080400051
:102134001002be001e80fb000000e900c200dd00aa
:1021440040012100008040001000be000001be00dc
:102154000400be0004fc07000200200003f023007a
:10216400cefd0700500f9800610f980018c0b3000f
:102174005e099000ee0990007e0890008e10900099
:10218400cbfc07000000e00001003d000044eb0030
:102194000804e000360032001e80fb00c200dd00af
:1021a40040012100008040001000be0018c0b300b0
:1021b4007e0990008e119000bdfc07000000e00035
:1021c40001003c000044eb000804e0002800320059
:1021d4001e1090008040eb00114098001e80fb0010
:1021e400c200dd0040012100008040001000be005c
:1021f4005e099000ee099000dbfb0700020020005e
:1022040003f02300a5fd070030079800410798005c
:102214003e019000ce0190005e089000ee08900010
:10222400d1fb07000200200003f023009bfd070000
:1022340010079800210798001e80fb00c200dd00f3
:1022440040012100008040001000be003e019000cb
:10225400ce019000c4fb07000200200003f023001d
:102264008efd07005007980061079800270037008b
:102274001e10900011c0b300114098001e80fb0096
:10228400c200dd0040012100008040001000be00bb
:102294003e099000ce099000b3fb07000200200025
:1022a40003f023007dfd07003007980041079800e4
:1022b4001e80fb00c200dd004001210000804000c0
:1022c4001000be003e019000ce019000a6fb070066
:1022d4000200200003f0230070fd0700100798009f
:1022e400210798003e099000ce0990003e0090001e
:1022f400ce0090009cfb07000200200003f02300a6
:1023040066fd070050079800610798001e109000b2
:10231400104090000004e0006b003a0018c0b300c5
:102324005e099000ee0990007e0890008e109000e7
:102334005ffc07000000e00001003d000044eb00ea
:102344000804e0000f00320018c0b3001e01900022
:10235400ae0190007e0890008e10900052fc0700a1
:102364000000e000010034000044eb000804e00039
:10237400040032001e10900031c0b30021409800c8
:10238400bf00370018c0b3001e019000ae019000da
:102394007e0890008e10900045fc07000000e000cd
:1023a40001003c000044eb000804e0000f00320090
:1023b40018c0b3003e019000ce0190007e0890004a
:1023c4008e10900038fc07000000e000010034008b
:1023d4000044eb000804e000040032001e109000ea
:1023e40021c0b30021409800a500370018c0b300f5
:1023f4003e019000ce0190007e0890008e10900067
:102404002bfc07000000e00001003c000044eb004e
:102414000804e0000f00320018c0b3005e01900011
:10242400ee0190007e0890008e1090001efc0700c4
:102434000000e000010034000044eb000804e00068
:10244400040032001e10900011c0b3002140980017
:102454008b00370018c0b3005e019000ee019000bd
:102464007e0890008e10900011fc07000000e00030
:1024740001003c000044eb000804e0007d00320051
:102484001e80fb00c200dd004001210000804000ee
:102494001000be0018c0b3007e0990008e11900099
:1024a40003fc07000000e00001003d000044eb00d5
:1024b4000804e000710032001e1090008040eb0020
:1024c400214098006e0037001e80fb00c200dd0032
:1024d40040012100008040001000be0018c0b3007d
:1024e4007e0990008e119000effb07000000e000d1
:1024f400010034000044eb000804e0000f00320047
:1025040018c0b3001e019000ae0190007e08900038
:102514008e109000e4fb07000000e000010035008d
:102524000044eb000804e000040032001e10900098
:102534008040eb00214098005100370018c0b300e0
:102544001e019000ae0190007e0890008e10900055
:10255400d7fb07000000e00001003d000044eb0051
:102564000804e0000f00320018c0b3003e019000e0
:10257400ce0190007e0890008e109000cafb0700e8
:102584000000e000010035000044eb000804e00016
:10259400040032001e10900011c0b30021409800c6
:1025a4003700370018c0b3003e019000ce01900000
:1025b4007e0890008e109000bdfb07000000e00034
:1025c40001003d000044eb000804e0000f0032006d
:1025d40018c0b3005e019000ee0190007e089000e8
:1025e4008e109000b0fb07000000e00001003500f1
:1025f4000044eb000804e000040032001e109000c8
:1026040021c0b300214098001d00370018c0b3005a
:102614005e019000ee0190007e0890008e10900004
:10262400a3fb07000000e00001003d000044eb00b4
:102634000804e0001200320018c0b3003e09900004
:10264400ce0990007e0890008e10900096fb070043
:102654000000e000010034000044eb000804e00046
:10266400070032001e10900031c0b30021409800d2
:1026740003003700000000000100370000000000e4
:102684004f0478000080fa00000006000400fa00fd
:10269400100798001e00900010409000e14f500079
:1026a40010003a00cf01070011c0b300a0c0b3006e
:1026b4004e0107000040eb00004f78000400370093
:1026c40080c0eb0010c0b300fa0007001e4fe80002
:1026d4001e009000204090009e4f5000f8ff3e00e6
:1026e4000f003700b401070011c0b30070c0b3007d
:1026f4003e0107000040eb00004f78000400370063
:1027040080c0eb0010c0b300ea0007001e4fe800d1
:102714001e009000204090009e4f5000f8ff3e00a5
:102724000080fa00000006000200fa00000f7800a2
:102734005c0107008040eb0080c0b3002b01070060
:102744001e007800104078000080fb00cf80de007f
:102754003202200003002000820f5000838f5800b3
:1027640091003e00000601002300370025003700d9
:1027740027003700290037002b0037002d003700d1
:102784002f003700310037003300370035003700a1
:1027940037003700390037003b0037003d00370071
:1027a4003f00370041003700430037004500370041
:1027b40047003700490037004b0037004d00370011
:1027c4004f003700510037005300370055003700e1
:1027d40057003700590037005b0037005d003700b1
:1027e4005f00370061003700630037006500370081
:1027f4006700370069003700e0ef28001a0107007e
:102804006900370000f02800170107006600370050
:1028140030f02800140107006300370050f028004e
:10282400110107006000370080f028000e01070046
:102834005d003700a0f028000b0107005a003700a4
:10284400c0f028000801070057003700f0f0280006
:10285400050107005400370010f1280002010700a9
:102864005100370040f12800ff0007004e003700f8
:1028740060f12800fc0007004b00370090f12800ad
:10288400f900070048003700e0ef2800f6000700d1
:102894004500370000f02800f3000700420037002d
:1028a40030f02800f00007003f00370050f0280007
:1028b400ed0007003c00370080f02800ea00070024
:1028c40039003700a0f02800e70007003600370081
:1028d400c0f02800e400070033003700f0f02800bf
:1028e400e10007003000370010f12800de00070087
:1028f4002d00370040f12800db0007002a003700d4
:1029040060f12800d80007002700370090f1280064
:10291400d500070024003700e0ef2800d2000700ac
:102924002100370000f02800cf0007001e00370008
:1029340030f02800cc0007001b00370050f02800be
:10294400c90007001800370080f02800c6000700ff
:1029540015003700a0f02800c3000700120037005c
:10296400c0f02800c00007000f003700f0f0280076
:10297400bd0007000c00370010f12800ba00070062
:102984000900370040f12800b700070006003700af
:1029940060f12800b40007000300370090f128001c
:1029a400b1000700000000001e00780037ff070098
:1029b4000080fa00000006000400fa002047980096
:1029c400ae409000014f78009e0078007000200017
:1029d4000008dd000000fb004780de0000407800b6
:1029e400614060000080fb00610060004300dd0086
:1029f400a17080000130a10001007000a070880067
:102a04009e007800600020000008dd000000fb004c
:102a14004780de0000407800614060000080fb00d9
:102a240061006000217180000100a10001007000bc
:102a3400207188009e007800500020000008dd000e
:102a44000000fb004780de00004078006140600029
:102a54000080fb00610060000000400021718000e4
:102a64000110a10001007000207188009e00780010
:102a7400400020000008dd000000fb004780de006d
:102a840000407800614060000080fb00610060004d
:102a94004400dd00a17080000140a100010070002d
:102aa400a0708800142ea800142ea9000080fa003b
:102ab400000006000200fa00004f78001147980059
:102ac400144ea9001e407800614060000080fb00a5
:102ad400610060004200dd00a17080000120a100bf
:102ae40001007000a0708800002e22002100200048
:102af400c3030700142ea9001e4090000000fb0031
:102b04004480de0000407800abff07001e409000c8
:102b14006f406000a8ff07000080fa000000060074
:102b24000400fa002047980031479800146ea90069
:102b3400240ea900242ea900148ea900144ea90065
:102b4400142ea90000b2200001022000ac030700eb
:102b54000040eb00004f78000600370030c0b3009f
:102b640095ff070000e62a00a1002000a403070047
:102b74001e4fe8001e407800e24f5000f7ff360079
:102b840020c0b3008cff07002e4090000054a0002a
:102b9400804078000040eb00c6ff07003e409000f4
:102ba4000034a000804078000040eb00c1ff070023
:102bb4003e4090000034a00010f0b70011c0b300f4
:102bc4000040eb00bbff070020c0b30010f0b700cb
:102bd40010d0bf000024a000804078000040eb002b
:102be400b4ff07000080fa00000006000400fa00a9
:102bf40020479800314798003e4090000004e000d0
:102c04000300320000c4b300004f78000200370014
:102c14000040eb00004f78009e4078002e4090006a
:102c240000c040000040e900004f780000c8b30035
:102c34001e407000804078000040eb009dff0700bc
:102c44000080fa00000006000200fa00004f78003d
:102c54001e4078008040780010c0b30095ff070044
:102c64000080fa00000006000200fa00000f78005d
:102c7400060037001e00780010407800804078007d
:102c840010c0b3008bff07001e0fe8001e00780081
:102c9400104078000004e000f6ff3a000080fa00db
:102ca400000006000000fa0011c0b3000040eb0071
:102cb40080ff070000e62a00a1002000500307005f
:102cc4000080fa00000006000000fa0010d0bf00e7
:102cd4000024a00010f0b70010d0bf00804078009e
:102ce4000040eb0073ff07000080fa0000000600bc
:102cf4000000fa0010d0bf000024a10010f0b700bb
:102d040010d0bf00804078000040eb0069ff07004e
:102d14000080fa00000006000000fa0010d0bf0096
:102d24000014a00010f0b70010d0bf00804078005d
:102d34000040eb005fff07000080fa00000006007f
:102d44000000fa0010d0bf000014a10010f0b7007a
:102d540010d0bf00804078000040eb0055ff070012
:102d64000080fa00000006000000fa0010d0bf0046
:102d74000004a00010f0b70010d0bf00804078001d
:102d84000040eb004bff07000080fa000000060043
:102d94000000fa0010d0bf000004a10010f0b7003a
:102da40010d0bf00804078000040eb0041ff0700d6
:102db4000080fa00000006000000fa0010d0bf00f6
:102dc4000014a10010f0b70010d0bf000024a00030
:102dd400804078000040eb0036ff07000080fa00d6
:102de400000006000000fa0010d0bf000014a0008c
:102df40010f0b70010d0bf000024a000804078007d
:102e04000040eb002bff07000080fa0000000600e2
:102e14000000fa00c3e8a800000000000000000061
:102e24000080fa00000006000000fa0040a7a90094
:102e34000080fa00000006000200fa00000f78008b
:102e440021028000200f2000008060001e0070001e
:102e5400200288000080fa00000006000000fa004a
:102e64000c000700b7020700f3020700cf020700b7
:102e740035020700600107008c020700e4ff070029
:102e8400e9ff070000022000ebff07000080fa00c2
:102e9400000006000000fa00a0082000303a880074
:102ea400213a800000fe2f00008060000010a00086
:102eb400203a8800213a8000f0f32f00008060005f
:102ec400203a88003200200080072000a109200059
:102ed4003374200080497800814978008249780061
:102ee40012002000600420007105200023742000db
:102ef4008049780081497800824978000000000008
:102f0400113a800000002700808060000000230048
:102f1400808f5000faff3a0000000000113a800050
:102f240000022000008060000000e000fbff32008f
:102f34000080fa00000006000000fa00003a800059
:102f44000080fa00000006000200fa00faff070001
:102f5400000f78001e007800240007000004e00041
:102f64000200320000002800710007001e007800f3
:102f74002a0007000004e0000200320000002400e0
:102f84006b0007001e007800320007000004e00018
:102f94000200320000202000650007001e007800b7
:102fa4003a0007000004e00002003200000820009c
:102fb4005f0007001e007800420007000004e000e4
:102fc4000200320000042000590007001e007800af
:102fd4004a0007000004e000020032000001200063
:102fe400530007000080fa00000006000400fa0005
:102ff400100798000040eb00004f78001e0090007e
:103004000000e00002003d0010c0b300004f780053
:103014001e4078000080fa00000006000400fa0058
:10302400100798000040eb00004f78009e009000cd
:1030340000002400008060000000e0000200320074
:1030440010c0b300004f78001e4078000080fa00e2
:10305400000006000400fa00100798000040eb008e
:10306400004f78009e009000002020000080600047
:103074000000e0000200320010c0b300004f7800ee
:103084001e4078000080fa00000006000400fa00e8
:10309400100798000040eb00004f78009e0090005d
:1030a40000082000008060000000e0000200320000
:1030b40010c0b300004f78001e4078000080fa0072
:1030c400000006000400fa00100798000040eb001e
:1030d400004f78009e0090000004200000806000f3
:1030e4000000e0000200320010c0b300004f78007e
:1030f4001e4078000080fa00000006000400fa0078
:10310400100798000040eb00004f78001e0090006c
:10311400700060000000e0000200320010c0b30044
:10312400004f78001e4078000080fa00000006007e
:103134000200fa00000f78009e80ea00003a800046
:1031440000806000003a88000080fa000000060059
:103154000000fa004027ef000080fa00000006009b
:103164000600fa00881f78001007980021079800cd
:103174003aff070041c0b30080c0b30068fe0700f7
:103184000001eb0001802100a00020002df60700c3
:10319400018022000020200002f607000100370011
:1031a400000000000fd0bf000004e000fcff32006c
:1031b4000f70ef000ed0bf000004e0002a003200c0
:1031c40003802200020022000100220000202000cf
:1031d4006bf507000830ef001e00370040808000c8
:1031e40041808000018140000100220081004100f3
:1031f400910078008180d10000014000000022008d
:103204000000410001087800428080004080800076
:103214008000400000002200008040009000780000
:103224004211dd0000002300000041000108780085
:1032340040808000c200dd002000230000804000a8
:103244008000eb0001087800408080000000e80066
:103254004080880041808000f01f2000808f500053
:10326400deff3400290037000380220002402200e0
:10327400014022000020200041f507000830ef0043
:103284001e003700408080004180800001814000a2
:103294000140220081004100910078008180d1002a
:1032a40000014000004022000000410001087800b5
:1032b4004280800040808000800040000040220066
:1032c40000804000900078004211dd0000002300df
:1032d400000041000108780040808000c200dd0049
:1032e40020002300008040008000eb0001087800eb
:1032f400408080000000e800408088004180800019
:10330400f01f2000808f5000deff340003002300f4
:10331400020023000120200000202000a5f6070061
:10332400230023002200230001202000002020008d
:10333400a0f6070003f02f00028021000100230003
:10334400a000200011f5070001002300a0002000c8
:10335400d3f4070002c02200010023000020200053
:10336400edf407000000eb0000608900020021007a
:1033740001c02200002020006df6070000808000bc
:103384002200210001c02200b1fa07001080800051
:103394002180800018c0b30002002000a33f240055
:1033a40041f807000000e000010035000044eb0094
:1033b4000804e000070032001080800021808000b3
:1033c400420c210011fb0700400c2100d6fc070031
:1033d4000600370033fe07008040eb0020c0b30036
:1033e40002fe0700c0f128001ffe07000000eb00ea
:1033f400000f78006bff37000000fa000021ef0097
:10340400d0552100100888000002280020088800f8
:103414000068a9002068a800a00c21008040eb00ef
:10342400014878000080fa00000006003600f80029
:10343400809fbe00829fbe00849fbe00869fbe0008
:103444000000fa002a000700b00c210010407800a8
:103454008040e800b00c210001487800a00c210055
:1034640011c0b300014878000068a9000080fa0088
:103474004f03be004f02be004f01be004f00be000e
:103484003600f900004006000200fa00000f780040
:103494009e00780011088800a00c21008040eb00f9
:1034a400014878000080fa00000006000000fa00dd
:1034b400100880000080fa00000006000200fa00f4
:1034c400000f78009e00780001088800a00c2100fd
:1034d4008040eb00014878000080fa0000000600fc
:1034e4000000fa00000880000080fa0000000600d6
:1034f4000000fa00a0708000004078006140600085
:103504000004a200614060000080fb0061006000d4
:10351400a17080000100a10001007000a07088006b
:103524000080fa00000006000000fa00a00c210050
:103534008040eb00014878002068a80005e1a8005d
:103544000080fa00000006000000fa0005e1a9006e
:103554002068a9000080fa00000006000200fa00ba
:10356400a00c2100104f78001e4078000004e000f9
:1035740003003200a00c21008040eb0001487800d9
:103584001e4078000080fa00000006000000fa00e7
:10359400b00c2100104078000080fb000080fa008d
:1035a400000006000000fa00b00c21008040eb008f
:0c35b400014878000080fa0000000600ca
:020000040000fa
:1035c000a410000020000000800000000a1000008d
:1035d0000200000082000000ffff00000c1000004d
:1035e0000200000080000000002000000008000031
:1035f000800000000e1000000200000080000000ab
:10360000c81000000200000080000000ca10000086
:1036100002000000800000000028000000080000f8
:10362000800000000030000000100000800000005a
:1036300000180000000800008000000000100000da
:103640000a00000080000000c41000000400000018
:1036500080000000141000009000000082000000b4
:10366000ecd18200429a99008a420a00d792420025
:103670007b949b0042ecd100a442b8009eae420075
:103680000000b90042000000c442f600a8cf42008a
:103690001f05dc00429a1900e942c300f5f642001a
:1036a000ecd10200439a99000a430a00d712430062
:1036b000ec911b0043ecd1002443b8009e2e430044
:1036c0008f023900438f02004443f600a84f4300a5
:1036d0008f025c00430a17006943c300f57643007c
:1036e000ecd18200439a99008a430a00d7924300a2
:1036f000ec919b004333d300a4430000a0ae4300f1
:103700004801b900438f0200c4433d00aacf4300e3
:103710008f02dc0043521800e9437b00f4f64300bb
:10372000101000000200000080000000cc1000001b
:1037300002000000820000000004000012100000df
:0c374000020000008000000000000000fb
:020000040000fa
:10374c000000fa000a21ef00808b28007008880026
:10375c000000280090088800800c21008040eb00bd
:10376c00014878000080fa00000006000000fa0012
:10377c000140800000102000008060000000e0008c
:10378c0009003200900c2100104078008040e800c5
:10379c00900c210001487800800c210011c0b3006e
:1037ac00014878000108a9000080fa00000006001a
:1037bc000200fa00000f78009e0078007108880063
:1037cc00800c21008040eb00014878000080fa005a
:1037dc00000006000000fa00700880000080fa006b
:1037ec00000006000200fa00000f78009e0078002e
:1037fc0051088800800c21008040eb0001487800c3
:10380c000080fa00000006000000fa00500880005a
:10381c000080fa00000006000000fa00800c210075
:10382c008040eb000148780013e1a8000080fa000a
:10383c00000006000000fa0013e1a9000080fa0065
:10384c00000006000200fa00800c2100104f7800e6
:10385c001e4078000004e00003003200800c2100c0
:10386c008040eb00014878001e4078000080fa0090
:10387c00000006000000fa00900c210010407800b7
:10388c000080fb000080fa00000006000000fa0037
:10389c00900c21008040eb00014878000080fa0079
:1038ac00000006000000fa0001588000f0fc2f0018
:1038bc00008060000058880001588000c0ff2f0075
:1038cc00008060000010a00000588800d00020008c
:1038dc0010588800f01f200070588800003020001d
:1038ec00605888000000220020588800062bef004a
:1038fc0000402200405888000a2bef000088a900e5
:10390c002088a80001eba8000080fa000000060047
:10391c00801f78000000fa0010c0b3000ff0b70051
:10392c000ed0bf000004a2000ef0b7000088a90062
:10393c000080fa004f007800004006000000fa00fa
:10394c00042eef00142eef00242eef00f07920004f
:10395c000070880000fe2f0080708800c03f20009f
:10396c00007188000c2eef001c2eef002c2eef00a7
:10397c000a2eef001a2eef002a2eef00062eef0073
:10398c00162eef00262eef003001200070708800fc
:10399c0000102000f07088002e2eef000080fa003e
:1039ac00000006000000fa0040742900001988008d
:1039bc002223ef00d00020002019880010002000e6
:1039cc00401988002e23ef003023ef002623ef0050
:1039dc00101980004200de007f4060000cf0b70040
:1039ec000080fa00000006000000fa0001a8a900ff
:0839fc000080fa000000060043
:020000040000fa
:103a0400f03fb1000180b10006003500ee0309006b
:103a140000000000403fb1000180b100fbff3d0009
:103a24001000b000203fb000020035000080090003
:083a3400000000000000060084
:020000040000fa
:103a3c000000fa001142800080ff2f00008060001f
:103a4c000000a0001042880001428000f0ff280016
:103a5c000080600000c0a000004288000080fa00d6
:103a6c0000000600000f78009e007800518088004e
:103a7c00ffff37000000fa00400a210080077800a1
:103a8c00c00b2100000188000080fa000000060035
:083a9c006086880000000600ae
:020000040000fa
:020000040002f8
:04afe000eeff000080
:020000040000fa
:020000040002f8
:04afe400ffff00006b
:020000040000fa
:020000040002f8
:04afe8007fff0000e7
:020000040000fa
:020000040002f8
:04afec00beff0000a4
:020000040000fa
:020000040002f8
:04aff000fbff000063
:020000040000fa
:020000040002f8
:04aff400ffff00005b
:00000001FF
