:020000040000fa
:080000000002040000000000f2
:020000040000fa
:04000800fa020000f8
:020000040000fa
:04000c000c030000e1
:020000040000fa
:0400100024030000c5
:020000040000fa
:0400140002030000e3
:020000040000fa
:0400180014030000cd
:020000040000fa
:04001c001c030000c1
:020000040000fa
:040020002c030000ad
:020000040000fa
:040024009203000043
:020000040000fa
:04002800920300003f
:020000040000fa
:04002c00920300003b
:020000040000fa
:040030009203000037
:020000040000fa
:040034006403000061
:020000040000fa
:040038004e03000073
:020000040000fa
:04003c00920300002b
:020000040000fa
:040040009203000027
:020000040000fa
:040044009203000023
:020000040000fa
:04004800920300001f
:020000040000fa
:04004c00920300001b
:020000040000fa
:040050009203000017
:020000040000fa
:040054009203000013
:020000040000fa
:04005800920300000f
:020000040000fa
:04005c00920300000b
:020000040000fa
:040060009203000007
:020000040000fa
:040064009203000003
:020000040000fa
:0400680092030000ff
:020000040000fa
:04006c0092030000fb
:020000040000fa
:0400700092030000f7
:020000040000fa
:0400740092030000f3
:020000040000fa
:0400780092030000ef
:020000040000fa
:04007c0092030000eb
:020000040000fa
:0400800092030000e7
:020000040000fa
:0400840092030000e3
:020000040000fa
:0400880092030000df
:020000040000fa
:04008c0092030000db
:020000040000fa
:0400900092030000d7
:020000040000fa
:0400940092030000d3
:020000040000fa
:0400980092030000cf
:020000040000fa
:04009c0092030000cb
:020000040000fa
:0400a00092030000c7
:020000040000fa
:0400a40092030000c3
:020000040000fa
:0400a80092030000bf
:020000040000fa
:0400ac0092030000bb
:020000040000fa
:0400b00092030000b7
:020000040000fa
:0400b40092030000b3
:020000040000fa
:0400b80092030000af
:020000040000fa
:0400bc0092030000ab
:020000040000fa
:0400c00092030000a7
:020000040000fa
:0400c40092030000a3
:020000040000fa
:0400c800920300009f
:020000040000fa
:0400cc00920300009b
:020000040000fa
:0400d0009203000097
:020000040000fa
:0400d4009203000093
:020000040000fa
:0400d800920300008f
:020000040000fa
:0400dc00920300008b
:020000040000fa
:0400e0009203000087
:020000040000fa
:0400e4009203000083
:020000040000fa
:0400e800920300007f
:020000040000fa
:0400ec00920300007b
:020000040000fa
:0400f0009203000077
:020000040000fa
:0400f4009203000073
:020000040000fa
:0400f800920300006f
:020000040000fa
:0400fc00920300006b
:020000040000fa
:040100009203000066
:020000040000fa
:040104009203000062
:020000040000fa
:04010800920300005e
:020000040000fa
:04010c00920300005a
:020000040000fa
:040110009203000056
:020000040000fa
:040114009203000052
:020000040000fa
:04011800920300004e
:020000040000fa
:04011c00920300004a
:020000040000fa
:040120009203000046
:020000040000fa
:040124009203000042
:020000040000fa
:04012800920300003e
:020000040000fa
:04012c00920300003a
:020000040000fa
:040130009203000036
:020000040000fa
:040134009203000032
:020000040000fa
:04013800920300002e
:020000040000fa
:04013c00920300002a
:020000040000fa
:040140009203000026
:020000040000fa
:040144009203000022
:020000040000fa
:04014800920300001e
:020000040000fa
:04014c00920300001a
:020000040000fa
:040150009203000016
:020000040000fa
:040154009203000012
:020000040000fa
:04015800920300000e
:020000040000fa
:04015c00920300000a
:020000040000fa
:040160009203000006
:020000040000fa
:040164009203000002
:020000040000fa
:0401680092030000fe
:020000040000fa
:04016c0092030000fa
:020000040000fa
:0401700092030000f6
:020000040000fa
:0401740092030000f2
:020000040000fa
:0401780092030000ee
:020000040000fa
:04017c0092030000ea
:020000040000fa
:0401800092030000e6
:020000040000fa
:0401840092030000e2
:020000040000fa
:0401880092030000de
:020000040000fa
:04018c0092030000da
:020000040000fa
:0401900092030000d6
:020000040000fa
:0401940092030000d2
:020000040000fa
:0401980092030000ce
:020000040000fa
:04019c0092030000ca
:020000040000fa
:0401a00092030000c6
:020000040000fa
:0401a40092030000c2
:020000040000fa
:0401a80092030000be
:020000040000fa
:0401ac0092030000ba
:020000040000fa
:0401b00092030000b6
:020000040000fa
:0401b40092030000b2
:020000040000fa
:0401b80092030000ae
:020000040000fa
:0401bc0092030000aa
:020000040000fa
:0401c00092030000a6
:020000040000fa
:0401c40092030000a2
:020000040000fa
:0401c800920300009e
:020000040000fa
:0401cc00920300009a
:020000040000fa
:0401d0009203000096
:020000040000fa
:0401d4009203000092
:020000040000fa
:0401d800920300008e
:020000040000fa
:0401dc00920300008a
:020000040000fa
:0401e0009203000086
:020000040000fa
:0401e4009203000082
:020000040000fa
:0401e800920300007e
:020000040000fa
:0401ec00920300007a
:020000040000fa
:0401f0009203000076
:020000040000fa
:0401f4009203000072
:020000040000fa
:0401f800920300006e
:020000040000fa
:0401fc00920300006a
:020000040000fa
:040200009203000065
:020000040000fa
:040204009203000061
:020000040000fa
:04020800920300005d
:020000040000fa
:04020c009203000059
:020000040000fa
:040210009203000055
:020000040000fa
:040214009203000051
:020000040000fa
:04021800920300004d
:020000040000fa
:04021c009203000049
:020000040000fa
:040220009203000045
:020000040000fa
:040224009203000041
:020000040000fa
:04022800920300003d
:020000040000fa
:04022c009203000039
:020000040000fa
:040230009203000035
:020000040000fa
:040234009203000031
:020000040000fa
:04023800920300002d
:020000040000fa
:04023c009203000029
:020000040000fa
:040240009203000025
:020000040000fa
:040244009203000021
:020000040000fa
:04024800920300001d
:020000040000fa
:04024c009203000019
:020000040000fa
:040250009203000015
:020000040000fa
:040254009203000011
:020000040000fa
:04025800920300000d
:020000040000fa
:04025c009203000009
:020000040000fa
:040260009203000005
:020000040000fa
:040264009203000001
:020000040000fa
:0402680092030000fd
:020000040000fa
:04026c0092030000f9
:020000040000fa
:0402700092030000f5
:020000040000fa
:0402740092030000f1
:020000040000fa
:0402780092030000ed
:020000040000fa
:04027c0092030000e9
:020000040000fa
:0402800092030000e5
:020000040000fa
:100400000f8024000eff24000e0188000000000071
:10041000000020000000e000020032000001200087
:1004200020028800140007008c0307000000e00091
:1004300003003a0040742100010020000200370050
:100440000000200001002000810f70000100320038
:100450000f000700000020000000e0000200320052
:100460000000020000000000bc15020000000000b7
:100470000040da000000fe00200020000000e00044
:1004800002003200100020009001880000000600e9
:10049000a1028800800478000000eb001f003700f4
:1004a000e284440054a0b4009905ba00e2844400f8
:1004b00054a0b4009906ba00e284440054a0b400e9
:1004c0000006eb00476fde00fd07b200ae018800ba
:1004d000636ce10003003a000ad801000000eb0061
:1004e0000e003700606ce10008003a00004deb00a0
:1004f0000a05e800020039003420ec000af0a000f0
:100500008b05e900f9ff3e00040037006168e10057
:10051000010032000086eb000b00070019c7ba008b
:100520000e04e0001905ba0003003a000a00e000da
:10053000dbff3a0000000600fe07b200ae028800b2
:100540008a047800f5ff37000cd0a300e20f4d00bd
:100550001c00390089027800354dba000a05e80010
:10056000020039003420ec000af0a0008b05e900fd
:100570000f003200254dba000a05e80002003900dc
:100580003420ec000af0a0008b05e90008003200de
:100590000c00e0000600320015cdba000a05e800a4
:1005a000020039003420ec000af0a0008b05e900bd
:1005b0008984e80054a0b4000b00e000e2ff3a0098
:1005c000000006009902ba00055d78008b05e9007d
:1005d000f7ff3200c82ade00055d78008b05e900d0
:1005e000f3ff32000c00e000f1ff320019ddba0029
:1005f000eeff37003600f800c028a9000000eb002d
:100600008b0b07003600f8008d0b0700c048a900cf
:1006100010002000860b07003600f800c068a90013
:1006200020002000820b07003600f800c088a900d7
:10063000300020007e0b07003600f800c0a8a9009b
:10064000400020007a0b07003600f800c608a90019
:1006500070002000760b07003600f800214680006d
:1006600000022000008060000000e0000300320073
:10067000c4a8a900900020006d0b07002046800050
:10068000700060000000e00003003200c488a90090
:10069000a0002000660b0700ffff3700801f7800d6
:1006a0000000fa0010c0b30013f0b70012d0bf0072
:1006b0000004a20012f0b7000088a9000080fa0030
:1006c0004f007800004006003600f800809fbe0012
:1006d000829fbe00849fbe00869fbe000000fa007d
:1006e000700a0700d00c2100104078008040e8001c
:1006f000d00c210001487800c00c210011c0b300cb
:10070000014878000068a9000080fa004f03be008d
:100710004f02be004f01be004f00be003600f90080
:10072000004006000040da000000fe00e8874700b5
:10073000889fbe008a9fbe008c9fbe008e1f7800df
:100740000005be0002002000037024009204070090
:1007500080047800010478006011b8000a00be002f
:10076000920307000000e000370035000900780020
:1007700088007800d00307008e0307000005be0044
:100780000a00be00c70307000006be0002002000ea
:1007900003f02300800407000007780081bf9f005a
:1007a000010178000e00780082007800c203070083
:1007b000e0b79f00f1b79f000c01be00090278006e
:1007c0008800780004037800810378000600be00ea
:1007d000a30207000004be000200200003f0230073
:1007e0000800be00710307000000e0007b00340039
:1007f0000200200003f823000c00be00990207004d
:100800006c0307000005be008a0178000b01780028
:100810000300780082007800f3ff2700830f500068
:10082000e08f580002003400f0ff27000100200094
:100830004f0778004f06be004f05be004f04be00b4
:100840008f00b100000006000900780088007800e1
:10085000e1020700570307000006be000c00be00bf
:10086000900307000005be000901780088017800a8
:100870000a00be00980307000000e00009003200f3
:100880000200200003f823000a00be0074020700e3
:10089000480307000006be000c00be0081030700ed
:1008a0000005be000200200003f023000a00be0085
:1008b000390407000007780081bf9f00010178001c
:1008c0000e007800820078007b030700e0b79f00ed
:1008d000f1b79f000a01be00090278008800780085
:1008e00004037800810378000600be005c02070064
:1008f0000004be000200200003f023000800be0038
:100900002a0307000000e000170034000200200066
:1009100003f823000a00be00520207002503070067
:100920000006be008c0178000d01780003007800fd
:100930008200780002002800f3ff2f00820f500091
:10094000838f5800baff3d000200be004f077800b9
:100950004f06be004f05be004f04be008f00b10021
:1009600000000600b8ff37000200200003f023005b
:100970008800780009007800010278008002780081
:100980000400be00070307000000e000e5ff3a0096
:100990006fb19700ffb197008e0278000fba9700f1
:1009a00005007800840078002d0207000001be00d9
:1009b0002c020700ff0207000000e000d9ff320010
:1009c0000200200003f823000a00be0025020700f1
:1009d000f80207000006be00d2ff37000200200028
:1009e00003f02300880078000900780001027800f5
:1009f000800278000400be00ea0207000000e00068
:100a000081ff3a006fb19700ffb197008e02780026
:100a10000fba9700050078008400780010020700e4
:100a20000001be000f020700e20207000000e00024
:100a300075ff32000200200003f823000c00be0006
:100a400008020700db0207000005be006eff37004a
:100a5000889fbe008a9fbe008c9fbe000005780064
:100a6000810678000a00e900cf80de000d03070050
:100a70000001be00b0fd2000910c240060020700c0
:100a800080057800010678000a00e00013003400b9
:100a90008d0478000004eb006140b90001030700f9
:100aa0000b0178008c017800bb030700520207009d
:100ab0000200200003f02b00b70307000200200013
:100ac00003f02300e701070018ff0700801c7800ef
:100ad0000804e800880f5500efff3c000d00780087
:100ae0004f06be004f05be004f04be0000000600ca
:100af000f6874700889fbe008a9fbe008c9fbe007d
:100b00008e1f7800f1af9f0082047800180020004b
:100b10000040dd004f04de00000044000084d100ee
:100b20000000200001f8230000ff0700ffa8970045
:100b3000800878000000eb00900098006140b90048
:100b4000d80207000001be00b0fd2000910424007f
:100b50002b02070080057800010578000b00780063
:100b60008a00780024020700b0b79f00a1b79f0059
:100b70000900e000940032000a01be000300780082
:100b800082007800210407000006be000883e90007
:100b900086003300ffab9700648543008c04780027
:100ba0000d047800bfb597002fb797000b007800b1
:100bb0008e00780086bf9f00dcfe0700000d7800e5
:100bc0000900780088007800d8fe0700100598001a
:100bd00064054500bfb097002fb097000101780071
:100be000800178000b0078008e0078006a0307000f
:100bf0000002be000c01be00c8b79f0009007800cb
:100c000088007800e4b79f00f5b79f0062030700f3
:100c10000001be006fb29700ffb297000400be0053
:100c20008f01070090b79f0081b79f00bfb097006a
:100c30002fb0970001017800800178000902780048
:100c40008800780004047800810478000800be0061
:100c50005103070080047800010478000c01be00f5
:100c60000b0278008e007800c4b79f00d1b79f00b8
:100c70004fb09700dfb097004703070009027800e4
:100c80008801780004047800830478000801be001d
:100c90007401070080047800010478000fbb9700fe
:100ca0000603e900410033009fb597000fb7970096
:100cb0000b0078008e00780086bf9f009bfe070027
:100cc000000d7800090078008800780097fe070082
:100cd0001005980064054500bfb097002fb097003d
:100ce00001017800800178000b0078008e00780008
:100cf000290307000002be000c01be00c8b79f0018
:100d00000900780088007800e4b79f00f5b79f00dd
:100d1000210307000001be006fb29700ffb29700e9
:100d20000400be004e01070090b79f0081b79f00ee
:100d3000bfb097002fb097000101780080017800c4
:100d400009027800880078000404780081047800a3
:100d50000800be001003070080047800010478003a
:100d60000c01be000b0278008e007800c4b79f0013
:100d7000d1b79f004fb09700dfb097000603070080
:100d80000902780088017800040478008304780060
:100d90000801be00330107008004780001047800d8
:100da0000fbb97000603e900bfff3b007fa8970039
:100db0004f0778004f06be004f05be004f04be002f
:100dc0006f01b100000006000a01be0003007800b8
:100dd000820078008d0307000006be000df0a2001f
:100de0006aff37003200f80001c0fe00b10278004f
:100df0000009eb000002e90007003400b1017800af
:100e00000328e10002003c0083027800040950003e
:100e10000402e900f9ff3c00050078003200f90007
:100e2000000006003200f80001c0fe000203780056
:100e30000002d0008102e9008200780003017800fe
:100e4000fa08020000000000040040000100200039
:100e50000580090001187800060078003200f900ca
:100e6000000006003200f80001c0fe004400f80057
:100e7000040f200024028800010278000000e9002d
:100e80000080080005000000b20278000500ca00da
:100e9000b30278000580ca000030cb003100cc00de
:100ea000040078004400f9003200f9000000060058
:100eb0003200f80001c0fe004400f800040f2000da
:100ec000240288000000e9001201c300008008002d
:100ed0000200000031027800b20278001201c00066
:100ee0000000cd004400f9003200f90000000600c7
:100ef0000c0902000000000000000600889fbe00f0
:100f00008a9fbe008c9fbe008e1f78004400f800b0
:100f1000070f2000270288003200f800811f7800a8
:100f20000f07780007f02f000338e1004800320077
:100f300003d0fe00040180007d86800005002300b0
:100f400019002000804cdd008904d0000f8544008a
:100f50000800310005055500060031008d8444006d
:100f6000040031008f844400020031008486540064
:100f70003000390019002000804cdd0013002000f3
:100f800002047800800678008904d100424edd001a
:100f9000010578000302e900048008002000000039
:100fa000000000008a0546004218dd000902e90041
:100fb0000480080018000000000000004620c30064
:100fc0003200f80001c0fe00000000003b025200a9
:100fd0003200f900df35c100080440001381c2006f
:100fe0003200f80001c0fe0000000000ab82520099
:100ff000264dc5003e85c400bb00cd00bb80cd00a2
:101000003a00ca002a80ca003200f9000700c9006d
:101010000580c900ba00cd00ba80cd000a0546009f
:10102000020478008301d0008d06e900d6ff3c0061
:101030002f00370019002000804cdd000f047800dd
:101040008906e9000d800900b21f780008017800c8
:1010500001c0fe0019002000804cdd0013002000bc
:1010600002047800800678008904d100424edd0039
:10107000010578000302e900048008001800000060
:10108000000000008a0546004218dd000902e90060
:101090000480080010000000000000004620c3008b
:1010a0003b025200df35c100080440001381c2003a
:1010b000ab825200264dc5003e85c400bb00cd006a
:1010c000bb80cd003a00ca002a80ca000700c900d0
:1010d0000580c900ba00cd00ba80cd000a054600df
:1010e000020478008301d0008d06e900deff3c0099
:1010f0008e0778004f0078003200f9004400f900b4
:101100004f0778004f06be004f05be004f04be00db
:10111000000006003200f80001c0fe004600f800a2
:101120005000f8000220200032028800020028004f
:10113000130020008019dd00028171008202880006
:1011400001007800010178002600200047002000ff
:101150008301e90003800800070000000110e1009e
:10116000040034001102be0092087800e2307b00d7
:101170000489be0087804000121978005000f900f1
:101180004600f9003200f900000006003200f800c5
:1011900001c0fe00821f7800849fbe008a1f780075
:1011a0004400f800040f20002402880001057800a4
:1011b0000601c3000080e900008008000300000071
:1011c000000000000505f0000401f1003200cd0030
:1011d0000505f0001001f1003200cd004400f900d7
:1011e0004f0578004f02be004f0078003200f90032
:1011f000000006003200f80001c0fe008101780006
:101200000000e90000800900b218780003007800af
:101210003200f900000006003200f80001c0fe00b4
:101220004400f800040f200024028800811f780089
:101230000000e9000080080003000000320278008e
:10124000b30278001301c0003100cd004f007800d8
:101250004400f9003200f90000000600000005001b
:1012600003f0a200889fbe008a9fbe008c1f7800fa
:10127000560107005d0133006450e1004f00320069
:101280006420e1005200320003826c0007003b0042
:101290000905d0000306d000820f54000c065d0043
:1012a000020039000200320089017800030678004c
:1012b0008582550004003d000003fd008103fd0010
:1012c0008502ea008b854200840f720002003b0019
:1012d00060001000e08018006011b8000005eb000d
:1012e0007a28e1000a00390006007800c75ddd00b9
:1012f000f707b200878075002d00370082817100ea
:101300000a017800610560008180d1000080d3006f
:101310008502e900f9ff3b0006044000878448008d
:1013200002003b0060041400e0841c000988a30054
:10133000070032008a8171008281710061016400be
:101340008904d1000884d3008b05e800170037001a
:101350000978a30013003a000b00e00013003400ea
:101360008b05e9000804440089844c000a44740099
:101370000978a3000d003a000b00e00007003400dc
:101380008b05e9000804440089844c0001003a0000
:101390000b0020000978a300f7ff32000001eb00ea
:1013a00002003700828171000a017800cc0007003a
:1013b0000cf0a70001f0a000150137006420e10047
:1013c00002003a00838f6c00150133000801be0053
:1013d0000200be000e0137000001eb004a000700ca
:1013e000040032000200200003f8230001f0a600f0
:1013f0009cff0700000006000081eb009a01370007
:10140000889fbe008a9fbe008c1f7800ef000700f7
:10141000f600330003866c006450e1002e003200b9
:101420006420e100330032006150e1002f003200ff
:101430006120e1003100320085855500eb07b000e6
:1014400009002000080420000500370008044400bb
:1014500089844c000a0031000603430087834b0057
:101460000001530081815b00f8ff33000203be00de
:101470000800a0000804440089844c00f6ff3900ed
:10148000c639dd0083017300010032001300200023
:101490008904d1000884d3000998a3000500320014
:1014a0000800a7000300a0008904d1000884d3002d
:1014b0008b05e8008904d1000884d3000001eb000b
:1014c0000281d2008600070001f0a1000cf0a70005
:1014d00001f0a000ce0037006420e100d00032000f
:1014e0000801be000200be00f7ff37006120e100e6
:1014f000cb0032006000b800f3ff3700000020008e
:1015000001f82700f0ff3700889fbe008a9fbe00c9
:101510000003be0098000700850578008281520014
:10152000020020006220e10004003a00f307b1004d
:10153000040035007718e100040035000600be0005
:10154000140037006000b8000f003700f50f2000ce
:10155000faff2f008502d1000a85d3008301e9003c
:10156000fcff3b008184620000046500890f740069
:10157000f2ff32008582ea000a85ea008184620077
:10158000000465005600070007f0a70001f0a00066
:101590000081eb000200e0004f05be004f04be00da
:1015a0000000060014002000a7013700f4ff2f0000
:1015b000a50137000001be006f0007000470a700fe
:1015c00003f0a1006509b100160032000d003500de
:1015d0006828e10006003500f0ff2f00f1ff27002a
:1015e0000300e00013003b0001002800000005009c
:1015f00000004000818048008502e900fcff3a00bd
:1016000008003700f88f420002003c008000eb0029
:10161000000005008100d1000080d3008502e800b1
:10162000fcff3a000300e00002003b0060001000f5
:10163000e0801800000006000001be004e00070018
:101640000470a70003f0a10003f8a30013003a0000
:101650006509b10010003200090035006928e10079
:1016600002003500010028000000050000004000d5
:10167000818048008502e900fcff3a000000060076
:10168000f88f4200050035008100d1000080d300b2
:101690008502e800fcff3a00000006008000eb0035
:1016a000000005004f89de008201780081013700cb
:1016b0006011b8008f0137000001eb0092ff0700b6
:1016c000040032000200200003f8230001f0a7000c
:1016d000e3fe070000000600040020005a01370066
:1016e00081002000618055000b003d000b002000b0
:1016f00061fe2f000100e1001d00340082817100b5
:10170000610164008904d1000884d3000000e8006e
:10171000faff3a00710020006100640003007000cd
:10172000020060000900320061044400e0844c00c3
:101730000988a500050032008b05e8006808e10073
:1017400002003a008904d1000884d300f20f20007f
:101750000258e10005003d00c75ddd00f907b20059
:101760008980750008007800000006000bf827004b
:101770008b00780000000500c70ade00f107b20008
:10178000f50fb20008003200e1cf42000200320043
:101790000170a00024000500810f700001003200dc
:1017a0000408050044000500810f700002003a00a3
:1017b000140005008502e9000000400081c04800d7
:1017c000fcff3b000170a000240005000004be00e7
:1017d000e9ff07000003be000405be000200be00d2
:1017e000e5ff0700844f7500000006000200be0000
:1017f0006450e100050036006420e100020036007c
:101800000968a30001003a000800be000160a000c2
:101810004f0678004f05be004f04be0000000600d2
:10182000f0ff2f00f1ff2700f9ff3700030007004a
:1018300092bd2500e3ed230057003700889fbe00ce
:101840008a9fbe008c9fbe00f200070085047800ce
:101850000005be006420e10049003e006220e10076
:1018600003003200090035000bf8a30044003200e9
:101870000bf8a3000800320010022000a0808800ae
:10188000f0ff2f00f1ff27003d00370001f82f0087
:10189000000020003a0037003d00070070fe0700fe
:1018a0000006be000a00be00324f200053f32300a2
:1018b0003eff0700060034000c00be0034000700a5
:1018c00067fe07000006be000a00be0002003700e7
:1018d0008904e9000c00be002d0007002e0007005f
:1018e0002b0007005ffe07000001be000c00be00d9
:1018f000c3fe07000005be000001be002600070071
:101900000006be00a2f32300430d2c0055fe070085
:10191000809fbe000c00be00d2e32700d3f02b0056
:101920001d0007004f01be00b5fe07000006be0007
:101930000a01be00180007000a01be0049fe0700a8
:101940000006be006148b90056ff07000005be0052
:1019500032082800e3952b000f0007000c01be00a1
:1019600040fe07000006be000a00be00020028007c
:1019700013f32300080007000c01be0039fe070026
:101980004f06be004f05be004f04be00000006001b
:1019900003f0230002000500889fbe008a9fbe005e
:1019a0008c1f780089ff070090ff330003866c00ce
:1019b0006450e100240032006420e100270032007e
:1019c0006150e100220032006120e100210032007c
:1019d0008b854200eb07b1000134b800003ab80033
:1019e0000804420089844a00013ab8000030b80077
:1019f0008880400009014a000400330000004000d4
:101a000081804800020149008b05e900c909dd0019
:101a1000830170000100320013002000c814de00b2
:101a20004814dd004709de001200b200c808de00dd
:101a3000088470002aff070001f0a1000cf0a70045
:101a400001f0a00072ff37006120e10074ff320056
:101a50000801be000200be00f7ff37006150e10040
:101a6000fcff3a006eff3700889fbe008a9fbe00d1
:101a70008c9fbe00820578000004be003eff070078
:101a80000800be006420e1000700390002003a00af
:101a9000f1ff2700f0ff2f000160a00012022000dc
:101aa000a2808800550037006120e10003003a0061
:101ab0000b00a70001f823005000370001f0a1003f
:101ac0000200210093642400b6fe07000800be0057
:101ad00004003500b2fd2000930c2400b400070080
:101ae0000004be000005eb000b00a6004f0dde0059
:101af00001f0a1000004be0032982f0023ea230069
:101b0000a5ff07000001eb0003f023000b00a70076
:101b100003f82300d3fd0700a6fe07000000a7007e
:101b20000a00a200dffe07000b00e0000300320005
:101b30000200200003f02300c9fd070001f0a2000d
:101b40000006be00020020009304240092ff07005c
:101b50000801be00c3fd0700809fbe000c00be0050
:101b600022a22a00d3a723008bff07004f01be004b
:101b7000bcfd07000004be0001f0a100020020002f
:101b80000398230087fe07000800be0019003500f7
:101b90000001be0080ff07000006be00b2c529009c
:101ba000e36223007cff070022222b00f3942b002a
:101bb000acfd07000c01be0077ff0700e2732800b0
:101bc00083c02300a7fd07000c01be0072ff0700c1
:101bd00042aa2a00a3e22b00a2fd07000c01be00ce
:101be0006dff07000801be006bff07000801be0083
:101bf0009cfd07000a00a70001f0a2004f06be00ee
:101c00004f05be004f04be00000006000001eb00bf
:101c100095ff37000003be00d7fe07006220e100f9
:101c2000020032000600be0005000500e507b10015
:101c3000f107b20004f023008480700007f0a700d1
:101c400001f0a00024000500889fbe008a9fbe000e
:101c5000841f7800ddfe07004f007800110033007c
:101c6000f0ff2f00838f6c0006003b000405650029
:101c70000a00a7000800370009f0a60010002000a5
:101c800008003700820f5400838f5c000300390086
:101c90001000200001003e000000200009f0a70015
:101ca0000000ea004f05be004f04be000000e00047
:101cb00000000600881f7800030478000300e0009d
:101cc00007003d0060001000e0801800600119006e
:101cd000e081190002003b0001f02d0003003700f5
:101ce0000400070008f0a70001f0a0004f047800ee
:101cf00000000600889fbe008a9fbe000082700020
:101d00000402710004827100260032000004be004b
:101d10000200be006011b8006b092000950220008f
:101d20000182cf000a0039000541b1000082cf00d6
:101d3000070039000541b1000982cf0004003900d5
:101d40000541b1000882cf00010039000541b10012
:101d500005425200120032000a003b0082817100ed
:101d6000610164008100d1000080d3008984d30028
:101d70000884d3008b05e8000442e800f7ff3a002e
:101d8000070037000804440089844c000000480024
:101d9000818048008b05e9000442e900f9ff3a0020
:101da0004ffe07004f05be004f04be0000000600b6
:101db0000400200000003700889fbe008a9fbe00fc
:101dc0008c1f78004f26dd0080fe070087fe330061
:101dd0006120e100430032006250e10041003e001a
:101de0003e0039006420e1003c00320005825500cd
:101df0000f003b000402e80038003a00800f530057
:101e0000818f5b00350034000800be0003f0a100a4
:101e100001f0a60003f0a0000cf0a70011fd0700e0
:101e20007bfe37000603430087834b000c464600c9
:101e30000005530081855b00020033000a03be00e9
:101e40000c00a0000402e900f6ff3b0085057800c5
:101e50000602430087824b0004003a006000b8008d
:101e600009f0a70001f0a00069fe3700000252004f
:101e700081825a000704e000040033000603430097
:101e800087834b008b05e900faff370009057800ce
:101e90000604be000203be006011b80010fe070079
:101ea000e00f5200e08f5a000700350002003c00ae
:101eb0000c08a300040032000601be0003f0a000dd
:101ec0000cf0a700e7fc07000a85680001f0a100fc
:101ed0000af0a70001f0a0004dfe37000800be0088
:101ee0004bfe3700100220000cf0a600a0808800f6
:041ef0004bfe37006e
:020000040000fa
:101ef4001600fa00889fbe00000f9800110f98008a
:101f0400220f980000002000a10724002007980059
:101f1400310798000e0890000000e800000040001f
:101f24009e08900000804000900078000e08900009
:101f34000000e900000040001e099000000041007c
:101f440010007800808f5000050034000e089000c7
:101f5400000fe80010c0b3002047980004003700c9
:101f64000e089000000fe9000040eb0020479800a5
:101f74001e0078008000eb00ccfd07000004be00ca
:101f84000e0890008000eb00c8fd07000001be00b1
:101f94000800be0019fd070040079800510798008b
:101fa4004e009000de0090000001be00acfc070073
:101fb4000200200003f82300a8fc07000004be0070
:101fc4000200200003f823004e009000de00900081
:101fd400a3fc07000001be000800be0007fd0700c7
:101fe40060079800710798002e4090000004e000fc
:101ff4000c0032000e0890008000eb00abfd0700df
:102004006e019000fe01900095fc07002e019000e7
:10201400be0190005ffe07002e0990000089be00fb
:102024000b0037000e0890008000eb009ffd0700b6
:102034006e019000fe01900088fc07002e019000c4
:10204400be01900053fe07002e0990000089be00d7
:102054004f04be000080fa00000006000800fa00e9
:102064001007980021079800320798000000eb0041
:10207400000f7800070037001e00780000004000c1
:10208400ae00900000804000be009000010878007f
:102094001e0fe8009e0078001e009000808f500004
:1020a400f5ff39000080fa00000006002400fa0061
:1020b400881f7800700f9800011798001217980075
:1020c400b2808000c380800072079800030f9800dc
:1020d4007e0190008e0990007e0890008e10900082
:1020e400c6fc0700d0fd07000200200003142400f2
:1020f40028fe0700b2092200a3e92300bffc070061
:10210400100f9800210f98001e089000ae08900050
:1021140048fd0700004f78001e80fb008000eb00a4
:1021240062fd07000001be001e089000ae0890008a
:102134004afc0700100f9800210f980018c0b30044
:1021440092da2400c3ef23001e089000ae0890002a
:1021540015fd07000000e00001003d000044eb0015
:102164000804e000010032001e4fe8001e10900039
:102174001e4878001e80fb00c200dd0060012100c3
:102184000080400010027800900290001e80fb0046
:102194000000e800c200dd00600121000080400072
:1021a40090009000100078000001be000400be0002
:1021b4002bfc07000200200003f02300f5fd0700bc
:1021c400300f9800410f98001e80fb00c200dd0014
:1021d400600121000080400010027800900290000d
:1021e4001e80fb000000e900c200dd006001210048
:1021f4000080400090009000100078000001be00b4
:102204000400be0016fc07000200200003f02300b7
:10221400e0fd0700500f9800610f980018c0b3004c
:102224005e099000ee0990007e0890008e109000e8
:10223400ddfc07000000e00001003d000044eb006d
:102244000804e000390032001e80fb00c200dd00fb
:102254006001210000804000900090001000780090
:1022640018c0b3007e0990008e119000cefc0700c8
:102274000000e00001003c000044eb000804e00022
:102284002a0032001e1090008040eb00114098009c
:102294001e80fb00c200dd006001210000804000c0
:1022a40090009000100078005e099000ee09900004
:1022b400ebfb07000200200003f02300b5fd07003c
:1022c40030079800410798003e019000ce0190002d
:1022d4005e089000ee089000e1fb07000200200079
:1022e40003f02300abfd07001007980021079800b6
:1022f4001e80fb00c200dd00600121000080400060
:1023040090009000100078003e019000ce019000f3
:10231400d3fb07000200200003f023009dfd07000b
:102324005007980061079800290037001e1090009c
:1023340011c0b300114098001e80fb00c200dd00f4
:10234400600121000080400090009000100078009f
:102354003e099000ce099000c1fb07000200200056
:1023640003f023008bfd0700300798004107980015
:102374001e80fb00c200dd006001210000804000df
:1023840090009000100078003e019000ce01900073
:10239400b3fb07000200200003f023007dfd0700cb
:1023a40010079800210798003e099000ce0990007c
:1023b4003e009000ce009000a9fb07000200200020
:1023c40003f0230073fd070050079800610798008d
:1023d4001e109000104090000004e0006c003a00d1
:1023e40018c0b3005e099000ee0990007e089000ca
:1023f4008e1090006cfc07000000e00001003d001e
:102404000044eb000804e0000f00320018c0b300e1
:102414001e019000ae0190007e0890008e10900086
:102424005ffc07000000e000010034000044eb0002
:102434000804e000040032001e10900031c0b30014
:1024440021409800c100370018c0b3001e0190005d
:10245400ae0190007e0890008e10900052fc0700a0
:102464000000e00001003c000044eb000804e00030
:102474000f00320018c0b3003e019000ce0190005e
:102484007e0890008e10900045fc07000000e000dc
:10249400010034000044eb000804e00004003200b2
:1024a4001e10900021c0b30021409800a7003700ff
:1024b40018c0b3003e019000ce0190007e08900049
:1024c4008e10900038fc07000000e00001003c0082
:1024d4000044eb000804e0000f00320018c0b30011
:1024e4005e019000ee0190007e0890008e10900036
:1024f4002bfc07000000e000010034000044eb0066
:102504000804e000040032001e10900011c0b30063
:10251400214098008d00370018c0b3005e01900080
:10252400ee0190007e0890008e1090001efc0700c3
:102534000000e00001003c000044eb000804e0005f
:102544007f0032001e80fb00c200dd00600121001c
:1025540000804000900090001000780018c0b30084
:102564007e0990008e1190000ffc07000000e0002f
:1025740001003d000044eb000804e000720032005a
:102584001e1090008040eb00214098006f0037003f
:102594001e80fb00c200dd006001210000804000bd
:1025a400900090001000780018c0b3007e099000dd
:1025b4008e119000fafb07000000e00001003400d7
:1025c4000044eb000804e0000f00320018c0b30020
:1025d4001e019000ae0190007e0890008e109000c5
:1025e400effb07000000e000010035000044eb00b1
:1025f4000804e000040032001e1090008040eb004c
:10260400214098005100370018c0b3001e0190000b
:10261400ae0190007e0890008e109000e2fb07004f
:102624000000e00001003d000044eb000804e0006d
:102634000f00320018c0b3003e019000ce0190009c
:102644007e0890008e109000d5fb07000000e0008b
:10265400010035000044eb000804e00004003200ef
:102664001e10900011c0b3002140980037003700bd
:1026740018c0b3003e019000ce0190007e08900087
:102684008e109000c8fb07000000e00001003d0030
:102694000044eb000804e0000f00320018c0b3004f
:1026a4005e019000ee0190007e0890008e10900074
:1026b400bbfb07000000e000010035000044eb0014
:1026c4000804e000040032001e10900021c0b30092
:1026d400214098001d00370018c0b3005e0190002f
:1026e400ee0190007e0890008e109000aefb070073
:1026f4000000e00001003d000044eb000804e0009d
:102704001200320018c0b3003e099000ce099000b8
:102714007e0890008e109000a1fb07000000e000ee
:10272400010034000044eb000804e000070032001c
:102734001e10900031c0b300214098000300370000
:102744000000000001003700000000004f04780082
:102754000080fa00000006000200fa00000f780072
:102764001e007800104090000080fb000000e00094
:1027740003003200e10f5000030032000400370070
:10278400240ea90002003700240ea8000000000057
:102794001e007800204090000080fb00e10f5000f4
:1027a4000f003200e10f500003003c000000e00085
:1027b4000600320019003700e20f50000d0032000d
:1027c400e30f50001000320014003700148ea800ec
:1027d400142ea900144ea900146ea9000f0037008e
:1027e400148ea900142ea800144ea900146ea9007a
:1027f4000a003700148ea900142ea900144ea80054
:10280400146ea90005003700148ea900142ea90027
:10281400144ea900146ea800000000000080fa0005
:10282400000006000000fa00c3e8a8000000000051
:10283400000000000080fa00000006000000fa001a
:1028440040a7a9000080fa00000006000200fa0078
:10285400000f780021028000200f2000008060001b
:102864001e007000200288000080fa0000000600ac
:102874000000fa000c00070095020700de020700c2
:10288400c902070039020700de010700ab02070096
:10289400e4ff0700e9ff070000022000ebff070048
:1028a4000080fa00000006000000fa00a0082000e2
:1028b400303a8800213a800000fe2f00008060003a
:1028c4000010a000203a8800213a8000f0f32f0085
:1028d40000806000203a8800320020008007200039
:1028e400a1092000337420008049780081497800d0
:1028f4008249780012002000600420007105200045
:102904002374200080497800814978008249780046
:1029140000000000113a8000000027008080600061
:1029240000002300808f5000faff3a0000000000ee
:10293400113a800000022000008060000000e000e6
:10294400fbff32000080fa00000006000000fa00dd
:10295400003a80000080fa00000006000200fa003d
:10296400faff0700000f78001e007800240007001b
:102974000004e0000200320000002800710007009b
:102984001e0078002a0007000004e0000200320064
:10299400000024006b0007001e00780032000700ce
:1029a4000004e0000200320000202000650007005f
:1029b4001e0078003a0007000004e0000200320024
:1029c400000820005f0007001e0078004200070096
:1029d4000004e00002003200000420005900070057
:1029e4001e0078004a0007000004e00002003200e4
:1029f40000012000530007000080fa0000000600d8
:102a04000400fa00100798000040eb00004f780023
:102a14001e0090000000e00002003d0010c0b30062
:102a2400004f78001e4078000080fa000000060085
:102a34000400fa00100798000040eb00004f7800f3
:102a44009e00900000002400008060000000e00070
:102a54000200320010c0b300004f78001e4078001e
:102a64000080fa00000006000400fa001007980035
:102a74000040eb00004f78009e00900000202000f2
:102a8400008060000000e0000200320010c0b300cb
:102a9400004f78001e4078000080fa000000060015
:102aa4000400fa00100798000040eb00004f780083
:102ab4009e00900000082000008060000000e000fc
:102ac4000200320010c0b300004f78001e407800ae
:102ad4000080fa00000006000400fa0010079800c5
:102ae4000040eb00004f78009e009000000420009e
:102af400008060000000e0000200320010c0b3005b
:102b0400004f78001e4078000080fa0000000600a4
:102b14000400fa00100798000040eb00004f780012
:102b24001e009000700060000000e000020032000f
:102b340010c0b300004f78001e4078000080fa00f7
:102b4400000006000200fa00000f78009e80ea00f0
:102b5400003a800000806000003a88000080fa009b
:102b6400000006000000fa004027ef000080fa0091
:102b7400000006000600fa00881f7800100798007d
:102b8400210798003aff070021e3a8000001eb00a9
:102b940001802100a0002000d4f7070001002200da
:102ba40000202000a9f707000000200001b0230046
:102bb400ddf6070040808800408080000001780036
:102bc40001c022000020200024fd0700010037007e
:102bd4000000000013d0bf000004e000fcff32003e
:102be4001370ef0012d0bf000004e000390032007f
:102bf40002c022000100240000202000abf80700de
:102c040050808800508080000001780001802200fc
:102c14000020200011fd0700038022000200240090
:102c240001002400002020008df80700030022008a
:102c3400020024000100240000202000abf807005b
:102c44000c30ef001e00370060808000618080003f
:102c540001814000010024008100410091007800be
:102c6400c308dd0000014000000024000000410012
:102c7400010878006280800060808000800040004d
:102c84000000240000804000900078004211dd0024
:102c940000002300000041000108780060808000eb
:102ca400c200dd0020002300008040008000eb0013
:102cb40001087800608080000000e80060808800df
:102cc40061808000f01f2000808f5000deff340000
:102cd4003800370002c022000140240000202000f8
:102ce40072f807005080880050808000000178004e
:102cf4000180220000202000d8fc0700038022006d
:102d040002402400014024000020200054f8070061
:102d1400030022000240240001402400002020007f
:102d240072f807000c30ef001e003700608080004e
:102d34006180800001814000014024008100410045
:102d440091007800c308dd00000140000040240029
:102d540000004100010878006280800060808000eb
:102d64008000400000402400008040009000780073
:102d74004211dd000000230000004100010878003a
:102d840060808000c200dd0020002300008040003d
:102d94008000eb0001087800608080000000e800fb
:102da4006080880061808000f01f2000808f5000c8
:102db400deff340003002300020023000120200072
:102dc4000020200016f8070023002300220023001f
:102dd400012020000020200011f8070003f02f003c
:102de4000280210001002300a000200042f8070017
:102df40001002300a0002000c5f8070002402200c3
:102e04000100230000202000dff807000000eb0091
:102e1400002089000200210001402200002020003f
:102e2400eff707000080800022002100014022000b
:102e34002ffc0700108080002180800018c0b300a0
:102e440002002000a33f2400d5f907000000e000a1
:102e5400010035000044eb000804e00006003200e5
:102e64001080800021808000620c21008ffc07000c
:102e7400600c210038fe07000000eb00000f780012
:042e840054ff3700c0
:020000040000fa
:102e8800a610000020000000800000000e100000c6
:102e98000200000082000000ffff00001010000088
:102ea8000200000080000000004000000008000050
:102eb80080000000121000000200000080000000e6
:102ec800ca1000000200000080000000cc100000c2
:102ed8000200000080000000002000000010000038
:102ee800800000000030000000100000800000009a
:102ef800001800000008000080000000001000001a
:102f08000e00000080000000c61000000400000051
:102f180080000000161000009000000082000000f1
:102f2800ecd18200429a99008a420a00d792420064
:102f38007b949b0042ecd100a442b8009eae4200b4
:102f48000000b90042000000c442f600a8cf4200c9
:102f58001f05dc00429a1900e942c300f5f6420059
:102f6800ecd10200439a99000a430a00d7124300a1
:102f7800ec911b0043ecd1002443b8009e2e430083
:102f88008f023900438f02004443f600a84f4300e4
:102f98008f025c00430a17006943c300f5764300bb
:102fa800ecd18200439a99008a430a00d7924300e1
:102fb800ec919b004333d300a4430000a0ae430030
:102fc8004801b900438f0200c4433d00aacf430023
:102fd8008f02dc0043521800e9437b00f4f64300fb
:102fe800ce10000002000000820000000004000073
:102ff8001410000002000000800000000000000023
:020000040000fa
:103008000000fa000021ef0060ae2a0010088800d6
:1030180000012800200888000068a9002068a8008e
:10302800c00c21008040eb00014878000080fa00c5
:10303800000006000200fa00000f78009e007800e9
:1030480011088800c00c21008040eb00014878007e
:103058000080fa00000006000000fa001008800056
:103068000080fa00000006000200fa00000f780055
:103078009e00780001088800c00c21008040eb0009
:10308800014878000080fa00000006000000fa00fd
:10309800000880000080fa00000006000000fa0026
:1030a800a070800000407800614060000004a20029
:1030b800614060000080fb0061006000a17080003a
:1030c8000100a10001007000a07088000080fa00d3
:1030d800000006000000fa00c00c21008040eb0050
:1030e800014878002068a80005e1a8000080fa00df
:1030f800000006000000fa0005e1a9002068a90008
:103108000080fa00000006000200fa00c00c21004e
:10311800104f78001e4078000004e00003003200e1
:10312800c00c21008040eb00014878001e40780068
:103138000080fa00000006000000fa00d00c210010
:10314800104078000080fb000080fa0000000600b4
:103158000000fa00d00c21008040eb000148780004
:103168000080fa00000006000000fa000a21ef00c3
:10317800c0452400700888000000280090088800d6
:10318800a00c21008040eb00014878000080fa0084
:10319800000006000000fa00014080000010200036
:1031a800008060000000e00009003200b00c21003f
:1031b800104078008040e800b00c210001487800f9
:1031c800a00c210011c0b300014878000108a90033
:1031d8000080fa00000006000200fa00000f7800e4
:1031e8009e00780071088800a00c21008040eb0048
:1031f800014878000080fa00000006000000fa008c
:10320800700880000080fa00000006000200fa0042
:10321800000f78009e00780051088800a00c21005b
:103228008040eb00014878000080fa0000000600aa
:103238000000fa00500880000080fa000000060034
:103248000000fa00a00c21008040eb000148780043
:1032580013e1a8000080fa00000006000000fa0050
:1032680013e1a9000080fa00000006000200fa003d
:10327800a00c2100104f78001e4078000004e000e8
:1032880003003200a00c21008040eb0001487800c8
:103298001e4078000080fa00000006000000fa00d6
:1032a800b00c2100104078000080fb000080fa007c
:1032b800000006000000fa00b00c21008040eb007e
:1032c800014878000080fa00000006000000fa00bb
:1032d800042eef00142eef00242eef00f0792000ca
:1032e8000070880000fe2f0080708800e03f2000fa
:1032f800007188000c2eef001c2eef002c2eef0022
:103308000a2eef001a2eef002a2eef00062eef00ed
:10331800162eef00262eef00300120007070880076
:1033280000102000f0708800600020007071880094
:103338000080fa00000006000000fa000158800032
:10334800f0fc2f00008060000058880001588000c1
:10335800c0ff2f00008060000010a0000058880007
:10336800d000200010588800f01f200070588800f6
:103378000030200060588800000024002058880091
:10338800062bef0000402400405888000a2bef006d
:103398000088a9002088a80001eba8000080fa0096
:1033a800000006000000fa004044290000198800c7
:1033b8002223ef00d0002000201988002823ef00e6
:1033c8002e23ef003023ef002623ef001019800092
:1033d8004200de007f40600010f0b7000080fa0075
:1033e800000006000000fa0001a8a9000080fa0009
:1033f800000006000000fa001142800080ff2f0044
:10340800008060000000a000104288000142800097
:10341800f0ff28000080600000c0a0000042880083
:103428000080fa0000000600000f78009e00780077
:1034380071808800ffff37000000fa00600a210051
:1034480080077800e00b2100000188000080fa0066
:0c345800000006007086880000000600de
:020000040000fa
:020000040002f8
:04afe000eeff000080
:020000040000fa
:020000040002f8
:04afe400ffff00006b
:020000040000fa
:020000040002f8
:04afe8007fff0000e7
:020000040000fa
:020000040002f8
:04afec00beff0000a4
:020000040000fa
:020000040002f8
:04aff000fbff000063
:020000040000fa
:020000040002f8
:04aff400ffff00005b
:00000001FF
