:020000040000fa
:080000000002040000000000f2
:020000040000fa
:0400080028030000c9
:020000040000fa
:04000c003a030000b3
:020000040000fa
:040010005203000097
:020000040000fa
:0400140030030000b5
:020000040000fa
:04001800420300009f
:020000040000fa
:04001c004a03000093
:020000040000fa
:040020005a0300007f
:020000040000fa
:040024007c03000059
:020000040000fa
:040028007c03000055
:020000040000fa
:04002c007c03000051
:020000040000fa
:040030007c0300004d
:020000040000fa
:04003400fa020000cc
:020000040000fa
:040038007c03000045
:020000040000fa
:04003c007c03000041
:020000040000fa
:040040007c0300003d
:020000040000fa
:040044007c03000039
:020000040000fa
:040048007c03000035
:020000040000fa
:04004c007c03000031
:020000040000fa
:040050007c0300002d
:020000040000fa
:040054007c03000029
:020000040000fa
:040058007c03000025
:020000040000fa
:04005c007c03000021
:020000040000fa
:040060007c0300001d
:020000040000fa
:040064007c03000019
:020000040000fa
:040068007c03000015
:020000040000fa
:04006c007c03000011
:020000040000fa
:040070007c0300000d
:020000040000fa
:040074007c03000009
:020000040000fa
:040078007c03000005
:020000040000fa
:04007c007c03000001
:020000040000fa
:040080007c030000fd
:020000040000fa
:040084007c030000f9
:020000040000fa
:040088007c030000f5
:020000040000fa
:04008c007c030000f1
:020000040000fa
:040090007c030000ed
:020000040000fa
:040094007c030000e9
:020000040000fa
:040098007c030000e5
:020000040000fa
:04009c007c030000e1
:020000040000fa
:0400a0007c030000dd
:020000040000fa
:0400a4007c030000d9
:020000040000fa
:0400a8007c030000d5
:020000040000fa
:0400ac007c030000d1
:020000040000fa
:0400b0007c030000cd
:020000040000fa
:0400b4007c030000c9
:020000040000fa
:0400b8007c030000c5
:020000040000fa
:0400bc007c030000c1
:020000040000fa
:0400c0007c030000bd
:020000040000fa
:0400c4007c030000b9
:020000040000fa
:0400c8007c030000b5
:020000040000fa
:0400cc007c030000b1
:020000040000fa
:0400d0007c030000ad
:020000040000fa
:0400d4007c030000a9
:020000040000fa
:0400d8007c030000a5
:020000040000fa
:0400dc007c030000a1
:020000040000fa
:0400e0007c0300009d
:020000040000fa
:0400e4007c03000099
:020000040000fa
:0400e8007c03000095
:020000040000fa
:0400ec007c03000091
:020000040000fa
:0400f0007c0300008d
:020000040000fa
:0400f4007c03000089
:020000040000fa
:0400f8007c03000085
:020000040000fa
:0400fc007c03000081
:020000040000fa
:040100007c0300007c
:020000040000fa
:040104007c03000078
:020000040000fa
:040108007c03000074
:020000040000fa
:04010c007c03000070
:020000040000fa
:040110007c0300006c
:020000040000fa
:040114007c03000068
:020000040000fa
:040118007c03000064
:020000040000fa
:04011c007c03000060
:020000040000fa
:040120007c0300005c
:020000040000fa
:040124007c03000058
:020000040000fa
:040128007c03000054
:020000040000fa
:04012c007c03000050
:020000040000fa
:040130007c0300004c
:020000040000fa
:040134007c03000048
:020000040000fa
:040138007c03000044
:020000040000fa
:04013c007c03000040
:020000040000fa
:040140007c0300003c
:020000040000fa
:040144007c03000038
:020000040000fa
:040148007c03000034
:020000040000fa
:04014c007c03000030
:020000040000fa
:040150007c0300002c
:020000040000fa
:040154007c03000028
:020000040000fa
:040158007c03000024
:020000040000fa
:04015c007c03000020
:020000040000fa
:040160007c0300001c
:020000040000fa
:040164007c03000018
:020000040000fa
:040168007c03000014
:020000040000fa
:04016c007c03000010
:020000040000fa
:040170007c0300000c
:020000040000fa
:040174007c03000008
:020000040000fa
:040178007c03000004
:020000040000fa
:04017c007c03000000
:020000040000fa
:040180007c030000fc
:020000040000fa
:040184007c030000f8
:020000040000fa
:040188007c030000f4
:020000040000fa
:04018c007c030000f0
:020000040000fa
:040190007c030000ec
:020000040000fa
:040194007c030000e8
:020000040000fa
:040198007c030000e4
:020000040000fa
:04019c007c030000e0
:020000040000fa
:0401a0007c030000dc
:020000040000fa
:0401a4007c030000d8
:020000040000fa
:0401a8007c030000d4
:020000040000fa
:0401ac007c030000d0
:020000040000fa
:0401b0007c030000cc
:020000040000fa
:0401b4007c030000c8
:020000040000fa
:0401b8007c030000c4
:020000040000fa
:0401bc007c030000c0
:020000040000fa
:0401c0007c030000bc
:020000040000fa
:0401c4007c030000b8
:020000040000fa
:0401c8007c030000b4
:020000040000fa
:0401cc007c030000b0
:020000040000fa
:0401d0007c030000ac
:020000040000fa
:0401d4007c030000a8
:020000040000fa
:0401d8007c030000a4
:020000040000fa
:0401dc007c030000a0
:020000040000fa
:0401e0007c0300009c
:020000040000fa
:0401e4007c03000098
:020000040000fa
:0401e8007c03000094
:020000040000fa
:0401ec007c03000090
:020000040000fa
:0401f0007c0300008c
:020000040000fa
:0401f4007c03000088
:020000040000fa
:0401f8007c03000084
:020000040000fa
:0401fc007c03000080
:020000040000fa
:040200007c0300007b
:020000040000fa
:040204007c03000077
:020000040000fa
:040208007c03000073
:020000040000fa
:04020c007c0300006f
:020000040000fa
:040210007c0300006b
:020000040000fa
:040214007c03000067
:020000040000fa
:040218007c03000063
:020000040000fa
:04021c007c0300005f
:020000040000fa
:040220007c0300005b
:020000040000fa
:040224007c03000057
:020000040000fa
:040228007c03000053
:020000040000fa
:04022c007c0300004f
:020000040000fa
:040230007c0300004b
:020000040000fa
:040234007c03000047
:020000040000fa
:040238007c03000043
:020000040000fa
:04023c007c0300003f
:020000040000fa
:040240007c0300003b
:020000040000fa
:040244007c03000037
:020000040000fa
:040248007c03000033
:020000040000fa
:04024c007c0300002f
:020000040000fa
:040250007c0300002b
:020000040000fa
:040254007c03000027
:020000040000fa
:040258007c03000023
:020000040000fa
:04025c007c0300001f
:020000040000fa
:040260007c0300001b
:020000040000fa
:040264007c03000017
:020000040000fa
:040268007c03000013
:020000040000fa
:04026c007c0300000f
:020000040000fa
:040270007c0300000b
:020000040000fa
:040274007c03000007
:020000040000fa
:040278007c03000003
:020000040000fa
:04027c007c030000ff
:020000040000fa
:040280007c030000fb
:020000040000fa
:100400006f0221000eff24000e0188000000000092
:10041000000020000000e000020032000001200087
:100420002002880014000700b50007000000e0006b
:1004300003003a00c06320000100200002003700e2
:100440000000200001002000810f70000100320038
:100450000f000700000020000000e0000200320052
:100460000000020000000000600602000000000022
:100470000040da000000fe00200020000000e00044
:1004800002003200100020009001880000000600e9
:10049000a1028800800478000000eb001f003700f4
:1004a000e284440054a0b4009905ba00e2844400f8
:1004b00054a0b4009906ba00e284440054a0b400e9
:1004c0000006eb00476fde00fd07b200ae018800ba
:1004d000636ce10003003a000ad801000000eb0061
:1004e0000e003700606ce10008003a00004deb00a0
:1004f0000a05e800020039003420ec000af0a000f0
:100500008b05e900f9ff3e00040037006168e10057
:10051000010032000086eb000b00070019c7ba008b
:100520000e04e0001905ba0003003a000a00e000da
:10053000dbff3a0000000600fe07b200ae028800b2
:100540008a047800f5ff37000cd0a300e20f4d00bd
:100550001c00390089027800354dba000a05e80010
:10056000020039003420ec000af0a0008b05e900fd
:100570000f003200254dba000a05e80002003900dc
:100580003420ec000af0a0008b05e90008003200de
:100590000c00e0000600320015cdba000a05e800a4
:1005a000020039003420ec000af0a0008b05e900bd
:1005b0008984e80054a0b4000b00e000e2ff3a0098
:1005c000000006009902ba00055d78008b05e9007d
:1005d000f7ff3200c82ade00055d78008b05e900d0
:1005e000f3ff32000c00e000f1ff320019ddba0029
:1005f000eeff37003600f800809fbe00829fbe00ed
:10060000849fbe00869fbe000000fa0030010700f4
:1006100050022100104078008040e8005002210084
:10062000014878004002210011c0b3000148780061
:100630000068a9000080fa004f03be004f02be0010
:100640004f01be004f00be003600f900004006001a
:100650003600f800c028a9000000eb00a001070048
:100660003600f800a2010700c048a90010002000d1
:100670009b0107003600f800c068a9002000200098
:10068000970107003600f800c088a900300020005c
:10069000930107003600f800c0a8a9004000200020
:1006a0008f0107003600f800c608a900700020007e
:1006b0008b0107003600f800214680000002200070
:1006c000008060000000e00003003200c4a8a90020
:1006d000900020008201070020468000700060002a
:1006e0000000e00003003200c488a900a000200040
:1006f0007b010700ffff37000040da000000fe002a
:0407000000000500f0
:020000040000fa
:100704000000fa00c3e8a800000000000000000098
:100714000080fa00000006000200fa00000f7800d2
:1007240021028000200f2000008060001e00700065
:10073400200288000080fa00000006000000fa0091
:100744001d010700700107000700070035010700bd
:10075400b7000700eaff070000022000eeff0700d1
:100764000080fa00000006000000fa008200200069
:100774006004200071052000237420008049780063
:10078400814978008249780020102300203a8800ab
:100794004827ef004e27ef00e0022000303a88009f
:1007a4004420a90044c0a90044e0a9004480a90051
:1007b4000080fa00000006000000fa00003a800001
:1007c4000080fa00000006000200fa00faff0700a9
:1007d400000f78001e007800240007000004e000e9
:1007e4000200320000002800710007001e0078009b
:1007f4002a0007000004e000020032000000240088
:100804006b0007001e007800320007000004e000bf
:100814000200320000202000650007001e0078005e
:100824003a0007000004e000020032000008200043
:100834005f0007001e007800420007000004e0008b
:100844000200320000042000590007001e00780056
:100854004a0007000004e00002003200000120000a
:10086400530007000080fa00000006000400fa00ac
:10087400100798000040eb00004f78001e00900025
:100884000000e00002003d0010c0b300004f7800fb
:100894001e4078000080fa00000006000400fa0000
:1008a400100798000040eb00004f78009e00900075
:1008b40000002400008060000000e000020032001c
:1008c40010c0b300004f78001e4078000080fa008a
:1008d400000006000400fa00100798000040eb0036
:1008e400004f78009e0090000020200000806000ef
:1008f4000000e0000200320010c0b300004f780096
:100904001e4078000080fa00000006000400fa008f
:10091400100798000040eb00004f78009e00900004
:1009240000082000008060000000e00002003200a7
:1009340010c0b300004f78001e4078000080fa0019
:10094400000006000400fa00100798000040eb00c5
:10095400004f78009e00900000042000008060009a
:100964000000e0000200320010c0b300004f780025
:100974001e4078000080fa00000006000400fa001f
:10098400100798000040eb00004f78001e00900014
:10099400700060000000e0000200320010c0b300ec
:1009a400004f78001e4078000080fa000000060026
:1009b4000200fa00000f78009e80ea00003a8000ee
:1009c40000806000003a88000080fa000000060001
:1009d4000000fa004027ef000080fa000000060043
:1009e4000000fa002023a9000080fa00000006009d
:1009f4000000fa00001880000080fa0000000600e1
:100a04000000fa0000198000004078006140600096
:100a14000080fb0000f0a7000000ea000000ea00ec
:100a24004f00de00004078000080fa00000006005d
:100a34000000fa000021ef0000ad26001008880035
:100a440000032800200888000068a9002068a80086
:100a5400400221008040eb00014878000080fa0049
:100a6400000006000200fa00000f78009e007800e3
:100a740011088800400221008040eb000148780002
:100a84000080fa00000006000000fa001008800050
:100a94000080fa00000006000200fa00000f78004f
:100aa4009e00780001088800400221008040eb008d
:100ab400014878000080fa00000006000000fa00f7
:100ac400000880000080fa00000006000200fa001e
:100ad400c3ff070000000000c9ff07000004a200d4
:100ae4000004e000fcff3a00c1ff0700000f78009b
:100af400a070800000407800614060000004a20003
:100b0400614060000080fb0061006000a170800013
:100b14000100a10001007000a07088000080fa00ac
:100b2400000006000000fa00400221008040eb00b3
:100b3400014878002068a80005e1a8000080fa00b8
:100b4400000006000000fa0005e1a9002068a900e1
:100b54000080fa00000006000200fa0040022100b2
:100b6400104f78001e4078000004e00003003200bb
:100b7400400221008040eb00014878001e407800cc
:100b84000080fa00000006000000fa005002210074
:100b9400104078000080fb000080fa00000006008e
:100ba4000000fa00500221008040eb000148780068
:100bb4000080fa00000006000000fa00042eef0096
:100bc400142eef00242eef00f0792000007088002e
:100bd400e0ff2f0080708800f03f20000071880043
:100be4000c2eef001c2eef002c2eef000a2eef002f
:100bf4001a2eef002a2eef00062eef00162eef001d
:100c0400262eef003001200070708800a010200014
:100c1400f070880070002000707188000080fa0075
:100c2400000006000000fa00404028000019880077
:100c34002223ef00d0002000201988002823ef0091
:100c44002e23ef003023ef002623ef00101980003d
:100c54004200de007f40600002f0b7000080fa002e
:100c6400000006000000fa0001a8a9000080fa00b4
:040c74000000060076
:020000040000fa
:100c780024100000020000008000000004100000a2
:100c880020000000800000000010000002000000aa
:100c980082000000ffff00000210000002000000b8
:080ca8008000000000000000c4
:020000040000fa
:100cb0000000fa0040a7a9000080fa00000006002a
:100cc0000400fa00000f7800110798009cfe07004e
:100cd000f7ff070094ff070021e3a800ffff37009c
:100ce000000f78009e00780001808800ffff370029
:100cf0000000fa004000210080077800c0012100b8
:100d0000000188000080fa00000006000000fa00e0
:100d100001428000f0ff28000080600000c0a000b9
:0c0d2000004288000080fa00000006007d
:020000040000fa
:020000040002f8
:04afe000eeff000080
:020000040000fa
:020000040002f8
:04afe400ffff00006b
:020000040000fa
:020000040002f8
:04afe8007fff0000e7
:020000040000fa
:020000040002f8
:04afec00beff0000a4
:020000040000fa
:020000040002f8
:04aff000fbff000063
:020000040000fa
:020000040002f8
:04aff400ffff00005b
:00000001FF
