:020000040000fa
:080000000002040000000000f2
:020000040000fa
:04000800fa020000f8
:020000040000fa
:04000c000c030000e1
:020000040000fa
:0400100024030000c5
:020000040000fa
:0400140002030000e3
:020000040000fa
:0400180014030000cd
:020000040000fa
:04001c001c030000c1
:020000040000fa
:040020002c030000ad
:020000040000fa
:040024004e03000087
:020000040000fa
:040028004e03000083
:020000040000fa
:04002c004e0300007f
:020000040000fa
:040030004e0300007b
:020000040000fa
:0400340016050000ad
:020000040000fa
:04003800c6060000f8
:020000040000fa
:04003c004e0300006f
:020000040000fa
:040040004e0300006b
:020000040000fa
:040044004e03000067
:020000040000fa
:040048004e03000063
:020000040000fa
:04004c004e0300005f
:020000040000fa
:040050004e0300005b
:020000040000fa
:040054004e03000057
:020000040000fa
:040058004e03000053
:020000040000fa
:04005c004e0300004f
:020000040000fa
:040060004e0300004b
:020000040000fa
:040064004e03000047
:020000040000fa
:040068004e03000043
:020000040000fa
:04006c004e0300003f
:020000040000fa
:040070004e0300003b
:020000040000fa
:040074004e03000037
:020000040000fa
:040078004e03000033
:020000040000fa
:04007c004e0300002f
:020000040000fa
:040080004e0300002b
:020000040000fa
:040084004e03000027
:020000040000fa
:040088004e03000023
:020000040000fa
:04008c004e0300001f
:020000040000fa
:040090004e0300001b
:020000040000fa
:040094004e03000017
:020000040000fa
:040098004e03000013
:020000040000fa
:04009c004e0300000f
:020000040000fa
:0400a0004e0300000b
:020000040000fa
:0400a4004e03000007
:020000040000fa
:0400a8004e03000003
:020000040000fa
:0400ac004e030000ff
:020000040000fa
:0400b0004e030000fb
:020000040000fa
:0400b4004e030000f7
:020000040000fa
:0400b8004e030000f3
:020000040000fa
:0400bc004e030000ef
:020000040000fa
:0400c0004e030000eb
:020000040000fa
:0400c4004e030000e7
:020000040000fa
:0400c8004e030000e3
:020000040000fa
:0400cc004e030000df
:020000040000fa
:0400d0004e030000db
:020000040000fa
:0400d4004e030000d7
:020000040000fa
:0400d8004e030000d3
:020000040000fa
:0400dc004e030000cf
:020000040000fa
:0400e0004e030000cb
:020000040000fa
:0400e4004e030000c7
:020000040000fa
:0400e8004e030000c3
:020000040000fa
:0400ec004e030000bf
:020000040000fa
:0400f0004e030000bb
:020000040000fa
:0400f4004e030000b7
:020000040000fa
:0400f8004e030000b3
:020000040000fa
:0400fc004e030000af
:020000040000fa
:040100004e030000aa
:020000040000fa
:040104004e030000a6
:020000040000fa
:040108004e030000a2
:020000040000fa
:04010c004e0300009e
:020000040000fa
:040110004e0300009a
:020000040000fa
:040114004e03000096
:020000040000fa
:040118004e03000092
:020000040000fa
:04011c004e0300008e
:020000040000fa
:040120004e0300008a
:020000040000fa
:040124004e03000086
:020000040000fa
:040128004e03000082
:020000040000fa
:04012c004e0300007e
:020000040000fa
:040130004e0300007a
:020000040000fa
:040134004e03000076
:020000040000fa
:040138004e03000072
:020000040000fa
:04013c004e0300006e
:020000040000fa
:040140004e0300006a
:020000040000fa
:040144004e03000066
:020000040000fa
:040148004e03000062
:020000040000fa
:04014c004e0300005e
:020000040000fa
:040150004e0300005a
:020000040000fa
:040154004e03000056
:020000040000fa
:040158004e03000052
:020000040000fa
:04015c004e0300004e
:020000040000fa
:040160004e0300004a
:020000040000fa
:040164004e03000046
:020000040000fa
:040168004e03000042
:020000040000fa
:04016c004e0300003e
:020000040000fa
:040170004e0300003a
:020000040000fa
:040174004e03000036
:020000040000fa
:040178004e03000032
:020000040000fa
:04017c004e0300002e
:020000040000fa
:040180004e0300002a
:020000040000fa
:040184004e03000026
:020000040000fa
:040188004e03000022
:020000040000fa
:04018c004e0300001e
:020000040000fa
:040190004e0300001a
:020000040000fa
:040194004e03000016
:020000040000fa
:040198004e03000012
:020000040000fa
:04019c004e0300000e
:020000040000fa
:0401a0004e0300000a
:020000040000fa
:0401a4004e03000006
:020000040000fa
:0401a8004e03000002
:020000040000fa
:0401ac004e030000fe
:020000040000fa
:0401b0004e030000fa
:020000040000fa
:0401b4004e030000f6
:020000040000fa
:0401b8004e030000f2
:020000040000fa
:0401bc004e030000ee
:020000040000fa
:0401c0004e030000ea
:020000040000fa
:0401c4004e030000e6
:020000040000fa
:0401c8004e030000e2
:020000040000fa
:0401cc004e030000de
:020000040000fa
:0401d0004e030000da
:020000040000fa
:0401d4004e030000d6
:020000040000fa
:0401d8004e030000d2
:020000040000fa
:0401dc004e030000ce
:020000040000fa
:0401e0004e030000ca
:020000040000fa
:0401e4004e030000c6
:020000040000fa
:0401e8004e030000c2
:020000040000fa
:0401ec004e030000be
:020000040000fa
:0401f0004e030000ba
:020000040000fa
:0401f4004e030000b6
:020000040000fa
:0401f8004e030000b2
:020000040000fa
:0401fc004e030000ae
:020000040000fa
:040200004e030000a9
:020000040000fa
:040204004e030000a5
:020000040000fa
:040208004e030000a1
:020000040000fa
:04020c004e0300009d
:020000040000fa
:040210004e03000099
:020000040000fa
:040214004e03000095
:020000040000fa
:040218004e03000091
:020000040000fa
:04021c004e0300008d
:020000040000fa
:040220004e03000089
:020000040000fa
:040224004e03000085
:020000040000fa
:040228004e03000081
:020000040000fa
:04022c004e0300007d
:020000040000fa
:040230004e03000079
:020000040000fa
:040234004e03000075
:020000040000fa
:040238004e03000071
:020000040000fa
:04023c004e0300006d
:020000040000fa
:040240004e03000069
:020000040000fa
:040244004e03000065
:020000040000fa
:040248004e03000061
:020000040000fa
:04024c004e0300005d
:020000040000fa
:040250004e03000059
:020000040000fa
:040254004e03000055
:020000040000fa
:040258004e03000051
:020000040000fa
:04025c004e0300004d
:020000040000fa
:040260004e03000049
:020000040000fa
:040264004e03000045
:020000040000fa
:040268004e03000041
:020000040000fa
:04026c004e0300003d
:020000040000fa
:040270004e03000039
:020000040000fa
:040274004e03000035
:020000040000fa
:040278004e03000031
:020000040000fa
:04027c004e0300002d
:020000040000fa
:040280004e03000029
:020000040000fa
:100400004fc321000eff24000e01880000000000f1
:10041000000020000000e000020032000001200087
:1004200020028800140007009e0007000000e00082
:1004300003003a00a07220000100200002003700f3
:100440000000200001002000810f70000100320038
:100450000f000700000020000000e0000200320052
:100460000000020000000000b807020000000000c9
:100470000040da000000fe00200020000000e00044
:1004800002003200100020009001880000000600e9
:10049000a1028800800478000000eb001f003700f4
:1004a000e284440054a0b4009905ba00e2844400f8
:1004b00054a0b4009906ba00e284440054a0b400e9
:1004c0000006eb00476fde00fd07b200ae018800ba
:1004d000636ce10003003a000ad801000000eb0061
:1004e0000e003700606ce10008003a00004deb00a0
:1004f0000a05e800020039003420ec000af0a000f0
:100500008b05e900f9ff3e00040037006168e10057
:10051000010032000086eb000b00070019c7ba008b
:100520001905ba000e04e00003003a000a00e000da
:10053000dbff3a0000000600fe07b200ae028800b2
:100540008a047800f5ff37000cd0a300e20f4d00bd
:100550001c00390089027800354dba000a05e80010
:10056000020039003420ec000af0a0008b05e900fd
:100570000f003200254dba000a05e80002003900dc
:100580003420ec000af0a0008b05e90008003200de
:100590000c00e0000600320015cdba000a05e800a4
:1005a000020039003420ec000af0a0008b05e900bd
:1005b0008984e80054a0b4000b00e000e2ff3a0098
:1005c000000006009902ba00055d78008b05e9007d
:1005d000f7ff3200c82ade00055d78008b05e900d0
:1005e000f3ff32000c00e000f1ff320019ddba0029
:1005f000eeff37003600f800c028a9000000eb002d
:10060000500207003600f80052020700c048a90057
:10061000100020004b0207003600f800c068a90057
:1006200020002000470207003600f800c088a9001b
:1006300030002000430207003600f800c0a8a900df
:10064000400020003f0207003600f800c608a9005d
:10065000700020003b0207003600f80021468000b1
:1006600000022000008060000000e0000300320073
:10067000c4a8a90090002000320207002046800094
:10068000700060000000e00003003200c488a90090
:10069000a00020002b020700ffff37000040da0017
:0806a0000000fe00000005004f
:020000040000fa
:1006a8000000fa00c3e8a8000000000000000000f5
:1006b8000080fa00000006000000fa0040a7a90028
:1006c8000080fa00000006000200fa00000f78001f
:1006d80021028000200f2000008060001e007000b2
:1006e800200288000080fa00000006000000fa00de
:1006f8000c000700ba01070003020700ee0107001b
:100708002c010700ba00070083010700e4ff070077
:10071800e9ff070000022000ebff07000080fa0055
:10072800000006000000fa00a0082000303a880007
:10073800213a800000fe2f00008060000010a00019
:10074800203a8800213a8000f0f32f0000806000f2
:10075800203a88003200200080072000a1092000ec
:1007680033742000804978008149780082497800f4
:10077800120020006004200071052000237420006e
:10078800804978008149780082497800000000009b
:10079800113a8000000027008080600000002300dc
:1007a800808f5000faff3a0000000000113a8000e4
:1007b80000022000008060000000e000fbff320023
:1007c8000080fa00000006000000fa00003a8000ed
:1007d8000080fa00000006000200fa00faff070095
:1007e800000f78001e007800240007000004e000d5
:1007f8000200320000002800710007001e00780087
:100808002a0007000004e000020032000000240073
:100818006b0007001e007800320007000004e000ab
:100828000200320000202000650007001e0078004a
:100838003a0007000004e00002003200000820002f
:100848005f0007001e007800420007000004e00077
:100858000200320000042000590007001e00780042
:100868004a0007000004e0000200320000012000f6
:10087800530007000080fa00000006000400fa0098
:10088800100798000040eb00004f78001e00900011
:100898000000e00002003d0010c0b300004f7800e7
:1008a8001e4078000080fa00000006000400fa00ec
:1008b800100798000040eb00004f78009e00900061
:1008c80000002400008060000000e0000200320008
:1008d80010c0b300004f78001e4078000080fa0076
:1008e800000006000400fa00100798000040eb0022
:1008f800004f78009e0090000020200000806000db
:100908000000e0000200320010c0b300004f780081
:100918001e4078000080fa00000006000400fa007b
:10092800100798000040eb00004f78009e009000f0
:1009380000082000008060000000e0000200320093
:1009480010c0b300004f78001e4078000080fa0005
:10095800000006000400fa00100798000040eb00b1
:10096800004f78009e009000000420000080600086
:100978000000e0000200320010c0b300004f780011
:100988001e4078000080fa00000006000400fa000b
:10099800100798000040eb00004f78001e00900000
:1009a800700060000000e0000200320010c0b300d8
:1009b800004f78001e4078000080fa000000060012
:1009c8000200fa00000f78009e80ea00003a8000da
:1009d80000806000003a88000080fa0000000600ed
:1009e8000000fa004027ef000080fa00000006002f
:1009f8000000fa000021ef0000ad26001008880072
:100a080000032800200888000068a9002068a800c2
:100a180020c321008040eb00014878000080fa00e4
:100a2800000006003600f800809fbe00829fbe00ce
:100a3800849fbe00869fbe000000fa002a000700bf
:100a480030c32100104078008040e80030c3210006
:100a58000148780020c3210011c0b3000148780084
:100a68000068a9000080fa004f03be004f02be00d4
:100a78004f01be004f00be003600f90000400600de
:100a88000200fa00000f78009e0078001108880024
:100a980020c321008040eb00014878000080fa0064
:100aa800000006000000fa00100880000080fa002c
:100ab800000006000200fa00000f78009e0078008f
:100ac8000108880020c321008040eb00014878001d
:100ad8000080fa00000006000000fa00000880000c
:100ae8000080fa00000006000000fa00a0708000f4
:100af80000407800614060000004a200614060008e
:100b08000080fb0061006000a17080000100a1006e
:100b180001007000a07088000080fa000000060044
:100b28000000fa0020c321008040eb000148780053
:100b38002068a80005e1a8000080fa00000006006f
:100b48000000fa0005e1a9002068a9000080fa0069
:100b5800000006000200fa0020c32100104f7800b0
:100b68001e4078000004e0000300320020c321008a
:100b78008040eb00014878001e4078000080fa00b1
:100b8800000006000000fa0030c321001040780081
:100b98000080fb000080fa00000006000000fa0058
:100ba80030c321008040eb00014878000080fa0043
:100bb800000006000000fa000a21ef00c0452400ea
:100bc80070088800000028009008880000c32100f1
:100bd8008040eb00014878000080fa000000060021
:100be8000000fa0001408000001020000080600032
:100bf8000000e0000900320010c321001040780016
:100c08008040e80010c321000148780000c321009b
:100c180011c0b300014878000108a9000080fa005b
:100c2800000006000200fa00000f78009e0078001d
:100c38007108880000c321008040eb00014878005b
:100c48000080fa00000006000000fa00700880002a
:100c58000080fa00000006000200fa00000f780089
:100c68009e0078005108880000c321008040eb00f6
:100c7800014878000080fa00000006000000fa0031
:100c8800500880000080fa00000006000000fa000a
:100c980000c321008040eb000148780013e1a80060
:100ca8000080fa00000006000000fa0013e1a90025
:100cb8000080fa00000006000200fa0000c32100cc
:100cc800104f78001e4078000004e0000300320056
:100cd80000c321008040eb00014878001e407800e6
:100ce8000080fa00000006000000fa0010c321008e
:100cf800104078000080fb000080fa000000060029
:100d08000000fa0010c321008040eb000148780081
:100d18000080fa00000006000000fa000158800078
:100d2800f0fc2f0000806000005888000158800007
:100d3800c0ff2f00008060000010a000005888004d
:100d4800d000200010588800f01f2000705888003c
:100d580000302000605888000001210020588800d9
:100d6800062bef0000412100405888000a2bef00b5
:100d78000088a9002088a80001eba8000080fa00dc
:100d880000000600801f78000000fa0070808000d4
:100d98000000e00004003200408080000000e8000d
:100da8004080880003003700408080000000e80091
:100db8004080880040808000e20f500001003a0027
:100dc8000830ef00708080000000a200708088006a
:100dd8000088a9000080fa004f0078000040060053
:100de8000000fa00042eef00142eef00242eef006e
:100df800f079200000708800e0ff2f0080708800e4
:100e0800f03f2000007188000c2eef001c2eef0030
:100e18002c2eef000a2eef001a2eef002a2eef00dc
:100e2800062eef00162eef00262eef0030012000d0
:100e380070708800a0102000f070880070002000fa
:0c0e4800707188000080fa0000000600b5
:020000040000fa
:100e5400101c000020000000800000000a100000a8
:100e64000200000082000000ffff00000c100000e0
:100e7400020000008000000010100000000c0000c0
:100e8400800000000e10000002000000820000003c
:100e940001000000001000000a00000080000000b3
:100ea400301c00000200000080000000321c000022
:0c0eb400020000008000000000000000b0
:020000040000fa
:100ec0000000fa0040442900001988002223ef00a6
:100ed000d0002000201988002823ef002e23ef00e7
:100ee0003023ef002623ef00101980004200de00bf
:100ef0007f4060000cf0b7000080fa0000000600a0
:100f00000000fa0001a8a9000080fa000000060015
:100f10000000fa001142800080ff2f000080600076
:100f20000000a0001042880001428000f0ff28006d
:100f30000080600000c0a000004288000080fa002d
:100f400000000600000f78009e00780051808800a5
:100f5000ffff37000000fa0000c121008007780081
:100f600080c22100000188000080fa000000060015
:100f70000400fa00000f780011079800ddfd07005b
:080f800021e3a800ffff370088
:020000040000fa
:020000040002f8
:04afe000eeff000080
:020000040000fa
:020000040002f8
:04afe400ffff00006b
:020000040000fa
:020000040002f8
:04afe8007fff0000e7
:020000040000fa
:020000040002f8
:04afec00beff0000a4
:020000040000fa
:020000040002f8
:04aff000fbff000063
:020000040000fa
:020000040002f8
:04aff400ffff00005b
:00000001FF
